{
  "contractName": "BatchMintMetadata",
  "abi": [
    {
      "inputs": [],
      "name": "getBaseURICount",
      "outputs": [
        {
          "internalType": "uint256",
          "name": "",
          "type": "uint256"
        }
      ],
      "stateMutability": "view",
      "type": "function"
    },
    {
      "inputs": [
        {
          "internalType": "uint256",
          "name": "_index",
          "type": "uint256"
        }
      ],
      "name": "getBatchIdAtIndex",
      "outputs": [
        {
          "internalType": "uint256",
          "name": "",
          "type": "uint256"
        }
      ],
      "stateMutability": "view",
      "type": "function"
    }
  ],
  "bytecode": "0x608060405234801561001057600080fd5b5061027a806100206000396000f3fe608060405234801561001057600080fd5b50600436106100365760003560e01c80632419f51b1461003b57806363b45e2d1461006b575b600080fd5b61005560048036038101906100509190610141565b610089565b604051610062919061017d565b60405180910390f35b6100736100fa565b604051610080919061017d565b60405180910390f35b60006100936100fa565b82106100d4576040517f08c379a00000000000000000000000000000000000000000000000000000000081526004016100cb906101f5565b60405180910390fd5b600082815481106100e8576100e7610215565b5b90600052602060002001549050919050565b60008080549050905090565b600080fd5b6000819050919050565b61011e8161010b565b811461012957600080fd5b50565b60008135905061013b81610115565b92915050565b60006020828403121561015757610156610106565b5b60006101658482850161012c565b91505092915050565b6101778161010b565b82525050565b6000602082019050610192600083018461016e565b92915050565b600082825260208201905092915050565b7f496e76616c696420696e64657800000000000000000000000000000000000000600082015250565b60006101df600d83610198565b91506101ea826101a9565b602082019050919050565b6000602082019050818103600083015261020e816101d2565b9050919050565b7f4e487b7100000000000000000000000000000000000000000000000000000000600052603260045260246000fdfea264697066735822122042bd209cf103564047fe20cf79fa523ff3870bfaec644835e792768676eb9e8f64736f6c634300080c0033",
  "immutableReferences": {},
  "source": "// SPDX-License-Identifier: Apache-2.0\npragma solidity ^0.8.0;\n\n/// @author thirdweb\n\n/**\n *  @title   Batch-mint Metadata\n *  @notice  The `BatchMintMetadata` is a contract extension for any base NFT contract. It lets the smart contract\n *           using this extension set metadata for `n` number of NFTs all at once. This is enabled by storing a single\n *           base URI for a batch of `n` NFTs, where the metadata for each NFT in a relevant batch is `baseURI/tokenId`.\n */\n\ncontract BatchMintMetadata {\n    /// @dev Largest tokenId of each batch of tokens with the same baseURI.\n    uint256[] private batchIds;\n\n    /// @dev Mapping from id of a batch of tokens => to base URI for the respective batch of tokens.\n    mapping(uint256 => string) private baseURI;\n\n    /**\n     *  @notice         Returns the count of batches of NFTs.\n     *  @dev            Each batch of tokens has an in ID and an associated `baseURI`.\n     *                  See {batchIds}.\n     */\n    function getBaseURICount() public view returns (uint256) {\n        return batchIds.length;\n    }\n\n    /**\n     *  @notice         Returns the ID for the batch of tokens the given tokenId belongs to.\n     *  @dev            See {getBaseURICount}.\n     *  @param _index   ID of a token.\n     */\n    function getBatchIdAtIndex(uint256 _index) public view returns (uint256) {\n        if (_index >= getBaseURICount()) {\n            revert(\"Invalid index\");\n        }\n        return batchIds[_index];\n    }\n\n    /// @dev Returns the id for the batch of tokens the given tokenId belongs to.\n    function _getBatchId(uint256 _tokenId) internal view returns (uint256 batchId, uint256 index) {\n        uint256 numOfTokenBatches = getBaseURICount();\n        uint256[] memory indices = batchIds;\n\n        for (uint256 i = 0; i < numOfTokenBatches; i += 1) {\n            if (_tokenId < indices[i]) {\n                index = i;\n                batchId = indices[i];\n\n                return (batchId, index);\n            }\n        }\n\n        revert(\"Invalid tokenId\");\n    }\n\n    /// @dev Returns the baseURI for a token. The intended metadata URI for the token is baseURI + tokenId.\n    function _getBaseURI(uint256 _tokenId) internal view returns (string memory) {\n        uint256 numOfTokenBatches = getBaseURICount();\n        uint256[] memory indices = batchIds;\n\n        for (uint256 i = 0; i < numOfTokenBatches; i += 1) {\n            if (_tokenId < indices[i]) {\n                return baseURI[indices[i]];\n            }\n        }\n        revert(\"Invalid tokenId\");\n    }\n\n    /// @dev Sets the base URI for the batch of tokens with the given batchId.\n    function _setBaseURI(uint256 _batchId, string memory _baseURI) internal {\n        baseURI[_batchId] = _baseURI;\n    }\n\n    /// @dev Mints a batch of tokenIds and associates a common baseURI to all those Ids.\n    function _batchMintMetadata(\n        uint256 _startId,\n        uint256 _amountToMint,\n        string memory _baseURIForTokens\n    ) internal returns (uint256 nextTokenIdToMint, uint256 batchId) {\n        batchId = _startId + _amountToMint;\n        nextTokenIdToMint = batchId;\n\n        batchIds.push(batchId);\n\n        baseURI[batchId] = _baseURIForTokens;\n    }\n}\n",
  "sourcePath": "/Users/vfadeev/Work/rarible/thirdweb-query-contracts/contracts/extension/BatchMintMetadata.sol",
  "compiler": {
    "name": "solc",
    "version": "0.8.12+commit.f00d7308.Emscripten.clang"
  },
  "schemaVersion": "3.4.3",
  "updatedAt": "2023-09-06T16:00:53.475Z",
  "devdoc": {
    "kind": "dev",
    "methods": {
      "getBaseURICount()": {
        "details": "Each batch of tokens has an in ID and an associated `baseURI`.                  See {batchIds}."
      },
      "getBatchIdAtIndex(uint256)": {
        "details": "See {getBaseURICount}.",
        "params": {
          "_index": "ID of a token."
        }
      }
    },
    "stateVariables": {
      "baseURI": {
        "details": "Mapping from id of a batch of tokens => to base URI for the respective batch of tokens."
      },
      "batchIds": {
        "details": "Largest tokenId of each batch of tokens with the same baseURI."
      }
    },
    "title": "Batch-mint Metadata",
    "version": 1
  },
  "userdoc": {
    "kind": "user",
    "methods": {
      "getBaseURICount()": {
        "notice": "Returns the count of batches of NFTs."
      },
      "getBatchIdAtIndex(uint256)": {
        "notice": "Returns the ID for the batch of tokens the given tokenId belongs to."
      }
    },
    "notice": "The `BatchMintMetadata` is a contract extension for any base NFT contract. It lets the smart contract           using this extension set metadata for `n` number of NFTs all at once. This is enabled by storing a single           base URI for a batch of `n` NFTs, where the metadata for each NFT in a relevant batch is `baseURI/tokenId`.",
    "version": 1
  }
}