{
  "contractName": "CurrencyTransferLib",
  "abi": [
    {
      "inputs": [],
      "name": "NATIVE_TOKEN",
      "outputs": [
        {
          "internalType": "address",
          "name": "",
          "type": "address"
        }
      ],
      "stateMutability": "view",
      "type": "function"
    }
  ],
  "bytecode": "0x60f6610052600b82828239805160001a607314610045577f4e487b7100000000000000000000000000000000000000000000000000000000600052600060045260246000fd5b30600052607381538281f3fe730000000000000000000000000000000000000000301460806040526004361060335760003560e01c806331f7d964146038575b600080fd5b603e6052565b6040516049919060a7565b60405180910390f35b73eeeeeeeeeeeeeeeeeeeeeeeeeeeeeeeeeeeeeeee81565b600073ffffffffffffffffffffffffffffffffffffffff82169050919050565b6000609382606a565b9050919050565b60a181608a565b82525050565b600060208201905060ba6000830184609a565b9291505056fea2646970667358221220fec048c68dd3b742eae4334a89142a3bb778e78c88e3bf6e2464b1b2e9aca19864736f6c634300080c0033",
  "immutableReferences": {},
  "source": "// SPDX-License-Identifier: Apache-2.0\npragma solidity ^0.8.0;\n\n/// @author thirdweb\n\n// Helper interface\nimport { IWETH } from \"../interfaces/IWETH.sol\";\n\nimport \"../openzeppelin-presets/token/ERC20/utils/SafeERC20.sol\";\n\nlibrary CurrencyTransferLib {\n    using SafeERC20 for IERC20;\n\n    /// @dev The address interpreted as native token of the chain.\n    address public constant NATIVE_TOKEN = 0xEeeeeEeeeEeEeeEeEeEeeEEEeeeeEeeeeeeeEEeE;\n\n    /// @dev Transfers a given amount of currency.\n    function transferCurrency(\n        address _currency,\n        address _from,\n        address _to,\n        uint256 _amount\n    ) internal {\n        if (_amount == 0) {\n            return;\n        }\n\n        if (_currency == NATIVE_TOKEN) {\n            safeTransferNativeToken(_to, _amount);\n        } else {\n            safeTransferERC20(_currency, _from, _to, _amount);\n        }\n    }\n\n    /// @dev Transfers a given amount of currency. (With native token wrapping)\n    function transferCurrencyWithWrapper(\n        address _currency,\n        address _from,\n        address _to,\n        uint256 _amount,\n        address _nativeTokenWrapper\n    ) internal {\n        if (_amount == 0) {\n            return;\n        }\n\n        if (_currency == NATIVE_TOKEN) {\n            if (_from == address(this)) {\n                // withdraw from weth then transfer withdrawn native token to recipient\n                IWETH(_nativeTokenWrapper).withdraw(_amount);\n                safeTransferNativeTokenWithWrapper(_to, _amount, _nativeTokenWrapper);\n            } else if (_to == address(this)) {\n                // store native currency in weth\n                require(_amount == msg.value, \"msg.value != amount\");\n                IWETH(_nativeTokenWrapper).deposit{ value: _amount }();\n            } else {\n                safeTransferNativeTokenWithWrapper(_to, _amount, _nativeTokenWrapper);\n            }\n        } else {\n            safeTransferERC20(_currency, _from, _to, _amount);\n        }\n    }\n\n    /// @dev Transfer `amount` of ERC20 token from `from` to `to`.\n    function safeTransferERC20(\n        address _currency,\n        address _from,\n        address _to,\n        uint256 _amount\n    ) internal {\n        if (_from == _to) {\n            return;\n        }\n\n        if (_from == address(this)) {\n            IERC20(_currency).safeTransfer(_to, _amount);\n        } else {\n            IERC20(_currency).safeTransferFrom(_from, _to, _amount);\n        }\n    }\n\n    /// @dev Transfers `amount` of native token to `to`.\n    function safeTransferNativeToken(address to, uint256 value) internal {\n        // solhint-disable avoid-low-level-calls\n        // slither-disable-next-line low-level-calls\n        (bool success, ) = to.call{ value: value }(\"\");\n        require(success, \"native token transfer failed\");\n    }\n\n    /// @dev Transfers `amount` of native token to `to`. (With native token wrapping)\n    function safeTransferNativeTokenWithWrapper(\n        address to,\n        uint256 value,\n        address _nativeTokenWrapper\n    ) internal {\n        // solhint-disable avoid-low-level-calls\n        // slither-disable-next-line low-level-calls\n        (bool success, ) = to.call{ value: value }(\"\");\n        if (!success) {\n            IWETH(_nativeTokenWrapper).deposit{ value: value }();\n            IERC20(_nativeTokenWrapper).safeTransfer(to, value);\n        }\n    }\n}\n",
  "sourcePath": "/Users/vfadeev/Work/rarible/thirdweb-query-contracts/contracts/lib/CurrencyTransferLib.sol",
  "compiler": {
    "name": "solc",
    "version": "0.8.12+commit.f00d7308.Emscripten.clang"
  },
  "schemaVersion": "3.4.3",
  "updatedAt": "2023-09-06T16:00:53.502Z",
  "devdoc": {
    "kind": "dev",
    "methods": {},
    "stateVariables": {
      "NATIVE_TOKEN": {
        "details": "The address interpreted as native token of the chain."
      }
    },
    "version": 1
  },
  "userdoc": {
    "kind": "user",
    "methods": {},
    "version": 1
  }
}