{
  "contractName": "DropERC721",
  "abi": [
    {
      "inputs": [],
      "stateMutability": "nonpayable",
      "type": "constructor"
    },
    {
      "inputs": [],
      "name": "ApprovalCallerNotOwnerNorApproved",
      "type": "error"
    },
    {
      "inputs": [],
      "name": "ApprovalQueryForNonexistentToken",
      "type": "error"
    },
    {
      "inputs": [],
      "name": "ApprovalToCurrentOwner",
      "type": "error"
    },
    {
      "inputs": [],
      "name": "ApproveToCaller",
      "type": "error"
    },
    {
      "inputs": [],
      "name": "BalanceQueryForZeroAddress",
      "type": "error"
    },
    {
      "inputs": [],
      "name": "MintToZeroAddress",
      "type": "error"
    },
    {
      "inputs": [],
      "name": "MintZeroQuantity",
      "type": "error"
    },
    {
      "inputs": [
        {
          "internalType": "address",
          "name": "operator",
          "type": "address"
        }
      ],
      "name": "OperatorNotAllowed",
      "type": "error"
    },
    {
      "inputs": [],
      "name": "OwnerQueryForNonexistentToken",
      "type": "error"
    },
    {
      "inputs": [],
      "name": "TransferCallerNotOwnerNorApproved",
      "type": "error"
    },
    {
      "inputs": [],
      "name": "TransferFromIncorrectOwner",
      "type": "error"
    },
    {
      "inputs": [],
      "name": "TransferToNonERC721ReceiverImplementer",
      "type": "error"
    },
    {
      "inputs": [],
      "name": "TransferToZeroAddress",
      "type": "error"
    },
    {
      "inputs": [],
      "name": "URIQueryForNonexistentToken",
      "type": "error"
    },
    {
      "anonymous": false,
      "inputs": [
        {
          "indexed": true,
          "internalType": "address",
          "name": "owner",
          "type": "address"
        },
        {
          "indexed": true,
          "internalType": "address",
          "name": "approved",
          "type": "address"
        },
        {
          "indexed": true,
          "internalType": "uint256",
          "name": "tokenId",
          "type": "uint256"
        }
      ],
      "name": "Approval",
      "type": "event"
    },
    {
      "anonymous": false,
      "inputs": [
        {
          "indexed": true,
          "internalType": "address",
          "name": "owner",
          "type": "address"
        },
        {
          "indexed": true,
          "internalType": "address",
          "name": "operator",
          "type": "address"
        },
        {
          "indexed": false,
          "internalType": "bool",
          "name": "approved",
          "type": "bool"
        }
      ],
      "name": "ApprovalForAll",
      "type": "event"
    },
    {
      "anonymous": false,
      "inputs": [
        {
          "components": [
            {
              "internalType": "uint256",
              "name": "startTimestamp",
              "type": "uint256"
            },
            {
              "internalType": "uint256",
              "name": "maxClaimableSupply",
              "type": "uint256"
            },
            {
              "internalType": "uint256",
              "name": "supplyClaimed",
              "type": "uint256"
            },
            {
              "internalType": "uint256",
              "name": "quantityLimitPerWallet",
              "type": "uint256"
            },
            {
              "internalType": "bytes32",
              "name": "merkleRoot",
              "type": "bytes32"
            },
            {
              "internalType": "uint256",
              "name": "pricePerToken",
              "type": "uint256"
            },
            {
              "internalType": "address",
              "name": "currency",
              "type": "address"
            },
            {
              "internalType": "string",
              "name": "metadata",
              "type": "string"
            }
          ],
          "indexed": false,
          "internalType": "struct IClaimCondition.ClaimCondition[]",
          "name": "claimConditions",
          "type": "tuple[]"
        },
        {
          "indexed": false,
          "internalType": "bool",
          "name": "resetEligibility",
          "type": "bool"
        }
      ],
      "name": "ClaimConditionsUpdated",
      "type": "event"
    },
    {
      "anonymous": false,
      "inputs": [
        {
          "indexed": false,
          "internalType": "string",
          "name": "prevURI",
          "type": "string"
        },
        {
          "indexed": false,
          "internalType": "string",
          "name": "newURI",
          "type": "string"
        }
      ],
      "name": "ContractURIUpdated",
      "type": "event"
    },
    {
      "anonymous": false,
      "inputs": [
        {
          "indexed": true,
          "internalType": "address",
          "name": "newRoyaltyRecipient",
          "type": "address"
        },
        {
          "indexed": false,
          "internalType": "uint256",
          "name": "newRoyaltyBps",
          "type": "uint256"
        }
      ],
      "name": "DefaultRoyalty",
      "type": "event"
    },
    {
      "anonymous": false,
      "inputs": [
        {
          "indexed": false,
          "internalType": "uint8",
          "name": "version",
          "type": "uint8"
        }
      ],
      "name": "Initialized",
      "type": "event"
    },
    {
      "anonymous": false,
      "inputs": [
        {
          "indexed": false,
          "internalType": "uint256",
          "name": "maxTotalSupply",
          "type": "uint256"
        }
      ],
      "name": "MaxTotalSupplyUpdated",
      "type": "event"
    },
    {
      "anonymous": false,
      "inputs": [
        {
          "indexed": false,
          "internalType": "bool",
          "name": "restriction",
          "type": "bool"
        }
      ],
      "name": "OperatorRestriction",
      "type": "event"
    },
    {
      "anonymous": false,
      "inputs": [
        {
          "indexed": true,
          "internalType": "address",
          "name": "prevOwner",
          "type": "address"
        },
        {
          "indexed": true,
          "internalType": "address",
          "name": "newOwner",
          "type": "address"
        }
      ],
      "name": "OwnerUpdated",
      "type": "event"
    },
    {
      "anonymous": false,
      "inputs": [
        {
          "indexed": true,
          "internalType": "address",
          "name": "platformFeeRecipient",
          "type": "address"
        },
        {
          "indexed": false,
          "internalType": "uint256",
          "name": "platformFeeBps",
          "type": "uint256"
        }
      ],
      "name": "PlatformFeeInfoUpdated",
      "type": "event"
    },
    {
      "anonymous": false,
      "inputs": [
        {
          "indexed": true,
          "internalType": "address",
          "name": "recipient",
          "type": "address"
        }
      ],
      "name": "PrimarySaleRecipientUpdated",
      "type": "event"
    },
    {
      "anonymous": false,
      "inputs": [
        {
          "indexed": true,
          "internalType": "bytes32",
          "name": "role",
          "type": "bytes32"
        },
        {
          "indexed": true,
          "internalType": "bytes32",
          "name": "previousAdminRole",
          "type": "bytes32"
        },
        {
          "indexed": true,
          "internalType": "bytes32",
          "name": "newAdminRole",
          "type": "bytes32"
        }
      ],
      "name": "RoleAdminChanged",
      "type": "event"
    },
    {
      "anonymous": false,
      "inputs": [
        {
          "indexed": true,
          "internalType": "bytes32",
          "name": "role",
          "type": "bytes32"
        },
        {
          "indexed": true,
          "internalType": "address",
          "name": "account",
          "type": "address"
        },
        {
          "indexed": true,
          "internalType": "address",
          "name": "sender",
          "type": "address"
        }
      ],
      "name": "RoleGranted",
      "type": "event"
    },
    {
      "anonymous": false,
      "inputs": [
        {
          "indexed": true,
          "internalType": "bytes32",
          "name": "role",
          "type": "bytes32"
        },
        {
          "indexed": true,
          "internalType": "address",
          "name": "account",
          "type": "address"
        },
        {
          "indexed": true,
          "internalType": "address",
          "name": "sender",
          "type": "address"
        }
      ],
      "name": "RoleRevoked",
      "type": "event"
    },
    {
      "anonymous": false,
      "inputs": [
        {
          "indexed": true,
          "internalType": "uint256",
          "name": "tokenId",
          "type": "uint256"
        },
        {
          "indexed": true,
          "internalType": "address",
          "name": "royaltyRecipient",
          "type": "address"
        },
        {
          "indexed": false,
          "internalType": "uint256",
          "name": "royaltyBps",
          "type": "uint256"
        }
      ],
      "name": "RoyaltyForToken",
      "type": "event"
    },
    {
      "anonymous": false,
      "inputs": [
        {
          "indexed": true,
          "internalType": "uint256",
          "name": "index",
          "type": "uint256"
        },
        {
          "indexed": false,
          "internalType": "string",
          "name": "revealedURI",
          "type": "string"
        }
      ],
      "name": "TokenURIRevealed",
      "type": "event"
    },
    {
      "anonymous": false,
      "inputs": [
        {
          "indexed": true,
          "internalType": "uint256",
          "name": "claimConditionIndex",
          "type": "uint256"
        },
        {
          "indexed": true,
          "internalType": "address",
          "name": "claimer",
          "type": "address"
        },
        {
          "indexed": true,
          "internalType": "address",
          "name": "receiver",
          "type": "address"
        },
        {
          "indexed": false,
          "internalType": "uint256",
          "name": "startTokenId",
          "type": "uint256"
        },
        {
          "indexed": false,
          "internalType": "uint256",
          "name": "quantityClaimed",
          "type": "uint256"
        }
      ],
      "name": "TokensClaimed",
      "type": "event"
    },
    {
      "anonymous": false,
      "inputs": [
        {
          "indexed": true,
          "internalType": "uint256",
          "name": "startTokenId",
          "type": "uint256"
        },
        {
          "indexed": false,
          "internalType": "uint256",
          "name": "endTokenId",
          "type": "uint256"
        },
        {
          "indexed": false,
          "internalType": "string",
          "name": "baseURI",
          "type": "string"
        },
        {
          "indexed": false,
          "internalType": "bytes",
          "name": "encryptedBaseURI",
          "type": "bytes"
        }
      ],
      "name": "TokensLazyMinted",
      "type": "event"
    },
    {
      "anonymous": false,
      "inputs": [
        {
          "indexed": true,
          "internalType": "address",
          "name": "from",
          "type": "address"
        },
        {
          "indexed": true,
          "internalType": "address",
          "name": "to",
          "type": "address"
        },
        {
          "indexed": true,
          "internalType": "uint256",
          "name": "tokenId",
          "type": "uint256"
        }
      ],
      "name": "Transfer",
      "type": "event"
    },
    {
      "inputs": [],
      "name": "DEFAULT_ADMIN_ROLE",
      "outputs": [
        {
          "internalType": "bytes32",
          "name": "",
          "type": "bytes32"
        }
      ],
      "stateMutability": "view",
      "type": "function"
    },
    {
      "inputs": [
        {
          "internalType": "address",
          "name": "owner",
          "type": "address"
        }
      ],
      "name": "balanceOf",
      "outputs": [
        {
          "internalType": "uint256",
          "name": "",
          "type": "uint256"
        }
      ],
      "stateMutability": "view",
      "type": "function"
    },
    {
      "inputs": [
        {
          "internalType": "address",
          "name": "_receiver",
          "type": "address"
        },
        {
          "internalType": "uint256",
          "name": "_quantity",
          "type": "uint256"
        },
        {
          "internalType": "address",
          "name": "_currency",
          "type": "address"
        },
        {
          "internalType": "uint256",
          "name": "_pricePerToken",
          "type": "uint256"
        },
        {
          "components": [
            {
              "internalType": "bytes32[]",
              "name": "proof",
              "type": "bytes32[]"
            },
            {
              "internalType": "uint256",
              "name": "quantityLimitPerWallet",
              "type": "uint256"
            },
            {
              "internalType": "uint256",
              "name": "pricePerToken",
              "type": "uint256"
            },
            {
              "internalType": "address",
              "name": "currency",
              "type": "address"
            }
          ],
          "internalType": "struct IDrop.AllowlistProof",
          "name": "_allowlistProof",
          "type": "tuple"
        },
        {
          "internalType": "bytes",
          "name": "_data",
          "type": "bytes"
        }
      ],
      "name": "claim",
      "outputs": [],
      "stateMutability": "payable",
      "type": "function"
    },
    {
      "inputs": [],
      "name": "claimCondition",
      "outputs": [
        {
          "internalType": "uint256",
          "name": "currentStartId",
          "type": "uint256"
        },
        {
          "internalType": "uint256",
          "name": "count",
          "type": "uint256"
        }
      ],
      "stateMutability": "view",
      "type": "function"
    },
    {
      "inputs": [],
      "name": "contractURI",
      "outputs": [
        {
          "internalType": "string",
          "name": "",
          "type": "string"
        }
      ],
      "stateMutability": "view",
      "type": "function"
    },
    {
      "inputs": [
        {
          "internalType": "bytes",
          "name": "data",
          "type": "bytes"
        },
        {
          "internalType": "bytes",
          "name": "key",
          "type": "bytes"
        }
      ],
      "name": "encryptDecrypt",
      "outputs": [
        {
          "internalType": "bytes",
          "name": "result",
          "type": "bytes"
        }
      ],
      "stateMutability": "pure",
      "type": "function"
    },
    {
      "inputs": [
        {
          "internalType": "uint256",
          "name": "",
          "type": "uint256"
        }
      ],
      "name": "encryptedData",
      "outputs": [
        {
          "internalType": "bytes",
          "name": "",
          "type": "bytes"
        }
      ],
      "stateMutability": "view",
      "type": "function"
    },
    {
      "inputs": [],
      "name": "getActiveClaimConditionId",
      "outputs": [
        {
          "internalType": "uint256",
          "name": "",
          "type": "uint256"
        }
      ],
      "stateMutability": "view",
      "type": "function"
    },
    {
      "inputs": [
        {
          "internalType": "uint256",
          "name": "tokenId",
          "type": "uint256"
        }
      ],
      "name": "getApproved",
      "outputs": [
        {
          "internalType": "address",
          "name": "",
          "type": "address"
        }
      ],
      "stateMutability": "view",
      "type": "function"
    },
    {
      "inputs": [],
      "name": "getBaseURICount",
      "outputs": [
        {
          "internalType": "uint256",
          "name": "",
          "type": "uint256"
        }
      ],
      "stateMutability": "view",
      "type": "function"
    },
    {
      "inputs": [
        {
          "internalType": "uint256",
          "name": "_index",
          "type": "uint256"
        }
      ],
      "name": "getBatchIdAtIndex",
      "outputs": [
        {
          "internalType": "uint256",
          "name": "",
          "type": "uint256"
        }
      ],
      "stateMutability": "view",
      "type": "function"
    },
    {
      "inputs": [
        {
          "internalType": "uint256",
          "name": "_conditionId",
          "type": "uint256"
        }
      ],
      "name": "getClaimConditionById",
      "outputs": [
        {
          "components": [
            {
              "internalType": "uint256",
              "name": "startTimestamp",
              "type": "uint256"
            },
            {
              "internalType": "uint256",
              "name": "maxClaimableSupply",
              "type": "uint256"
            },
            {
              "internalType": "uint256",
              "name": "supplyClaimed",
              "type": "uint256"
            },
            {
              "internalType": "uint256",
              "name": "quantityLimitPerWallet",
              "type": "uint256"
            },
            {
              "internalType": "bytes32",
              "name": "merkleRoot",
              "type": "bytes32"
            },
            {
              "internalType": "uint256",
              "name": "pricePerToken",
              "type": "uint256"
            },
            {
              "internalType": "address",
              "name": "currency",
              "type": "address"
            },
            {
              "internalType": "string",
              "name": "metadata",
              "type": "string"
            }
          ],
          "internalType": "struct IClaimCondition.ClaimCondition",
          "name": "condition",
          "type": "tuple"
        }
      ],
      "stateMutability": "view",
      "type": "function"
    },
    {
      "inputs": [],
      "name": "getDefaultRoyaltyInfo",
      "outputs": [
        {
          "internalType": "address",
          "name": "",
          "type": "address"
        },
        {
          "internalType": "uint16",
          "name": "",
          "type": "uint16"
        }
      ],
      "stateMutability": "view",
      "type": "function"
    },
    {
      "inputs": [],
      "name": "getPlatformFeeInfo",
      "outputs": [
        {
          "internalType": "address",
          "name": "",
          "type": "address"
        },
        {
          "internalType": "uint16",
          "name": "",
          "type": "uint16"
        }
      ],
      "stateMutability": "view",
      "type": "function"
    },
    {
      "inputs": [
        {
          "internalType": "uint256",
          "name": "_batchId",
          "type": "uint256"
        },
        {
          "internalType": "bytes",
          "name": "_key",
          "type": "bytes"
        }
      ],
      "name": "getRevealURI",
      "outputs": [
        {
          "internalType": "string",
          "name": "revealedURI",
          "type": "string"
        }
      ],
      "stateMutability": "view",
      "type": "function"
    },
    {
      "inputs": [
        {
          "internalType": "bytes32",
          "name": "role",
          "type": "bytes32"
        }
      ],
      "name": "getRoleAdmin",
      "outputs": [
        {
          "internalType": "bytes32",
          "name": "",
          "type": "bytes32"
        }
      ],
      "stateMutability": "view",
      "type": "function"
    },
    {
      "inputs": [
        {
          "internalType": "bytes32",
          "name": "role",
          "type": "bytes32"
        },
        {
          "internalType": "uint256",
          "name": "index",
          "type": "uint256"
        }
      ],
      "name": "getRoleMember",
      "outputs": [
        {
          "internalType": "address",
          "name": "member",
          "type": "address"
        }
      ],
      "stateMutability": "view",
      "type": "function"
    },
    {
      "inputs": [
        {
          "internalType": "bytes32",
          "name": "role",
          "type": "bytes32"
        }
      ],
      "name": "getRoleMemberCount",
      "outputs": [
        {
          "internalType": "uint256",
          "name": "count",
          "type": "uint256"
        }
      ],
      "stateMutability": "view",
      "type": "function"
    },
    {
      "inputs": [
        {
          "internalType": "uint256",
          "name": "_tokenId",
          "type": "uint256"
        }
      ],
      "name": "getRoyaltyInfoForToken",
      "outputs": [
        {
          "internalType": "address",
          "name": "",
          "type": "address"
        },
        {
          "internalType": "uint16",
          "name": "",
          "type": "uint16"
        }
      ],
      "stateMutability": "view",
      "type": "function"
    },
    {
      "inputs": [
        {
          "internalType": "uint256",
          "name": "_conditionId",
          "type": "uint256"
        },
        {
          "internalType": "address",
          "name": "_claimer",
          "type": "address"
        }
      ],
      "name": "getSupplyClaimedByWallet",
      "outputs": [
        {
          "internalType": "uint256",
          "name": "supplyClaimedByWallet",
          "type": "uint256"
        }
      ],
      "stateMutability": "view",
      "type": "function"
    },
    {
      "inputs": [
        {
          "internalType": "bytes32",
          "name": "role",
          "type": "bytes32"
        },
        {
          "internalType": "address",
          "name": "account",
          "type": "address"
        }
      ],
      "name": "grantRole",
      "outputs": [],
      "stateMutability": "nonpayable",
      "type": "function"
    },
    {
      "inputs": [
        {
          "internalType": "bytes32",
          "name": "role",
          "type": "bytes32"
        },
        {
          "internalType": "address",
          "name": "account",
          "type": "address"
        }
      ],
      "name": "hasRole",
      "outputs": [
        {
          "internalType": "bool",
          "name": "",
          "type": "bool"
        }
      ],
      "stateMutability": "view",
      "type": "function"
    },
    {
      "inputs": [
        {
          "internalType": "bytes32",
          "name": "role",
          "type": "bytes32"
        },
        {
          "internalType": "address",
          "name": "account",
          "type": "address"
        }
      ],
      "name": "hasRoleWithSwitch",
      "outputs": [
        {
          "internalType": "bool",
          "name": "",
          "type": "bool"
        }
      ],
      "stateMutability": "view",
      "type": "function"
    },
    {
      "inputs": [
        {
          "internalType": "address",
          "name": "owner",
          "type": "address"
        },
        {
          "internalType": "address",
          "name": "operator",
          "type": "address"
        }
      ],
      "name": "isApprovedForAll",
      "outputs": [
        {
          "internalType": "bool",
          "name": "",
          "type": "bool"
        }
      ],
      "stateMutability": "view",
      "type": "function"
    },
    {
      "inputs": [
        {
          "internalType": "uint256",
          "name": "_batchId",
          "type": "uint256"
        }
      ],
      "name": "isEncryptedBatch",
      "outputs": [
        {
          "internalType": "bool",
          "name": "",
          "type": "bool"
        }
      ],
      "stateMutability": "view",
      "type": "function"
    },
    {
      "inputs": [
        {
          "internalType": "address",
          "name": "forwarder",
          "type": "address"
        }
      ],
      "name": "isTrustedForwarder",
      "outputs": [
        {
          "internalType": "bool",
          "name": "",
          "type": "bool"
        }
      ],
      "stateMutability": "view",
      "type": "function"
    },
    {
      "inputs": [],
      "name": "maxTotalSupply",
      "outputs": [
        {
          "internalType": "uint256",
          "name": "",
          "type": "uint256"
        }
      ],
      "stateMutability": "view",
      "type": "function"
    },
    {
      "inputs": [
        {
          "internalType": "bytes[]",
          "name": "data",
          "type": "bytes[]"
        }
      ],
      "name": "multicall",
      "outputs": [
        {
          "internalType": "bytes[]",
          "name": "results",
          "type": "bytes[]"
        }
      ],
      "stateMutability": "nonpayable",
      "type": "function"
    },
    {
      "inputs": [],
      "name": "name",
      "outputs": [
        {
          "internalType": "string",
          "name": "",
          "type": "string"
        }
      ],
      "stateMutability": "view",
      "type": "function"
    },
    {
      "inputs": [],
      "name": "operatorRestriction",
      "outputs": [
        {
          "internalType": "bool",
          "name": "",
          "type": "bool"
        }
      ],
      "stateMutability": "view",
      "type": "function"
    },
    {
      "inputs": [],
      "name": "owner",
      "outputs": [
        {
          "internalType": "address",
          "name": "",
          "type": "address"
        }
      ],
      "stateMutability": "view",
      "type": "function"
    },
    {
      "inputs": [
        {
          "internalType": "uint256",
          "name": "tokenId",
          "type": "uint256"
        }
      ],
      "name": "ownerOf",
      "outputs": [
        {
          "internalType": "address",
          "name": "",
          "type": "address"
        }
      ],
      "stateMutability": "view",
      "type": "function"
    },
    {
      "inputs": [],
      "name": "primarySaleRecipient",
      "outputs": [
        {
          "internalType": "address",
          "name": "",
          "type": "address"
        }
      ],
      "stateMutability": "view",
      "type": "function"
    },
    {
      "inputs": [
        {
          "internalType": "bytes32",
          "name": "role",
          "type": "bytes32"
        },
        {
          "internalType": "address",
          "name": "account",
          "type": "address"
        }
      ],
      "name": "renounceRole",
      "outputs": [],
      "stateMutability": "nonpayable",
      "type": "function"
    },
    {
      "inputs": [
        {
          "internalType": "bytes32",
          "name": "role",
          "type": "bytes32"
        },
        {
          "internalType": "address",
          "name": "account",
          "type": "address"
        }
      ],
      "name": "revokeRole",
      "outputs": [],
      "stateMutability": "nonpayable",
      "type": "function"
    },
    {
      "inputs": [
        {
          "internalType": "uint256",
          "name": "tokenId",
          "type": "uint256"
        },
        {
          "internalType": "uint256",
          "name": "salePrice",
          "type": "uint256"
        }
      ],
      "name": "royaltyInfo",
      "outputs": [
        {
          "internalType": "address",
          "name": "receiver",
          "type": "address"
        },
        {
          "internalType": "uint256",
          "name": "royaltyAmount",
          "type": "uint256"
        }
      ],
      "stateMutability": "view",
      "type": "function"
    },
    {
      "inputs": [
        {
          "components": [
            {
              "internalType": "uint256",
              "name": "startTimestamp",
              "type": "uint256"
            },
            {
              "internalType": "uint256",
              "name": "maxClaimableSupply",
              "type": "uint256"
            },
            {
              "internalType": "uint256",
              "name": "supplyClaimed",
              "type": "uint256"
            },
            {
              "internalType": "uint256",
              "name": "quantityLimitPerWallet",
              "type": "uint256"
            },
            {
              "internalType": "bytes32",
              "name": "merkleRoot",
              "type": "bytes32"
            },
            {
              "internalType": "uint256",
              "name": "pricePerToken",
              "type": "uint256"
            },
            {
              "internalType": "address",
              "name": "currency",
              "type": "address"
            },
            {
              "internalType": "string",
              "name": "metadata",
              "type": "string"
            }
          ],
          "internalType": "struct IClaimCondition.ClaimCondition[]",
          "name": "_conditions",
          "type": "tuple[]"
        },
        {
          "internalType": "bool",
          "name": "_resetClaimEligibility",
          "type": "bool"
        }
      ],
      "name": "setClaimConditions",
      "outputs": [],
      "stateMutability": "nonpayable",
      "type": "function"
    },
    {
      "inputs": [
        {
          "internalType": "string",
          "name": "_uri",
          "type": "string"
        }
      ],
      "name": "setContractURI",
      "outputs": [],
      "stateMutability": "nonpayable",
      "type": "function"
    },
    {
      "inputs": [
        {
          "internalType": "address",
          "name": "_royaltyRecipient",
          "type": "address"
        },
        {
          "internalType": "uint256",
          "name": "_royaltyBps",
          "type": "uint256"
        }
      ],
      "name": "setDefaultRoyaltyInfo",
      "outputs": [],
      "stateMutability": "nonpayable",
      "type": "function"
    },
    {
      "inputs": [
        {
          "internalType": "bool",
          "name": "_restriction",
          "type": "bool"
        }
      ],
      "name": "setOperatorRestriction",
      "outputs": [],
      "stateMutability": "nonpayable",
      "type": "function"
    },
    {
      "inputs": [
        {
          "internalType": "address",
          "name": "_newOwner",
          "type": "address"
        }
      ],
      "name": "setOwner",
      "outputs": [],
      "stateMutability": "nonpayable",
      "type": "function"
    },
    {
      "inputs": [
        {
          "internalType": "address",
          "name": "_platformFeeRecipient",
          "type": "address"
        },
        {
          "internalType": "uint256",
          "name": "_platformFeeBps",
          "type": "uint256"
        }
      ],
      "name": "setPlatformFeeInfo",
      "outputs": [],
      "stateMutability": "nonpayable",
      "type": "function"
    },
    {
      "inputs": [
        {
          "internalType": "address",
          "name": "_saleRecipient",
          "type": "address"
        }
      ],
      "name": "setPrimarySaleRecipient",
      "outputs": [],
      "stateMutability": "nonpayable",
      "type": "function"
    },
    {
      "inputs": [
        {
          "internalType": "uint256",
          "name": "_tokenId",
          "type": "uint256"
        },
        {
          "internalType": "address",
          "name": "_recipient",
          "type": "address"
        },
        {
          "internalType": "uint256",
          "name": "_bps",
          "type": "uint256"
        }
      ],
      "name": "setRoyaltyInfoForToken",
      "outputs": [],
      "stateMutability": "nonpayable",
      "type": "function"
    },
    {
      "inputs": [],
      "name": "symbol",
      "outputs": [
        {
          "internalType": "string",
          "name": "",
          "type": "string"
        }
      ],
      "stateMutability": "view",
      "type": "function"
    },
    {
      "inputs": [],
      "name": "totalSupply",
      "outputs": [
        {
          "internalType": "uint256",
          "name": "",
          "type": "uint256"
        }
      ],
      "stateMutability": "view",
      "type": "function"
    },
    {
      "inputs": [
        {
          "internalType": "uint256",
          "name": "_conditionId",
          "type": "uint256"
        },
        {
          "internalType": "address",
          "name": "_claimer",
          "type": "address"
        },
        {
          "internalType": "uint256",
          "name": "_quantity",
          "type": "uint256"
        },
        {
          "internalType": "address",
          "name": "_currency",
          "type": "address"
        },
        {
          "internalType": "uint256",
          "name": "_pricePerToken",
          "type": "uint256"
        },
        {
          "components": [
            {
              "internalType": "bytes32[]",
              "name": "proof",
              "type": "bytes32[]"
            },
            {
              "internalType": "uint256",
              "name": "quantityLimitPerWallet",
              "type": "uint256"
            },
            {
              "internalType": "uint256",
              "name": "pricePerToken",
              "type": "uint256"
            },
            {
              "internalType": "address",
              "name": "currency",
              "type": "address"
            }
          ],
          "internalType": "struct IDrop.AllowlistProof",
          "name": "_allowlistProof",
          "type": "tuple"
        }
      ],
      "name": "verifyClaim",
      "outputs": [
        {
          "internalType": "bool",
          "name": "isOverride",
          "type": "bool"
        }
      ],
      "stateMutability": "view",
      "type": "function"
    },
    {
      "inputs": [
        {
          "internalType": "address",
          "name": "_defaultAdmin",
          "type": "address"
        },
        {
          "internalType": "string",
          "name": "_name",
          "type": "string"
        },
        {
          "internalType": "string",
          "name": "_symbol",
          "type": "string"
        },
        {
          "internalType": "string",
          "name": "_contractURI",
          "type": "string"
        },
        {
          "internalType": "address[]",
          "name": "_trustedForwarders",
          "type": "address[]"
        },
        {
          "internalType": "address",
          "name": "_saleRecipient",
          "type": "address"
        },
        {
          "internalType": "address",
          "name": "_royaltyRecipient",
          "type": "address"
        },
        {
          "internalType": "uint128",
          "name": "_royaltyBps",
          "type": "uint128"
        },
        {
          "internalType": "uint128",
          "name": "_platformFeeBps",
          "type": "uint128"
        },
        {
          "internalType": "address",
          "name": "_platformFeeRecipient",
          "type": "address"
        }
      ],
      "name": "initialize",
      "outputs": [],
      "stateMutability": "nonpayable",
      "type": "function"
    },
    {
      "inputs": [
        {
          "internalType": "uint256",
          "name": "_tokenId",
          "type": "uint256"
        }
      ],
      "name": "tokenURI",
      "outputs": [
        {
          "internalType": "string",
          "name": "",
          "type": "string"
        }
      ],
      "stateMutability": "view",
      "type": "function"
    },
    {
      "inputs": [
        {
          "internalType": "bytes4",
          "name": "interfaceId",
          "type": "bytes4"
        }
      ],
      "name": "supportsInterface",
      "outputs": [
        {
          "internalType": "bool",
          "name": "",
          "type": "bool"
        }
      ],
      "stateMutability": "view",
      "type": "function"
    },
    {
      "inputs": [],
      "name": "contractType",
      "outputs": [
        {
          "internalType": "bytes32",
          "name": "",
          "type": "bytes32"
        }
      ],
      "stateMutability": "pure",
      "type": "function"
    },
    {
      "inputs": [],
      "name": "contractVersion",
      "outputs": [
        {
          "internalType": "uint8",
          "name": "",
          "type": "uint8"
        }
      ],
      "stateMutability": "pure",
      "type": "function"
    },
    {
      "inputs": [
        {
          "internalType": "uint256",
          "name": "_amount",
          "type": "uint256"
        },
        {
          "internalType": "string",
          "name": "_baseURIForTokens",
          "type": "string"
        },
        {
          "internalType": "bytes",
          "name": "_data",
          "type": "bytes"
        }
      ],
      "name": "lazyMint",
      "outputs": [
        {
          "internalType": "uint256",
          "name": "batchId",
          "type": "uint256"
        }
      ],
      "stateMutability": "nonpayable",
      "type": "function"
    },
    {
      "inputs": [
        {
          "internalType": "uint256",
          "name": "_index",
          "type": "uint256"
        },
        {
          "internalType": "bytes",
          "name": "_key",
          "type": "bytes"
        }
      ],
      "name": "reveal",
      "outputs": [
        {
          "internalType": "string",
          "name": "revealedURI",
          "type": "string"
        }
      ],
      "stateMutability": "nonpayable",
      "type": "function"
    },
    {
      "inputs": [
        {
          "internalType": "uint256",
          "name": "_maxTotalSupply",
          "type": "uint256"
        }
      ],
      "name": "setMaxTotalSupply",
      "outputs": [],
      "stateMutability": "nonpayable",
      "type": "function"
    },
    {
      "inputs": [],
      "name": "totalMinted",
      "outputs": [
        {
          "internalType": "uint256",
          "name": "",
          "type": "uint256"
        }
      ],
      "stateMutability": "view",
      "type": "function"
    },
    {
      "inputs": [],
      "name": "nextTokenIdToMint",
      "outputs": [
        {
          "internalType": "uint256",
          "name": "",
          "type": "uint256"
        }
      ],
      "stateMutability": "view",
      "type": "function"
    },
    {
      "inputs": [],
      "name": "nextTokenIdToClaim",
      "outputs": [
        {
          "internalType": "uint256",
          "name": "",
          "type": "uint256"
        }
      ],
      "stateMutability": "view",
      "type": "function"
    },
    {
      "inputs": [
        {
          "internalType": "uint256",
          "name": "tokenId",
          "type": "uint256"
        }
      ],
      "name": "burn",
      "outputs": [],
      "stateMutability": "nonpayable",
      "type": "function"
    },
    {
      "inputs": [
        {
          "internalType": "address",
          "name": "operator",
          "type": "address"
        },
        {
          "internalType": "bool",
          "name": "approved",
          "type": "bool"
        }
      ],
      "name": "setApprovalForAll",
      "outputs": [],
      "stateMutability": "nonpayable",
      "type": "function"
    },
    {
      "inputs": [
        {
          "internalType": "address",
          "name": "operator",
          "type": "address"
        },
        {
          "internalType": "uint256",
          "name": "tokenId",
          "type": "uint256"
        }
      ],
      "name": "approve",
      "outputs": [],
      "stateMutability": "nonpayable",
      "type": "function"
    },
    {
      "inputs": [
        {
          "internalType": "address",
          "name": "from",
          "type": "address"
        },
        {
          "internalType": "address",
          "name": "to",
          "type": "address"
        },
        {
          "internalType": "uint256",
          "name": "tokenId",
          "type": "uint256"
        }
      ],
      "name": "transferFrom",
      "outputs": [],
      "stateMutability": "nonpayable",
      "type": "function"
    },
    {
      "inputs": [
        {
          "internalType": "address",
          "name": "from",
          "type": "address"
        },
        {
          "internalType": "address",
          "name": "to",
          "type": "address"
        },
        {
          "internalType": "uint256",
          "name": "tokenId",
          "type": "uint256"
        }
      ],
      "name": "safeTransferFrom",
      "outputs": [],
      "stateMutability": "nonpayable",
      "type": "function"
    },
    {
      "inputs": [
        {
          "internalType": "address",
          "name": "from",
          "type": "address"
        },
        {
          "internalType": "address",
          "name": "to",
          "type": "address"
        },
        {
          "internalType": "uint256",
          "name": "tokenId",
          "type": "uint256"
        },
        {
          "internalType": "bytes",
          "name": "data",
          "type": "bytes"
        }
      ],
      "name": "safeTransferFrom",
      "outputs": [],
      "stateMutability": "nonpayable",
      "type": "function"
    }
  ],
  "bytecode": "0x60806040523480156200001157600080fd5b5060008060019054906101000a900460ff16159050808015620000445750600160008054906101000a900460ff1660ff16105b8062000080575062000061306200016360201b62003b241760201c565b1580156200007f5750600160008054906101000a900460ff1660ff16145b5b620000c2576040517f08c379a0000000000000000000000000000000000000000000000000000000008152600401620000b9906200020d565b60405180910390fd5b60016000806101000a81548160ff021916908360ff160217905550801562000100576001600060016101000a81548160ff0219169083151502179055505b80156200015c5760008060016101000a81548160ff0219169083151502179055507f7f26b83ff96e1f2b6a682f133852f6798a09c465da95921460cefb3847402498600160405162000153919062000289565b60405180910390a15b50620002a6565b6000808273ffffffffffffffffffffffffffffffffffffffff163b119050919050565b600082825260208201905092915050565b7f496e697469616c697a61626c653a20636f6e747261637420697320616c72656160008201527f647920696e697469616c697a6564000000000000000000000000000000000000602082015250565b6000620001f5602e8362000186565b9150620002028262000197565b604082019050919050565b600060208201905081810360008301526200022881620001e6565b9050919050565b6000819050919050565b600060ff82169050919050565b6000819050919050565b6000620002716200026b62000265846200022f565b62000246565b62000239565b9050919050565b620002838162000250565b82525050565b6000602082019050620002a0600083018462000278565b92915050565b61ac2080620002b66000396000f3fe6080604052600436106103c35760003560e01c806384bb1e42116101f2578063ad1eefc51161010d578063d37c353b116100a0578063e15916341161006f578063e159163414610f4c578063e715032214610f75578063e8a3d48514610fb2578063e985e9c514610fdd576103c3565b8063d37c353b14610e8e578063d45573f614610ecb578063d547741f14610ef7578063d637ed5914610f20576103c3565b8063c87b56dd116100dc578063c87b56dd14610dac578063ca15c87314610de9578063cb2ef6f714610e26578063ce80564214610e51576103c3565b8063ad1eefc514610cef578063b24f2d3914610d2c578063b88d4fde14610d58578063c68907de14610d81576103c3565b8063a05112fc11610185578063a2309ff811610154578063a2309ff814610c1f578063a32fa5b314610c4a578063ac9650d814610c87578063acd083f814610cc4576103c3565b8063a05112fc14610b63578063a0a8e46014610ba0578063a217fddf14610bcb578063a22cb46514610bf6576103c3565b8063938e3d7b116101c1578063938e3d7b14610aa957806395d89b4114610ad25780639bcf7a1514610afd5780639fc4d68f14610b26576103c3565b806384bb1e42146109e85780638da5cb5b14610a045780639010d07c14610a2f57806391d1485414610a6c576103c3565b806336568abe116102e2578063572b6c05116102755780636f4f2837116102445780636f4f28371461091c5780636f8934f41461094557806370a082311461098257806374bc7db7146109bf576103c3565b8063572b6c051461084e578063600dd5ea1461088b5780636352211e146108b457806363b45e2d146108f1576103c3565b806342966c68116102b157806342966c681461077f578063492e224b146107a85780634cc157df146107e5578063504c6e0114610823576103c3565b806336568abe146106d95780633b1475a7146107025780633f3e4c111461072d57806342842e0e14610756576103c3565b806323a2902b1161035a5780632a55205a116103295780632a55205a1461061e5780632ab4d0521461065c5780632f2ff15d1461068757806332f0cd64146106b0576103c3565b806323a2902b1461053e57806323b872dd1461057b5780632419f51b146105a4578063248a9ca3146105e1576103c3565b8063095ea7b311610396578063095ea7b31461049857806313af4035146104c157806318160ddd146104ea5780631e7ac48814610515576103c3565b806301ffc9a7146103c857806306fdde0314610405578063079fe40e14610430578063081812fc1461045b575b600080fd5b3480156103d457600080fd5b506103ef60048036038101906103ea919061778c565b61101a565b6040516103fc91906177d4565b60405180910390f35b34801561041157600080fd5b5061041a611094565b6040516104279190617888565b60405180910390f35b34801561043c57600080fd5b50610445611126565b60405161045291906178eb565b60405180910390f35b34801561046757600080fd5b50610482600480360381019061047d919061793c565b611150565b60405161048f91906178eb565b60405180910390f35b3480156104a457600080fd5b506104bf60048036038101906104ba9190617995565b6111cc565b005b3480156104cd57600080fd5b506104e860048036038101906104e391906179d5565b6112ec565b005b3480156104f657600080fd5b506104ff61133f565b60405161050c9190617a11565b60405180910390f35b34801561052157600080fd5b5061053c60048036038101906105379190617995565b611356565b005b34801561054a57600080fd5b5061056560048036038101906105609190617a50565b6113ab565b60405161057291906177d4565b60405180910390f35b34801561058757600080fd5b506105a2600480360381019061059d9190617af9565b611890565b005b3480156105b057600080fd5b506105cb60048036038101906105c6919061793c565b6119f7565b6040516105d89190617a11565b60405180910390f35b3480156105ed57600080fd5b5061060860048036038101906106039190617b82565b611a68565b6040516106159190617bbe565b60405180910390f35b34801561062a57600080fd5b5061064560048036038101906106409190617bd9565b611a85565b604051610653929190617c19565b60405180910390f35b34801561066857600080fd5b50610671611ac3565b60405161067e9190617a11565b60405180910390f35b34801561069357600080fd5b506106ae60048036038101906106a99190617c42565b611aca565b005b3480156106bc57600080fd5b506106d760048036038101906106d29190617cae565b611b93565b005b3480156106e557600080fd5b5061070060048036038101906106fb9190617c42565b611be6565b005b34801561070e57600080fd5b50610717611c62565b6040516107249190617a11565b60405180910390f35b34801561073957600080fd5b50610754600480360381019061074f919061793c565b611c6c565b005b34801561076257600080fd5b5061077d60048036038101906107789190617af9565b611cbd565b005b34801561078b57600080fd5b506107a660048036038101906107a1919061793c565b611e24565b005b3480156107b457600080fd5b506107cf60048036038101906107ca919061793c565b611e32565b6040516107dc91906177d4565b60405180910390f35b3480156107f157600080fd5b5061080c6004803603810190610807919061793c565b611e5d565b60405161081a929190617cf8565b60405180910390f35b34801561082f57600080fd5b50610838611f68565b60405161084591906177d4565b60405180910390f35b34801561085a57600080fd5b50610875600480360381019061087091906179d5565b611f7b565b60405161088291906177d4565b60405180910390f35b34801561089757600080fd5b506108b260048036038101906108ad9190617995565b611fd1565b005b3480156108c057600080fd5b506108db60048036038101906108d6919061793c565b612026565b6040516108e891906178eb565b60405180910390f35b3480156108fd57600080fd5b5061090661203c565b6040516109139190617a11565b60405180910390f35b34801561092857600080fd5b50610943600480360381019061093e91906179d5565b612049565b005b34801561095157600080fd5b5061096c6004803603810190610967919061793c565b61209c565b6040516109799190617e48565b60405180910390f35b34801561098e57600080fd5b506109a960048036038101906109a491906179d5565b6121f1565b6040516109b69190617a11565b60405180910390f35b3480156109cb57600080fd5b506109e660048036038101906109e19190617ecf565b6122c1565b005b610a0260048036038101906109fd919061805f565b6126d5565b005b348015610a1057600080fd5b50610a19612848565b604051610a2691906178eb565b60405180910390f35b348015610a3b57600080fd5b50610a566004803603810190610a519190618124565b612872565b604051610a6391906178eb565b60405180910390f35b348015610a7857600080fd5b50610a936004803603810190610a8e9190617c42565b612a24565b604051610aa091906177d4565b60405180910390f35b348015610ab557600080fd5b50610ad06004803603810190610acb9190618205565b612a8c565b005b348015610ade57600080fd5b50610ae7612adf565b604051610af49190617888565b60405180910390f35b348015610b0957600080fd5b50610b246004803603810190610b1f919061824e565b612b71565b005b348015610b3257600080fd5b50610b4d6004803603810190610b4891906182f7565b612bc8565b604051610b5a9190617888565b60405180910390f35b348015610b6f57600080fd5b50610b8a6004803603810190610b85919061793c565b612d4f565b604051610b9791906183ac565b60405180910390f35b348015610bac57600080fd5b50610bb5612def565b604051610bc291906183ea565b60405180910390f35b348015610bd757600080fd5b50610be0612df8565b604051610bed9190617bbe565b60405180910390f35b348015610c0257600080fd5b50610c1d6004803603810190610c189190618405565b612dff565b005b348015610c2b57600080fd5b50610c34612f1f565b604051610c419190617a11565b60405180910390f35b348015610c5657600080fd5b50610c716004803603810190610c6c9190617c42565b612f32565b604051610c7e91906177d4565b60405180910390f35b348015610c9357600080fd5b50610cae6004803603810190610ca9919061849b565b613006565b604051610cbb91906185f4565b60405180910390f35b348015610cd057600080fd5b50610cd9613112565b604051610ce69190617a11565b60405180910390f35b348015610cfb57600080fd5b50610d166004803603810190610d119190618616565b61311c565b604051610d239190617a11565b60405180910390f35b348015610d3857600080fd5b50610d4161317a565b604051610d4f929190617cf8565b60405180910390f35b348015610d6457600080fd5b50610d7f6004803603810190610d7a9190618656565b6131b9565b005b348015610d8d57600080fd5b50610d96613323565b604051610da39190617a11565b60405180910390f35b348015610db857600080fd5b50610dd36004803603810190610dce919061793c565b6133df565b604051610de09190617888565b60405180910390f35b348015610df557600080fd5b50610e106004803603810190610e0b9190617b82565b613467565b604051610e1d9190617a11565b60405180910390f35b348015610e3257600080fd5b50610e3b613554565b604051610e489190617bbe565b60405180910390f35b348015610e5d57600080fd5b50610e786004803603810190610e7391906182f7565b61357c565b604051610e859190617888565b60405180910390f35b348015610e9a57600080fd5b50610eb56004803603810190610eb0919061872f565b61360a565b604051610ec29190617a11565b60405180910390f35b348015610ed757600080fd5b50610ee06136bc565b604051610eee929190617cf8565b60405180910390f35b348015610f0357600080fd5b50610f1e6004803603810190610f199190617c42565b6136fb565b005b348015610f2c57600080fd5b50610f35613726565b604051610f439291906187c4565b60405180910390f35b348015610f5857600080fd5b50610f736004803603810190610f6e91906188f8565b613738565b005b348015610f8157600080fd5b50610f9c6004803603810190610f979190618a47565b613978565b604051610fa991906183ac565b60405180910390f35b348015610fbe57600080fd5b50610fc7613a02565b604051610fd49190617888565b60405180910390f35b348015610fe957600080fd5b506110046004803603810190610fff9190618ac3565b613a90565b60405161101191906177d4565b60405180910390f35b600061102582613b47565b8061108d5750817bffffffffffffffffffffffffffffffffffffffffffffffffffffffff19167f2a55205a000000000000000000000000000000000000000000000000000000007bffffffffffffffffffffffffffffffffffffffffffffffffffffffff1916145b9050919050565b606060dd80546110a390618b32565b80601f01602080910402602001604051908101604052809291908181526020018280546110cf90618b32565b801561111c5780601f106110f15761010080835404028352916020019161111c565b820191906000526020600020905b8154815290600101906020018083116110ff57829003601f168201915b5050505050905090565b6000600560009054906101000a900473ffffffffffffffffffffffffffffffffffffffff16905090565b600061115b82613c29565b611191576040517fcf4700e400000000000000000000000000000000000000000000000000000000815260040160405180910390fd5b60e1600083815260200190815260200160002060009054906101000a900473ffffffffffffffffffffffffffffffffffffffff169050919050565b8160a860009054906101000a900460ff16156112dd5760006daaeb6d7670e522a718067333cd4e73ffffffffffffffffffffffffffffffffffffffff163b11156112dc576daaeb6d7670e522a718067333cd4e73ffffffffffffffffffffffffffffffffffffffff1663c617113430836040518363ffffffff1660e01b8152600401611259929190618b64565b602060405180830381865afa158015611276573d6000803e3d6000fd5b505050506040513d601f19601f8201168201806040525081019061129a9190618ba2565b6112db57806040517fede71dcc0000000000000000000000000000000000000000000000000000000081526004016112d291906178eb565b60405180910390fd5b5b5b6112e78383613c77565b505050565b6112f4613d7c565b611333576040517f08c379a000000000000000000000000000000000000000000000000000000000815260040161132a90618c1b565b60405180910390fd5b61133c81613d97565b50565b6000611349613e5d565b60dc5460db540303905090565b61135e613e62565b61139d576040517f08c379a000000000000000000000000000000000000000000000000000000000815260040161139490618c1b565b60405180910390fd5b6113a78282613e7d565b5050565b600080600e6002016000898152602001908152602001600020604051806101000160405290816000820154815260200160018201548152602001600282015481526020016003820154815260200160048201548152602001600582015481526020016006820160009054906101000a900473ffffffffffffffffffffffffffffffffffffffff1673ffffffffffffffffffffffffffffffffffffffff1673ffffffffffffffffffffffffffffffffffffffff16815260200160078201805461147290618b32565b80601f016020809104026020016040519081016040528092919081815260200182805461149e90618b32565b80156114eb5780601f106114c0576101008083540402835291602001916114eb565b820191906000526020600020905b8154815290600101906020018083116114ce57829003601f168201915b505050505081525050905060008160600151905060008260a00151905060008360c0015190506000801b8460800151146115c9576115c38680600001906115329190618c4a565b80806020026020016040519081016040528093929190818152602001838360200280828437600081840152601f19601f8201169050808301925050505050505085608001518c89602001358a604001358b606001602081019061159591906179d5565b6040516020016115a89493929190618d16565b60405160208183030381529060405280519060200120613f72565b50809550505b84156116b8576000866020013514156115e257826115e8565b85602001355b92507fffffffffffffffffffffffffffffffffffffffffffffffffffffffffffffffff8660400135141561161c5781611622565b85604001355b91507fffffffffffffffffffffffffffffffffffffffffffffffffffffffffffffffff8660400135141580156116975750600073ffffffffffffffffffffffffffffffffffffffff1686606001602081019061167e91906179d5565b73ffffffffffffffffffffffffffffffffffffffff1614155b6116a157806116b5565b8560600160208101906116b491906179d5565b5b90505b6000600e60030160008d815260200190815260200160002060008c73ffffffffffffffffffffffffffffffffffffffff1673ffffffffffffffffffffffffffffffffffffffff1681526020019081526020016000205490508173ffffffffffffffffffffffffffffffffffffffff168973ffffffffffffffffffffffffffffffffffffffff1614158061174b5750828814155b1561178b576040517f08c379a000000000000000000000000000000000000000000000000000000000815260040161178290618db0565b60405180910390fd5b60008a14806117a4575083818b6117a29190618dff565b115b156117e4576040517f08c379a00000000000000000000000000000000000000000000000000000000081526004016117db90618ea1565b60405180910390fd5b84602001518a86604001516117f99190618dff565b111561183a576040517f08c379a000000000000000000000000000000000000000000000000000000000815260040161183190618f0d565b60405180910390fd5b4285600001511115611881576040517f08c379a000000000000000000000000000000000000000000000000000000000815260040161187890618f79565b60405180910390fd5b50505050509695505050505050565b8260a860009054906101000a900460ff16156119e55760006daaeb6d7670e522a718067333cd4e73ffffffffffffffffffffffffffffffffffffffff163b11156119e4573373ffffffffffffffffffffffffffffffffffffffff168173ffffffffffffffffffffffffffffffffffffffff1614156119185761191384848461404e565b6119f1565b6daaeb6d7670e522a718067333cd4e73ffffffffffffffffffffffffffffffffffffffff1663c617113430336040518363ffffffff1660e01b8152600401611961929190618b64565b602060405180830381865afa15801561197e573d6000803e3d6000fd5b505050506040513d601f19601f820116820180604052508101906119a29190618ba2565b6119e357336040517fede71dcc0000000000000000000000000000000000000000000000000000000081526004016119da91906178eb565b60405180910390fd5b5b5b6119f084848461404e565b5b50505050565b6000611a0161203c565b8210611a42576040517f08c379a0000000000000000000000000000000000000000000000000000000008152600401611a3990618fe5565b60405180910390fd5b60088281548110611a5657611a55619005565b5b90600052602060002001549050919050565b6000600c6000838152602001908152602001600020549050919050565b600080600080611a9486611e5d565b61ffff16915091508193506127108186611aae9190619034565b611ab891906190bd565b925050509250929050565b61010f5481565b611ae7600c6000848152602001908152602001600020543361405e565b600b600083815260200190815260200160002060008273ffffffffffffffffffffffffffffffffffffffff1673ffffffffffffffffffffffffffffffffffffffff16815260200190815260200160002060009054906101000a900460ff1615611b85576040517f08c379a0000000000000000000000000000000000000000000000000000000008152600401611b7c9061913a565b60405180910390fd5b611b8f828261414f565b5050565b611b9b614167565b611bda576040517f08c379a0000000000000000000000000000000000000000000000000000000008152600401611bd1906191cc565b60405180910390fd5b611be381614182565b50565b8073ffffffffffffffffffffffffffffffffffffffff163373ffffffffffffffffffffffffffffffffffffffff1614611c54576040517f08c379a0000000000000000000000000000000000000000000000000000000008152600401611c4b90619238565b60405180910390fd5b611c5e82826141d6565b5050565b6000600a54905090565b6000801b611c7a813361405e565b8161010f819055507ff2672935fc79f5237559e2e2999dbe743bf65430894ac2b37666890e7c69e1af82604051611cb19190617a11565b60405180910390a15050565b8260a860009054906101000a900460ff1615611e125760006daaeb6d7670e522a718067333cd4e73ffffffffffffffffffffffffffffffffffffffff163b1115611e11573373ffffffffffffffffffffffffffffffffffffffff168173ffffffffffffffffffffffffffffffffffffffff161415611d4557611d408484846141ee565b611e1e565b6daaeb6d7670e522a718067333cd4e73ffffffffffffffffffffffffffffffffffffffff1663c617113430336040518363ffffffff1660e01b8152600401611d8e929190618b64565b602060405180830381865afa158015611dab573d6000803e3d6000fd5b505050506040513d601f19601f82011682018060405250810190611dcf9190618ba2565b611e1057336040517fede71dcc000000000000000000000000000000000000000000000000000000008152600401611e0791906178eb565b60405180910390fd5b5b5b611e1d8484846141ee565b5b50505050565b611e2f81600161420e565b50565b600080600760008481526020019081526020016000208054611e5390618b32565b9050119050919050565b6000806000600460008581526020019081526020016000206040518060400160405290816000820160009054906101000a900473ffffffffffffffffffffffffffffffffffffffff1673ffffffffffffffffffffffffffffffffffffffff1673ffffffffffffffffffffffffffffffffffffffff1681526020016001820154815250509050600073ffffffffffffffffffffffffffffffffffffffff16816000015173ffffffffffffffffffffffffffffffffffffffff1614611f295780600001518160200151611f5e565b600360009054906101000a900473ffffffffffffffffffffffffffffffffffffffff16600360149054906101000a900461ffff165b9250925050915091565b60a860009054906101000a900460ff1681565b6000604460008373ffffffffffffffffffffffffffffffffffffffff1673ffffffffffffffffffffffffffffffffffffffff16815260200190815260200160002060009054906101000a900460ff169050919050565b611fd96145fe565b612018576040517f08c379a000000000000000000000000000000000000000000000000000000000815260040161200f90618c1b565b60405180910390fd5b6120228282614619565b5050565b60006120318261470e565b600001519050919050565b6000600880549050905090565b612051614999565b612090576040517f08c379a000000000000000000000000000000000000000000000000000000000815260040161208790618c1b565b60405180910390fd5b612099816149b4565b50565b6120a4617516565b600e6002016000838152602001908152602001600020604051806101000160405290816000820154815260200160018201548152602001600282015481526020016003820154815260200160048201548152602001600582015481526020016006820160009054906101000a900473ffffffffffffffffffffffffffffffffffffffff1673ffffffffffffffffffffffffffffffffffffffff1673ffffffffffffffffffffffffffffffffffffffff16815260200160078201805461216890618b32565b80601f016020809104026020016040519081016040528092919081815260200182805461219490618b32565b80156121e15780601f106121b6576101008083540402835291602001916121e1565b820191906000526020600020905b8154815290600101906020018083116121c457829003601f168201915b5050505050815250509050919050565b60008073ffffffffffffffffffffffffffffffffffffffff168273ffffffffffffffffffffffffffffffffffffffff161415612259576040517f8f4eb60400000000000000000000000000000000000000000000000000000000815260040160405180910390fd5b60e060008373ffffffffffffffffffffffffffffffffffffffff1673ffffffffffffffffffffffffffffffffffffffff16815260200190815260200160002060000160009054906101000a900467ffffffffffffffff1667ffffffffffffffff169050919050565b6122c9614a3b565b612308576040517f08c379a00000000000000000000000000000000000000000000000000000000081526004016122ff90618c1b565b60405180910390fd5b6000600e6000015490506000600e600101549050600082905083156123365781836123339190618dff565b90505b85859050600e6001018190555080600e60000181905550600080600090505b87879050811015612526576000811480612396575087878281811061237d5761237c619005565b5b905060200281019061238f9190619258565b6000013582105b6123d5576040517f08c379a00000000000000000000000000000000000000000000000000000000081526004016123cc906192cd565b60405180910390fd5b6000600e600201600083866123ea9190618dff565b815260200190815260200160002060020154905088888381811061241157612410619005565b5b90506020028101906124239190619258565b60200135811115612469576040517f08c379a000000000000000000000000000000000000000000000000000000000815260040161246090619339565b60405180910390fd5b88888381811061247c5761247b619005565b5b905060200281019061248e9190619258565b600e600201600084876124a19190618dff565b815260200190815260200160002081816124bb9190619910565b90505080600e600201600084876124d29190618dff565b8152602001908152602001600020600201819055508888838181106124fa576124f9619005565b5b905060200281019061250c9190619258565b60000135925050808061251e9061991e565b915050612355565b5084156125d45760008490505b828110156125ce57600e6002016000828152602001908152602001600020600080820160009055600182016000905560028201600090556003820160009055600482016000905560058201600090556006820160006101000a81549073ffffffffffffffffffffffffffffffffffffffff02191690556007820160006125b99190617574565b505080806125c69061991e565b915050612533565b50612691565b868690508311156126905760008787905090505b8381101561268e57600e600201600082856126039190618dff565b8152602001908152602001600020600080820160009055600182016000905560028201600090556003820160009055600482016000905560058201600090556006820160006101000a81549073ffffffffffffffffffffffffffffffffffffffff02191690556007820160006126799190617574565b505080806126869061991e565b9150506125e8565b505b5b7fbf4016fceeaaa4ac5cf4be865b559ff85825ab4ca7aa7b661d16e2f544c030988787876040516126c493929190619c16565b60405180910390a150505050505050565b6126e3868686868686614a56565b60006126ed613323565b9050612704816126fb614b11565b888888886113ab565b5085600e6002016000838152602001908152602001600020600201600082825461272e9190618dff565b9250508190555085600e60030160008381526020019081526020016000206000612756614b11565b73ffffffffffffffffffffffffffffffffffffffff1673ffffffffffffffffffffffffffffffffffffffff168152602001908152602001600020600082825461279f9190618dff565b925050819055506127b36000878787614b20565b60006127bf8888614c7c565b90508773ffffffffffffffffffffffffffffffffffffffff166127e0614b11565b73ffffffffffffffffffffffffffffffffffffffff16837ffa76a4010d9533e3e964f2930a65fb6042a12fa6ff5b08281837a10b0be7321e848b6040516128289291906187c4565b60405180910390a461283e888888888888614c93565b5050505050505050565b6000600660009054906101000a900473ffffffffffffffffffffffffffffffffffffffff16905090565b600080600d6000858152602001908152602001600020600001549050600080600090505b82811015612a1a57600073ffffffffffffffffffffffffffffffffffffffff16600d6000888152602001908152602001600020600101600083815260200190815260200160002060009054906101000a900473ffffffffffffffffffffffffffffffffffffffff1673ffffffffffffffffffffffffffffffffffffffff1614612987578482141561297357600d6000878152602001908152602001600020600101600082815260200190815260200160002060009054906101000a900473ffffffffffffffffffffffffffffffffffffffff169350505050612a1e565b6001826129809190618dff565b9150612a06565b612992866000612a24565b80156129f05750600d600087815260200190815260200160002060020160008073ffffffffffffffffffffffffffffffffffffffff1673ffffffffffffffffffffffffffffffffffffffff1681526020019081526020016000205481145b15612a0557600182612a029190618dff565b91505b5b600181612a139190618dff565b9050612896565b5050505b92915050565b6000600b600084815260200190815260200160002060008373ffffffffffffffffffffffffffffffffffffffff1673ffffffffffffffffffffffffffffffffffffffff16815260200190815260200160002060009054906101000a900460ff16905092915050565b612a94614c9b565b612ad3576040517f08c379a0000000000000000000000000000000000000000000000000000000008152600401612aca90618c1b565b60405180910390fd5b612adc81614cb6565b50565b606060de8054612aee90618b32565b80601f0160208091040260200160405190810160405280929190818152602001828054612b1a90618b32565b8015612b675780601f10612b3c57610100808354040283529160200191612b67565b820191906000526020600020905b815481529060010190602001808311612b4a57829003601f168201915b5050505050905090565b612b796145fe565b612bb8576040517f08c379a0000000000000000000000000000000000000000000000000000000008152600401612baf90618c1b565b60405180910390fd5b612bc3838383614d99565b505050565b60606000600760008681526020019081526020016000208054612bea90618b32565b80601f0160208091040260200160405190810160405280929190818152602001828054612c1690618b32565b8015612c635780601f10612c3857610100808354040283529160200191612c63565b820191906000526020600020905b815481529060010190602001808311612c4657829003601f168201915b50505050509050600081511415612caf576040517f08c379a0000000000000000000000000000000000000000000000000000000008152600401612ca690619c94565b60405180910390fd5b60008082806020019051810190612cc69190619d39565b91509150612cd5828787613978565b93508084878746604051602001612cef9493929190619e01565b6040516020818303038152906040528051906020012014612d45576040517f08c379a0000000000000000000000000000000000000000000000000000000008152600401612d3c90619e84565b60405180910390fd5b5050509392505050565b60076020528060005260406000206000915090508054612d6e90618b32565b80601f0160208091040260200160405190810160405280929190818152602001828054612d9a90618b32565b8015612de75780601f10612dbc57610100808354040283529160200191612de7565b820191906000526020600020905b815481529060010190602001808311612dca57829003601f168201915b505050505081565b60006004905090565b6000801b81565b8160a860009054906101000a900460ff1615612f105760006daaeb6d7670e522a718067333cd4e73ffffffffffffffffffffffffffffffffffffffff163b1115612f0f576daaeb6d7670e522a718067333cd4e73ffffffffffffffffffffffffffffffffffffffff1663c617113430836040518363ffffffff1660e01b8152600401612e8c929190618b64565b602060405180830381865afa158015612ea9573d6000803e3d6000fd5b505050506040513d601f19601f82011682018060405250810190612ecd9190618ba2565b612f0e57806040517fede71dcc000000000000000000000000000000000000000000000000000000008152600401612f0591906178eb565b60405180910390fd5b5b5b612f1a8383614ec4565b505050565b6000612f29613e5d565b60db5403905090565b6000600b600084815260200190815260200160002060008073ffffffffffffffffffffffffffffffffffffffff1673ffffffffffffffffffffffffffffffffffffffff16815260200190815260200160002060009054906101000a900460ff16612ffb57600b600084815260200190815260200160002060008373ffffffffffffffffffffffffffffffffffffffff1673ffffffffffffffffffffffffffffffffffffffff16815260200190815260200160002060009054906101000a900460ff169050613000565b600190505b92915050565b60608282905067ffffffffffffffff81111561302557613024617f34565b5b60405190808252806020026020018201604052801561305857816020015b60608152602001906001900390816130435790505b50905060005b8383905081101561310b576130da308585848181106130805761307f619005565b5b90506020028101906130929190619ea4565b8080601f016020809104026020016040519081016040528093929190818152602001838380828437600081840152601f19601f8201169050808301925050505050505061503c565b8282815181106130ed576130ec619005565b5b602002602001018190525080806131039061991e565b91505061305e565b5092915050565b600060db54905090565b6000600e600301600084815260200190815260200160002060008373ffffffffffffffffffffffffffffffffffffffff1673ffffffffffffffffffffffffffffffffffffffff16815260200190815260200160002054905092915050565b600080600360009054906101000a900473ffffffffffffffffffffffffffffffffffffffff16600360149054906101000a900461ffff16915091509091565b8360a860009054906101000a900460ff161561330f5760006daaeb6d7670e522a718067333cd4e73ffffffffffffffffffffffffffffffffffffffff163b111561330e573373ffffffffffffffffffffffffffffffffffffffff168173ffffffffffffffffffffffffffffffffffffffff1614156132425761323d85858585615120565b61331c565b6daaeb6d7670e522a718067333cd4e73ffffffffffffffffffffffffffffffffffffffff1663c617113430336040518363ffffffff1660e01b815260040161328b929190618b64565b602060405180830381865afa1580156132a8573d6000803e3d6000fd5b505050506040513d601f19601f820116820180604052508101906132cc9190618ba2565b61330d57336040517fede71dcc00000000000000000000000000000000000000000000000000000000815260040161330491906178eb565b60405180910390fd5b5b5b61331b85858585615120565b5b5050505050565b600080600e60010154600e6000015461333c9190618dff565b90505b600e600001548111156133a057600e60020160006001836133609190619f07565b815260200190815260200160002060000154421061338d576001816133859190619f07565b9150506133dc565b808061339890619f3b565b91505061333f565b506040517f08c379a00000000000000000000000000000000000000000000000000000000081526004016133d390619fb1565b60405180910390fd5b90565b606060006133ec83615198565b50905060006133fa846152a6565b905061340582611e32565b15613433578060405160200161341b919061a01d565b60405160208183030381529060405292505050613462565b8061343d8561544b565b60405160200161344e92919061a03f565b604051602081830303815290604052925050505b919050565b600080600d600084815260200190815260200160002060000154905060005b8181101561352d57600073ffffffffffffffffffffffffffffffffffffffff16600d6000868152602001908152602001600020600101600083815260200190815260200160002060009054906101000a900473ffffffffffffffffffffffffffffffffffffffff1673ffffffffffffffffffffffffffffffffffffffff1614613519576001836135169190618dff565b92505b6001816135269190618dff565b9050613486565b50613539836000612a24565b1561354e5760018261354b9190618dff565b91505b50919050565b60007f44726f7045524337323100000000000000000000000000000000000000000000905090565b606061010e5461358c813361405e565b6000613597866119f7565b90506135a4818686612bc8565b92506135bf81604051806020016040528060008152506155ac565b6135c981846155d8565b857f6df1d8db2a036436ffe0b2d1833f2c5f1e624818dfce2578c0faa4b83ef9998d846040516135f99190617888565b60405180910390a250509392505050565b6000808383905011156136a4576000808484810190613629919061a063565b915091506000825114158015613640575060008114155b156136a1576136a088600a546136569190618dff565b86868080601f016020809104026020016040519081016040528093929190818152602001838380828437600081840152601f19601f820116905080830192505050505050506155ac565b5b50505b6136b18686868686615604565b905095945050505050565b600080600260009054906101000a900473ffffffffffffffffffffffffffffffffffffffff16600260149054906101000a900461ffff16915091509091565b613718600c6000848152602001908152602001600020543361405e565b61372282826141d6565b5050565b600e8060000154908060010154905082565b60008060019054906101000a900460ff161590508080156137695750600160008054906101000a900460ff1660ff16105b80613796575061377830613b24565b1580156137955750600160008054906101000a900460ff1660ff16145b5b6137d5576040517f08c379a00000000000000000000000000000000000000000000000000000000081526004016137cc9061a131565b60405180910390fd5b60016000806101000a81548160ff021916908360ff1602179055508015613812576001600060016101000a81548160ff0219169083151502179055505b60007f8502233096d909befbda0999bb8ea2f3a6be3c138b9fbf003752a4c8bce86f6c905060007f9f2df0fed2c77648de5860a4cc508cd0818c85b8b8a1ab4ceeef8d981c8956a6905061386589615756565b61386f8c8c6157b9565b613877615816565b6138808a614cb6565b6138898d613d97565b6138936001614182565b6138a06000801b8e61414f565b6138aa818e61414f565b6138b4828e61414f565b6138bf82600061414f565b6138db84866fffffffffffffffffffffffffffffffff16613e7d565b6138f787876fffffffffffffffffffffffffffffffff16614619565b613900886149b4565b8161010d819055508061010e819055505050801561396b5760008060016101000a81548160ff0219169083151502179055507f7f26b83ff96e1f2b6a682f133852f6798a09c465da95921460cefb38474024986001604051613962919061a18c565b60405180910390a15b5050505050505050505050565b6060600084519050604051915060208183010160405280825260005b818110156139f95760008585836040516020016139b39392919061a1a7565b60405160208183030381529060405280519060200120905060006020830188015190508181189050806020840186015250506020816139f29190618dff565b9050613994565b50509392505050565b60018054613a0f90618b32565b80601f0160208091040260200160405190810160405280929190818152602001828054613a3b90618b32565b8015613a885780601f10613a5d57610100808354040283529160200191613a88565b820191906000526020600020905b815481529060010190602001808311613a6b57829003601f168201915b505050505081565b600060e260008473ffffffffffffffffffffffffffffffffffffffff1673ffffffffffffffffffffffffffffffffffffffff16815260200190815260200160002060008373ffffffffffffffffffffffffffffffffffffffff1673ffffffffffffffffffffffffffffffffffffffff16815260200190815260200160002060009054906101000a900460ff16905092915050565b6000808273ffffffffffffffffffffffffffffffffffffffff163b119050919050565b60007f80ac58cd000000000000000000000000000000000000000000000000000000007bffffffffffffffffffffffffffffffffffffffffffffffffffffffff1916827bffffffffffffffffffffffffffffffffffffffffffffffffffffffff19161480613c1257507f5b5e139f000000000000000000000000000000000000000000000000000000007bffffffffffffffffffffffffffffffffffffffffffffffffffffffff1916827bffffffffffffffffffffffffffffffffffffffffffffffffffffffff1916145b80613c225750613c2182615837565b5b9050919050565b600081613c34613e5d565b11158015613c43575060db5482105b8015613c70575060df6000838152602001908152602001600020600001601c9054906101000a900460ff16155b9050919050565b6000613c8282612026565b90508073ffffffffffffffffffffffffffffffffffffffff168373ffffffffffffffffffffffffffffffffffffffff161415613cea576040517f943f7b8c00000000000000000000000000000000000000000000000000000000815260040160405180910390fd5b8073ffffffffffffffffffffffffffffffffffffffff16613d096158a1565b73ffffffffffffffffffffffffffffffffffffffff1614613d6c57613d3581613d306158a1565b613a90565b613d6b576040517fcfb3b94200000000000000000000000000000000000000000000000000000000815260040160405180910390fd5b5b613d778383836158b0565b505050565b6000613d926000801b613d8d6158a1565b612a24565b905090565b6000600660009054906101000a900473ffffffffffffffffffffffffffffffffffffffff16905081600660006101000a81548173ffffffffffffffffffffffffffffffffffffffff021916908373ffffffffffffffffffffffffffffffffffffffff1602179055508173ffffffffffffffffffffffffffffffffffffffff168173ffffffffffffffffffffffffffffffffffffffff167f8292fce18fa69edf4db7b94ea2e58241df0ae57f97e0a6c9b29067028bf92d7660405160405180910390a35050565b600090565b6000613e786000801b613e736158a1565b612a24565b905090565b612710811115613ec2576040517f08c379a0000000000000000000000000000000000000000000000000000000008152600401613eb99061a21d565b60405180910390fd5b80600260146101000a81548161ffff021916908361ffff16021790555081600260006101000a81548173ffffffffffffffffffffffffffffffffffffffff021916908373ffffffffffffffffffffffffffffffffffffffff1602179055508173ffffffffffffffffffffffffffffffffffffffff167fe2497bd806ec41a6e0dd992c29a72efc0ef8fec9092d1978fd4a1e00b2f1830482604051613f669190617a11565b60405180910390a25050565b60008060008390506000805b875181101561403b57600282613f949190619034565b91506000888281518110613fab57613faa619005565b5b60200260200101519050808411613fec578381604051602001613fcf92919061a25e565b604051602081830303815290604052805190602001209350614027565b8084604051602001613fff92919061a25e565b6040516020818303038152906040528051906020012093506001836140249190618dff565b92505b5080806140339061991e565b915050613f7e565b5085821481935093505050935093915050565b614059838383615962565b505050565b600b600083815260200190815260200160002060008273ffffffffffffffffffffffffffffffffffffffff1673ffffffffffffffffffffffffffffffffffffffff16815260200190815260200160002060009054906101000a900460ff1661414b576140e18173ffffffffffffffffffffffffffffffffffffffff166014615e18565b6140ef8360001c6020615e18565b60405160200161410092919061a322565b6040516020818303038152906040526040517f08c379a00000000000000000000000000000000000000000000000000000000081526004016141429190617888565b60405180910390fd5b5050565b6141598282616054565b614163828261611c565b5050565b600061417d6000801b6141786158a1565b612a24565b905090565b8060a860006101000a81548160ff0219169083151502179055507f38475885990d8dfe9ca01f0ef160a1b5514426eab9ddbc953a3353410ba78096816040516141cb91906177d4565b60405180910390a150565b6141e08282616228565b6141ea82826162f1565b5050565b614209838383604051806020016040528060008152506131b9565b505050565b60006142198361470e565b905060008160000151905082156142fa5760008173ffffffffffffffffffffffffffffffffffffffff1661424b6158a1565b73ffffffffffffffffffffffffffffffffffffffff16148061427a5750614279826142746158a1565b613a90565b5b806142bf57506142886158a1565b73ffffffffffffffffffffffffffffffffffffffff166142a786611150565b73ffffffffffffffffffffffffffffffffffffffff16145b9050806142f8576040517f59c896be00000000000000000000000000000000000000000000000000000000815260040160405180910390fd5b505b6143088160008660016163ef565b614314600085836158b0565b600060e060008373ffffffffffffffffffffffffffffffffffffffff1673ffffffffffffffffffffffffffffffffffffffff168152602001908152602001600020905060018160000160008282829054906101000a900467ffffffffffffffff160392506101000a81548167ffffffffffffffff021916908367ffffffffffffffff16021790555060018160000160108282829054906101000a900467ffffffffffffffff160192506101000a81548167ffffffffffffffff021916908367ffffffffffffffff160217905550600060df60008781526020019081526020016000209050828160000160006101000a81548173ffffffffffffffffffffffffffffffffffffffff021916908373ffffffffffffffffffffffffffffffffffffffff160217905550428160000160146101000a81548167ffffffffffffffff021916908367ffffffffffffffff160217905550600181600001601c6101000a81548160ff0219169083151502179055506000600187019050600060df60008381526020019081526020016000209050600073ffffffffffffffffffffffffffffffffffffffff168160000160009054906101000a900473ffffffffffffffffffffffffffffffffffffffff1673ffffffffffffffffffffffffffffffffffffffff1614156145785760db54821461457757848160000160006101000a81548173ffffffffffffffffffffffffffffffffffffffff021916908373ffffffffffffffffffffffffffffffffffffffff16021790555085602001518160000160146101000a81548167ffffffffffffffff021916908367ffffffffffffffff1602179055505b5b5050505083600073ffffffffffffffffffffffffffffffffffffffff168273ffffffffffffffffffffffffffffffffffffffff167fddf252ad1be2c89b69c2b068fc378daa952ba7f163c4a11628f55a4df523b3ef60405160405180910390a46145e68160008660016164ec565b60dc6000815480929190600101919050555050505050565b60006146146000801b61460f6158a1565b612a24565b905090565b61271081111561465e576040517f08c379a00000000000000000000000000000000000000000000000000000000081526004016146559061a21d565b60405180910390fd5b81600360006101000a81548173ffffffffffffffffffffffffffffffffffffffff021916908373ffffffffffffffffffffffffffffffffffffffff16021790555080600360146101000a81548161ffff021916908361ffff1602179055508173ffffffffffffffffffffffffffffffffffffffff167f90d7ec04bcb8978719414f82e52e4cb651db41d0e6f8cea6118c2191e6183adb826040516147029190617a11565b60405180910390a25050565b6147166175b4565b600082905080614724613e5d565b116149625760db5481101561496157600060df60008381526020019081526020016000206040518060600160405290816000820160009054906101000a900473ffffffffffffffffffffffffffffffffffffffff1673ffffffffffffffffffffffffffffffffffffffff1673ffffffffffffffffffffffffffffffffffffffff1681526020016000820160149054906101000a900467ffffffffffffffff1667ffffffffffffffff1667ffffffffffffffff16815260200160008201601c9054906101000a900460ff1615151515815250509050806040015161495f57600073ffffffffffffffffffffffffffffffffffffffff16816000015173ffffffffffffffffffffffffffffffffffffffff1614614843578092505050614994565b5b60011561495e5781806001900392505060df60008381526020019081526020016000206040518060600160405290816000820160009054906101000a900473ffffffffffffffffffffffffffffffffffffffff1673ffffffffffffffffffffffffffffffffffffffff1673ffffffffffffffffffffffffffffffffffffffff1681526020016000820160149054906101000a900467ffffffffffffffff1667ffffffffffffffff1667ffffffffffffffff16815260200160008201601c9054906101000a900460ff1615151515815250509050600073ffffffffffffffffffffffffffffffffffffffff16816000015173ffffffffffffffffffffffffffffffffffffffff1614614959578092505050614994565b614844565b5b505b5b6040517fdf2d9b4200000000000000000000000000000000000000000000000000000000815260040160405180910390fd5b919050565b60006149af6000801b6149aa6158a1565b612a24565b905090565b80600560006101000a81548173ffffffffffffffffffffffffffffffffffffffff021916908373ffffffffffffffffffffffffffffffffffffffff1602179055508073ffffffffffffffffffffffffffffffffffffffff167f299d17e95023f496e0ffc4909cff1a61f74bb5eb18de6f900f4155bfa1b3b33360405160405180910390a250565b6000614a516000801b614a4c6158a1565b612a24565b905090565b600a548560db54614a679190618dff565b1115614aa8576040517f08c379a0000000000000000000000000000000000000000000000000000000008152600401614a9f9061a3a8565b60405180910390fd5b600061010f541480614aca575061010f548560db54614ac79190618dff565b11155b614b09576040517f08c379a0000000000000000000000000000000000000000000000000000000008152600401614b009061a414565b60405180910390fd5b505050505050565b6000614b1b6158a1565b905090565b6000811415614b2e57614c76565b600080614b396136bc565b9150915060008073ffffffffffffffffffffffffffffffffffffffff168773ffffffffffffffffffffffffffffffffffffffff1614614b785786614b81565b614b80611126565b5b905060008487614b919190619034565b905060006127108461ffff1683614ba89190619034565b614bb291906190bd565b905073eeeeeeeeeeeeeeeeeeeeeeeeeeeeeeeeeeeeeeee73ffffffffffffffffffffffffffffffffffffffff168773ffffffffffffffffffffffffffffffffffffffff161415614c3f57813414614c3e576040517f08c379a0000000000000000000000000000000000000000000000000000000008152600401614c359061a480565b60405180910390fd5b5b614c5287614c4b6158a1565b87846164f2565b614c7087614c5e6158a1565b858486614c6b9190619f07565b6164f2565b50505050505b50505050565b600060db549050614c8d838361656b565b92915050565b505050505050565b6000614cb16000801b614cac6158a1565b612a24565b905090565b600060018054614cc590618b32565b80601f0160208091040260200160405190810160405280929190818152602001828054614cf190618b32565b8015614d3e5780601f10614d1357610100808354040283529160200191614d3e565b820191906000526020600020905b815481529060010190602001808311614d2157829003601f168201915b505050505090508160019080519060200190614d5b9291906175f7565b507fc9c7c3fe08b88b4df9d4d47ef47d2c43d55c025a0ba88ca442580ed9e7348a168183604051614d8d92919061a4a0565b60405180910390a15050565b612710811115614dde576040517f08c379a0000000000000000000000000000000000000000000000000000000008152600401614dd59061a21d565b60405180910390fd5b60405180604001604052808373ffffffffffffffffffffffffffffffffffffffff168152602001828152506004600085815260200190815260200160002060008201518160000160006101000a81548173ffffffffffffffffffffffffffffffffffffffff021916908373ffffffffffffffffffffffffffffffffffffffff160217905550602082015181600101559050508173ffffffffffffffffffffffffffffffffffffffff16837f7365cf4122f072a3365c20d54eff9b38d73c096c28e1892ec8f5b0e403a0f12d83604051614eb79190617a11565b60405180910390a3505050565b614ecc6158a1565b73ffffffffffffffffffffffffffffffffffffffff168273ffffffffffffffffffffffffffffffffffffffff161415614f31576040517fb06307db00000000000000000000000000000000000000000000000000000000815260040160405180910390fd5b8060e26000614f3e6158a1565b73ffffffffffffffffffffffffffffffffffffffff1673ffffffffffffffffffffffffffffffffffffffff16815260200190815260200160002060008473ffffffffffffffffffffffffffffffffffffffff1673ffffffffffffffffffffffffffffffffffffffff16815260200190815260200160002060006101000a81548160ff0219169083151502179055508173ffffffffffffffffffffffffffffffffffffffff16614feb6158a1565b73ffffffffffffffffffffffffffffffffffffffff167f17307eab39ab6107e8899845ad3d59bd9653f200f220920489ca2b5937696c318360405161503091906177d4565b60405180910390a35050565b606061504783613b24565b615086576040517f08c379a000000000000000000000000000000000000000000000000000000000815260040161507d9061a549565b60405180910390fd5b6000808473ffffffffffffffffffffffffffffffffffffffff16846040516150ae919061a59a565b600060405180830381855af49150503d80600081146150e9576040519150601f19603f3d011682016040523d82523d6000602084013e6150ee565b606091505b5091509150615116828260405180606001604052806027815260200161abc460279139616589565b9250505092915050565b61512b848484615962565b61514a8373ffffffffffffffffffffffffffffffffffffffff16613b24565b156151925761515b848484846165f0565b615191576040517fd1a57ed600000000000000000000000000000000000000000000000000000000815260040160405180910390fd5b5b50505050565b60008060006151a561203c565b9050600060088054806020026020016040519081016040528092919081815260200182805480156151f557602002820191906000526020600020905b8154815260200190600101908083116151e1575b5050505050905060005b828110156152655781818151811061521a57615219619005565b5b60200260200101518610156152515780935081818151811061523f5761523e619005565b5b602002602001015194505050506152a1565b60018161525e9190618dff565b90506151ff565b506040517f08c379a00000000000000000000000000000000000000000000000000000000081526004016152989061a5fd565b60405180910390fd5b915091565b606060006152b261203c565b90506000600880548060200260200160405190810160405280929190818152602001828054801561530257602002820191906000526020600020905b8154815260200190600101908083116152ee575b5050505050905060005b8281101561540a5781818151811061532757615326619005565b5b60200260200101518510156153f6576009600083838151811061534d5761534c619005565b5b60200260200101518152602001908152602001600020805461536e90618b32565b80601f016020809104026020016040519081016040528092919081815260200182805461539a90618b32565b80156153e75780601f106153bc576101008083540402835291602001916153e7565b820191906000526020600020905b8154815290600101906020018083116153ca57829003601f168201915b50505050509350505050615446565b6001816154039190618dff565b905061530c565b506040517f08c379a000000000000000000000000000000000000000000000000000000000815260040161543d9061a5fd565b60405180910390fd5b919050565b60606000821415615493576040518060400160405280600181526020017f300000000000000000000000000000000000000000000000000000000000000081525090506155a7565b600082905060005b600082146154c55780806154ae9061991e565b915050600a826154be91906190bd565b915061549b565b60008167ffffffffffffffff8111156154e1576154e0617f34565b5b6040519080825280601f01601f1916602001820160405280156155135781602001600182028036833780820191505090505b5090505b600085146155a05760018261552c9190619f07565b9150600a8561553b919061a61d565b60306155479190618dff565b60f81b81838151811061555d5761555c619005565b5b60200101907effffffffffffffffffffffffffffffffffffffffffffffffffffffffffffff1916908160001a905350600a8561559991906190bd565b9450615517565b8093505050505b919050565b806007600084815260200190815260200160002090805190602001906155d392919061767d565b505050565b806009600084815260200190815260200160002090805190602001906155ff9291906175f7565b505050565b600061560e616741565b61564d576040517f08c379a000000000000000000000000000000000000000000000000000000000815260040161564490618c1b565b60405180910390fd5b6000861415615691576040517f08c379a00000000000000000000000000000000000000000000000000000000081526004016156889061a69a565b60405180910390fd5b6000600a5490506156e7818888888080601f016020809104026020016040519081016040528093929190818152602001838380828437600081840152601f19601f8201169050808301925050505050505061675c565b600a600082955083919050555050807f2a0365091ef1a40953c670dce28177e37520648a6fdc91506bffac0ab045570d600189846157259190618dff565b61572f9190619f07565b8888888860405161574495949392919061a714565b60405180910390a25095945050505050565b600060019054906101000a900460ff166157a5576040517f08c379a000000000000000000000000000000000000000000000000000000000815260040161579c9061a7cf565b60405180910390fd5b6157ad6167c9565b6157b68161681a565b50565b600060019054906101000a900460ff16615808576040517f08c379a00000000000000000000000000000000000000000000000000000000081526004016157ff9061a7cf565b60405180910390fd5b61581282826168fe565b5050565b615835733cc6cdda760b79bafa08df41ecfa224f810dceb6600161698d565b565b60007f01ffc9a7000000000000000000000000000000000000000000000000000000007bffffffffffffffffffffffffffffffffffffffffffffffffffffffff1916827bffffffffffffffffffffffffffffffffffffffffffffffffffffffff1916149050919050565b60006158ab616c04565b905090565b8260e1600084815260200190815260200160002060006101000a81548173ffffffffffffffffffffffffffffffffffffffff021916908373ffffffffffffffffffffffffffffffffffffffff160217905550818373ffffffffffffffffffffffffffffffffffffffff168273ffffffffffffffffffffffffffffffffffffffff167f8c5be1e5ebec7d5bd14f71427d1e84f3dd0314c0f7b2291e5b200ac8c7c3b92560405160405180910390a4505050565b600061596d8261470e565b90508373ffffffffffffffffffffffffffffffffffffffff16816000015173ffffffffffffffffffffffffffffffffffffffff16146159d8576040517fa114810000000000000000000000000000000000000000000000000000000000815260040160405180910390fd5b60008473ffffffffffffffffffffffffffffffffffffffff166159f96158a1565b73ffffffffffffffffffffffffffffffffffffffff161480615a285750615a2785615a226158a1565b613a90565b5b80615a6d5750615a366158a1565b73ffffffffffffffffffffffffffffffffffffffff16615a5584611150565b73ffffffffffffffffffffffffffffffffffffffff16145b905080615aa6576040517f59c896be00000000000000000000000000000000000000000000000000000000815260040160405180910390fd5b600073ffffffffffffffffffffffffffffffffffffffff168473ffffffffffffffffffffffffffffffffffffffff161415615b0d576040517fea553b3400000000000000000000000000000000000000000000000000000000815260040160405180910390fd5b615b1a85858560016163ef565b615b26600084876158b0565b600160e060008773ffffffffffffffffffffffffffffffffffffffff1673ffffffffffffffffffffffffffffffffffffffff16815260200190815260200160002060000160008282829054906101000a900467ffffffffffffffff160392506101000a81548167ffffffffffffffff021916908367ffffffffffffffff160217905550600160e060008673ffffffffffffffffffffffffffffffffffffffff1673ffffffffffffffffffffffffffffffffffffffff16815260200190815260200160002060000160008282829054906101000a900467ffffffffffffffff160192506101000a81548167ffffffffffffffff021916908367ffffffffffffffff160217905550600060df60008581526020019081526020016000209050848160000160006101000a81548173ffffffffffffffffffffffffffffffffffffffff021916908373ffffffffffffffffffffffffffffffffffffffff160217905550428160000160146101000a81548167ffffffffffffffff021916908367ffffffffffffffff1602179055506000600185019050600060df60008381526020019081526020016000209050600073ffffffffffffffffffffffffffffffffffffffff168160000160009054906101000a900473ffffffffffffffffffffffffffffffffffffffff1673ffffffffffffffffffffffffffffffffffffffff161415615da65760db548214615da557878160000160006101000a81548173ffffffffffffffffffffffffffffffffffffffff021916908373ffffffffffffffffffffffffffffffffffffffff16021790555084602001518160000160146101000a81548167ffffffffffffffff021916908367ffffffffffffffff1602179055505b5b505050828473ffffffffffffffffffffffffffffffffffffffff168673ffffffffffffffffffffffffffffffffffffffff167fddf252ad1be2c89b69c2b068fc378daa952ba7f163c4a11628f55a4df523b3ef60405160405180910390a4615e1185858560016164ec565b5050505050565b606060006002836002615e2b9190619034565b615e359190618dff565b67ffffffffffffffff811115615e4e57615e4d617f34565b5b6040519080825280601f01601f191660200182016040528015615e805781602001600182028036833780820191505090505b5090507f300000000000000000000000000000000000000000000000000000000000000081600081518110615eb857615eb7619005565b5b60200101907effffffffffffffffffffffffffffffffffffffffffffffffffffffffffffff1916908160001a9053507f780000000000000000000000000000000000000000000000000000000000000081600181518110615f1c57615f1b619005565b5b60200101907effffffffffffffffffffffffffffffffffffffffffffffffffffffffffffff1916908160001a90535060006001846002615f5c9190619034565b615f669190618dff565b90505b6001811115616006577f3031323334353637383961626364656600000000000000000000000000000000600f861660108110615fa857615fa7619005565b5b1a60f81b828281518110615fbf57615fbe619005565b5b60200101907effffffffffffffffffffffffffffffffffffffffffffffffffffffffffffff1916908160001a905350600485901c945080615fff90619f3b565b9050615f69565b506000841461604a576040517f08c379a00000000000000000000000000000000000000000000000000000000081526004016160419061a83b565b60405180910390fd5b8091505092915050565b6001600b600084815260200190815260200160002060008373ffffffffffffffffffffffffffffffffffffffff1673ffffffffffffffffffffffffffffffffffffffff16815260200190815260200160002060006101000a81548160ff0219169083151502179055503373ffffffffffffffffffffffffffffffffffffffff168173ffffffffffffffffffffffffffffffffffffffff16837f2f8788117e7eff1d82e926ec794901d17c78024a50270940304540a733656f0d60405160405180910390a45050565b6000600d60008481526020019081526020016000206000015490506001600d6000858152602001908152602001600020600001600082825461615e9190618dff565b9250508190555081600d6000858152602001908152602001600020600101600083815260200190815260200160002060006101000a81548173ffffffffffffffffffffffffffffffffffffffff021916908373ffffffffffffffffffffffffffffffffffffffff16021790555080600d600085815260200190815260200160002060020160008473ffffffffffffffffffffffffffffffffffffffff1673ffffffffffffffffffffffffffffffffffffffff16815260200190815260200160002081905550505050565b616232828261405e565b600b600083815260200190815260200160002060008273ffffffffffffffffffffffffffffffffffffffff1673ffffffffffffffffffffffffffffffffffffffff16815260200190815260200160002060006101000a81549060ff02191690553373ffffffffffffffffffffffffffffffffffffffff168173ffffffffffffffffffffffffffffffffffffffff16837ff6391f5c32d9c69d2a47ea670b442974b53935d1edc7fd64eb21e047a839171b60405160405180910390a45050565b6000600d600084815260200190815260200160002060020160008373ffffffffffffffffffffffffffffffffffffffff1673ffffffffffffffffffffffffffffffffffffffff168152602001908152602001600020549050600d6000848152602001908152602001600020600101600082815260200190815260200160002060006101000a81549073ffffffffffffffffffffffffffffffffffffffff0219169055600d600084815260200190815260200160002060020160008373ffffffffffffffffffffffffffffffffffffffff1673ffffffffffffffffffffffffffffffffffffffff16815260200190815260200160002060009055505050565b6163fb84848484616c36565b61640961010d546000612a24565b1580156164435750600073ffffffffffffffffffffffffffffffffffffffff168473ffffffffffffffffffffffffffffffffffffffff1614155b801561647c5750600073ffffffffffffffffffffffffffffffffffffffff168373ffffffffffffffffffffffffffffffffffffffff1614155b156164e65761648e61010d5485612a24565b1580156164a557506164a361010d5484612a24565b155b156164e5576040517f08c379a00000000000000000000000000000000000000000000000000000000081526004016164dc9061a8a7565b60405180910390fd5b5b50505050565b50505050565b600081141561650057616565565b73eeeeeeeeeeeeeeeeeeeeeeeeeeeeeeeeeeeeeeee73ffffffffffffffffffffffffffffffffffffffff168473ffffffffffffffffffffffffffffffffffffffff161415616557576165528282616c3c565b616564565b61656384848484616ced565b5b5b50505050565b616585828260405180602001604052806000815250616dbf565b5050565b60608315616599578290506165e9565b6000835111156165ac5782518084602001fd5b816040517f08c379a00000000000000000000000000000000000000000000000000000000081526004016165e09190617888565b60405180910390fd5b9392505050565b60008373ffffffffffffffffffffffffffffffffffffffff1663150b7a026166166158a1565b8786866040518563ffffffff1660e01b8152600401616638949392919061a8c7565b6020604051808303816000875af192505050801561667457506040513d601f19601f82011682018060405250810190616671919061a928565b60015b6166ee573d80600081146166a4576040519150601f19603f3d011682016040523d82523d6000602084013e6166a9565b606091505b506000815114156166e6576040517fd1a57ed600000000000000000000000000000000000000000000000000000000815260040160405180910390fd5b805181602001fd5b63150b7a0260e01b7bffffffffffffffffffffffffffffffffffffffffffffffffffffffff1916817bffffffffffffffffffffffffffffffffffffffffffffffffffffffff191614915050949350505050565b600061675761010e546167526158a1565b612a24565b905090565b600080838561676b9190618dff565b90508091506008819080600181540180825580915050600190039060005260206000200160009091909190915055826009600083815260200190815260200160002090805190602001906167c09291906175f7565b50935093915050565b600060019054906101000a900460ff16616818576040517f08c379a000000000000000000000000000000000000000000000000000000000815260040161680f9061a7cf565b60405180910390fd5b565b600060019054906101000a900460ff16616869576040517f08c379a00000000000000000000000000000000000000000000000000000000081526004016168609061a7cf565b60405180910390fd5b60005b81518110156168fa5760016044600084848151811061688e5761688d619005565b5b602002602001015173ffffffffffffffffffffffffffffffffffffffff1673ffffffffffffffffffffffffffffffffffffffff16815260200190815260200160002060006101000a81548160ff02191690831515021790555080806168f29061991e565b91505061686c565b5050565b600060019054906101000a900460ff1661694d576040517f08c379a00000000000000000000000000000000000000000000000000000000081526004016169449061a7cf565b60405180910390fd5b8160dd90805190602001906169639291906175f7565b508060de908051906020019061697a9291906175f7565b50616983613e5d565b60db819055505050565b60006daaeb6d7670e522a718067333cd4e73ffffffffffffffffffffffffffffffffffffffff163b1115616c00576daaeb6d7670e522a718067333cd4e73ffffffffffffffffffffffffffffffffffffffff1663c3c5a547306040518263ffffffff1660e01b8152600401616a0291906178eb565b6020604051808303816000875af1158015616a21573d6000803e3d6000fd5b505050506040513d601f19601f82011682018060405250810190616a459190618ba2565b616bff578015616acf576daaeb6d7670e522a718067333cd4e73ffffffffffffffffffffffffffffffffffffffff16637d3e3dbe30846040518363ffffffff1660e01b8152600401616a98929190618b64565b600060405180830381600087803b158015616ab257600080fd5b505af1158015616ac6573d6000803e3d6000fd5b50505050616bfe565b600073ffffffffffffffffffffffffffffffffffffffff168273ffffffffffffffffffffffffffffffffffffffff1614616b83576daaeb6d7670e522a718067333cd4e73ffffffffffffffffffffffffffffffffffffffff1663a0af290330846040518363ffffffff1660e01b8152600401616b4c929190618b64565b600060405180830381600087803b158015616b6657600080fd5b505af1158015616b7a573d6000803e3d6000fd5b50505050616bfd565b6daaeb6d7670e522a718067333cd4e73ffffffffffffffffffffffffffffffffffffffff16634420e486306040518263ffffffff1660e01b8152600401616bca91906178eb565b600060405180830381600087803b158015616be457600080fd5b505af1158015616bf8573d6000803e3d6000fd5b505050505b5b5b5b5050565b6000616c0f33611f7b565b15616c2357601436033560601c9050616c32565b616c2b617182565b9050616c33565b5b90565b50505050565b60008273ffffffffffffffffffffffffffffffffffffffff1682604051616c629061a97b565b60006040518083038185875af1925050503d8060008114616c9f576040519150601f19603f3d011682016040523d82523d6000602084013e616ca4565b606091505b5050905080616ce8576040517f08c379a0000000000000000000000000000000000000000000000000000000008152600401616cdf9061a9dc565b60405180910390fd5b505050565b8173ffffffffffffffffffffffffffffffffffffffff168373ffffffffffffffffffffffffffffffffffffffff161415616d2657616db9565b3073ffffffffffffffffffffffffffffffffffffffff168373ffffffffffffffffffffffffffffffffffffffff161415616d8a57616d8582828673ffffffffffffffffffffffffffffffffffffffff1661718a9092919063ffffffff16565b616db8565b616db78383838773ffffffffffffffffffffffffffffffffffffffff16617210909392919063ffffffff16565b5b5b50505050565b600060db549050600073ffffffffffffffffffffffffffffffffffffffff168473ffffffffffffffffffffffffffffffffffffffff161415616e2d576040517f2e07630000000000000000000000000000000000000000000000000000000000815260040160405180910390fd5b6000831415616e68576040517fb562e8dd00000000000000000000000000000000000000000000000000000000815260040160405180910390fd5b616e7560008583866163ef565b8260e060008673ffffffffffffffffffffffffffffffffffffffff1673ffffffffffffffffffffffffffffffffffffffff16815260200190815260200160002060000160008282829054906101000a900467ffffffffffffffff160192506101000a81548167ffffffffffffffff021916908367ffffffffffffffff1602179055508260e060008673ffffffffffffffffffffffffffffffffffffffff1673ffffffffffffffffffffffffffffffffffffffff16815260200190815260200160002060000160088282829054906101000a900467ffffffffffffffff160192506101000a81548167ffffffffffffffff021916908367ffffffffffffffff1602179055508360df600083815260200190815260200160002060000160006101000a81548173ffffffffffffffffffffffffffffffffffffffff021916908373ffffffffffffffffffffffffffffffffffffffff1602179055504260df600083815260200190815260200160002060000160146101000a81548167ffffffffffffffff021916908367ffffffffffffffff1602179055506000819050600084820190506170368673ffffffffffffffffffffffffffffffffffffffff16613b24565b156170fb575b818673ffffffffffffffffffffffffffffffffffffffff16600073ffffffffffffffffffffffffffffffffffffffff167fddf252ad1be2c89b69c2b068fc378daa952ba7f163c4a11628f55a4df523b3ef60405160405180910390a46170ab60008784806001019550876165f0565b6170e1576040517fd1a57ed600000000000000000000000000000000000000000000000000000000815260040160405180910390fd5b80821061703c578260db54146170f657600080fd5b617166565b5b818060010192508673ffffffffffffffffffffffffffffffffffffffff16600073ffffffffffffffffffffffffffffffffffffffff167fddf252ad1be2c89b69c2b068fc378daa952ba7f163c4a11628f55a4df523b3ef60405160405180910390a48082106170fc575b8160db81905550505061717c60008583866164ec565b50505050565b600033905090565b61720b8363a9059cbb60e01b84846040516024016171a9929190617c19565b604051602081830303815290604052907bffffffffffffffffffffffffffffffffffffffffffffffffffffffff19166020820180517bffffffffffffffffffffffffffffffffffffffffffffffffffffffff8381831617835250505050617299565b505050565b617293846323b872dd60e01b8585856040516024016172319392919061a9fc565b604051602081830303815290604052907bffffffffffffffffffffffffffffffffffffffffffffffffffffffff19166020820180517bffffffffffffffffffffffffffffffffffffffffffffffffffffffff8381831617835250505050617299565b50505050565b60006172fb826040518060400160405280602081526020017f5361666545524332303a206c6f772d6c6576656c2063616c6c206661696c65648152508573ffffffffffffffffffffffffffffffffffffffff166173609092919063ffffffff16565b905060008151111561735b578080602001905181019061731b9190618ba2565b61735a576040517f08c379a00000000000000000000000000000000000000000000000000000000081526004016173519061aaa5565b60405180910390fd5b5b505050565b606061736f8484600085617378565b90509392505050565b6060824710156173bd576040517f08c379a00000000000000000000000000000000000000000000000000000000081526004016173b49061ab37565b60405180910390fd5b6173c68561748c565b617405576040517f08c379a00000000000000000000000000000000000000000000000000000000081526004016173fc9061aba3565b60405180910390fd5b6000808673ffffffffffffffffffffffffffffffffffffffff16858760405161742e919061a59a565b60006040518083038185875af1925050503d806000811461746b576040519150601f19603f3d011682016040523d82523d6000602084013e617470565b606091505b50915091506174808282866174af565b92505050949350505050565b6000808273ffffffffffffffffffffffffffffffffffffffff163b119050919050565b606083156174bf5782905061750f565b6000835111156174d25782518084602001fd5b816040517f08c379a00000000000000000000000000000000000000000000000000000000081526004016175069190617888565b60405180910390fd5b9392505050565b604051806101000160405280600081526020016000815260200160008152602001600081526020016000801916815260200160008152602001600073ffffffffffffffffffffffffffffffffffffffff168152602001606081525090565b50805461758090618b32565b6000825580601f1061759257506175b1565b601f0160209004906000526020600020908101906175b09190617703565b5b50565b6040518060600160405280600073ffffffffffffffffffffffffffffffffffffffff168152602001600067ffffffffffffffff1681526020016000151581525090565b82805461760390618b32565b90600052602060002090601f016020900481019282617625576000855561766c565b82601f1061763e57805160ff191683800117855561766c565b8280016001018555821561766c579182015b8281111561766b578251825591602001919060010190617650565b5b5090506176799190617703565b5090565b82805461768990618b32565b90600052602060002090601f0160209004810192826176ab57600085556176f2565b82601f106176c457805160ff19168380011785556176f2565b828001600101855582156176f2579182015b828111156176f15782518255916020019190600101906176d6565b5b5090506176ff9190617703565b5090565b5b8082111561771c576000816000905550600101617704565b5090565b6000604051905090565b600080fd5b600080fd5b60007fffffffff0000000000000000000000000000000000000000000000000000000082169050919050565b61776981617734565b811461777457600080fd5b50565b60008135905061778681617760565b92915050565b6000602082840312156177a2576177a161772a565b5b60006177b084828501617777565b91505092915050565b60008115159050919050565b6177ce816177b9565b82525050565b60006020820190506177e960008301846177c5565b92915050565b600081519050919050565b600082825260208201905092915050565b60005b8381101561782957808201518184015260208101905061780e565b83811115617838576000848401525b50505050565b6000601f19601f8301169050919050565b600061785a826177ef565b61786481856177fa565b935061787481856020860161780b565b61787d8161783e565b840191505092915050565b600060208201905081810360008301526178a2818461784f565b905092915050565b600073ffffffffffffffffffffffffffffffffffffffff82169050919050565b60006178d5826178aa565b9050919050565b6178e5816178ca565b82525050565b600060208201905061790060008301846178dc565b92915050565b6000819050919050565b61791981617906565b811461792457600080fd5b50565b60008135905061793681617910565b92915050565b6000602082840312156179525761795161772a565b5b600061796084828501617927565b91505092915050565b617972816178ca565b811461797d57600080fd5b50565b60008135905061798f81617969565b92915050565b600080604083850312156179ac576179ab61772a565b5b60006179ba85828601617980565b92505060206179cb85828601617927565b9150509250929050565b6000602082840312156179eb576179ea61772a565b5b60006179f984828501617980565b91505092915050565b617a0b81617906565b82525050565b6000602082019050617a266000830184617a02565b92915050565b600080fd5b600060808284031215617a4757617a46617a2c565b5b81905092915050565b60008060008060008060c08789031215617a6d57617a6c61772a565b5b6000617a7b89828a01617927565b9650506020617a8c89828a01617980565b9550506040617a9d89828a01617927565b9450506060617aae89828a01617980565b9350506080617abf89828a01617927565b92505060a087013567ffffffffffffffff811115617ae057617adf61772f565b5b617aec89828a01617a31565b9150509295509295509295565b600080600060608486031215617b1257617b1161772a565b5b6000617b2086828701617980565b9350506020617b3186828701617980565b9250506040617b4286828701617927565b9150509250925092565b6000819050919050565b617b5f81617b4c565b8114617b6a57600080fd5b50565b600081359050617b7c81617b56565b92915050565b600060208284031215617b9857617b9761772a565b5b6000617ba684828501617b6d565b91505092915050565b617bb881617b4c565b82525050565b6000602082019050617bd36000830184617baf565b92915050565b60008060408385031215617bf057617bef61772a565b5b6000617bfe85828601617927565b9250506020617c0f85828601617927565b9150509250929050565b6000604082019050617c2e60008301856178dc565b617c3b6020830184617a02565b9392505050565b60008060408385031215617c5957617c5861772a565b5b6000617c6785828601617b6d565b9250506020617c7885828601617980565b9150509250929050565b617c8b816177b9565b8114617c9657600080fd5b50565b600081359050617ca881617c82565b92915050565b600060208284031215617cc457617cc361772a565b5b6000617cd284828501617c99565b91505092915050565b600061ffff82169050919050565b617cf281617cdb565b82525050565b6000604082019050617d0d60008301856178dc565b617d1a6020830184617ce9565b9392505050565b617d2a81617906565b82525050565b617d3981617b4c565b82525050565b617d48816178ca565b82525050565b600082825260208201905092915050565b6000617d6a826177ef565b617d748185617d4e565b9350617d8481856020860161780b565b617d8d8161783e565b840191505092915050565b600061010083016000830151617db16000860182617d21565b506020830151617dc46020860182617d21565b506040830151617dd76040860182617d21565b506060830151617dea6060860182617d21565b506080830151617dfd6080860182617d30565b5060a0830151617e1060a0860182617d21565b5060c0830151617e2360c0860182617d3f565b5060e083015184820360e0860152617e3b8282617d5f565b9150508091505092915050565b60006020820190508181036000830152617e628184617d98565b905092915050565b600080fd5b600080fd5b600080fd5b60008083601f840112617e8f57617e8e617e6a565b5b8235905067ffffffffffffffff811115617eac57617eab617e6f565b5b602083019150836020820283011115617ec857617ec7617e74565b5b9250929050565b600080600060408486031215617ee857617ee761772a565b5b600084013567ffffffffffffffff811115617f0657617f0561772f565b5b617f1286828701617e79565b93509350506020617f2586828701617c99565b9150509250925092565b600080fd5b7f4e487b7100000000000000000000000000000000000000000000000000000000600052604160045260246000fd5b617f6c8261783e565b810181811067ffffffffffffffff82111715617f8b57617f8a617f34565b5b80604052505050565b6000617f9e617720565b9050617faa8282617f63565b919050565b600067ffffffffffffffff821115617fca57617fc9617f34565b5b617fd38261783e565b9050602081019050919050565b82818337600083830152505050565b6000618002617ffd84617faf565b617f94565b90508281526020810184848401111561801e5761801d617f2f565b5b618029848285617fe0565b509392505050565b600082601f83011261804657618045617e6a565b5b8135618056848260208601617fef565b91505092915050565b60008060008060008060c0878903121561807c5761807b61772a565b5b600061808a89828a01617980565b965050602061809b89828a01617927565b95505060406180ac89828a01617980565b94505060606180bd89828a01617927565b935050608087013567ffffffffffffffff8111156180de576180dd61772f565b5b6180ea89828a01617a31565b92505060a087013567ffffffffffffffff81111561810b5761810a61772f565b5b61811789828a01618031565b9150509295509295509295565b6000806040838503121561813b5761813a61772a565b5b600061814985828601617b6d565b925050602061815a85828601617927565b9150509250929050565b600067ffffffffffffffff82111561817f5761817e617f34565b5b6181888261783e565b9050602081019050919050565b60006181a86181a384618164565b617f94565b9050828152602081018484840111156181c4576181c3617f2f565b5b6181cf848285617fe0565b509392505050565b600082601f8301126181ec576181eb617e6a565b5b81356181fc848260208601618195565b91505092915050565b60006020828403121561821b5761821a61772a565b5b600082013567ffffffffffffffff8111156182395761823861772f565b5b618245848285016181d7565b91505092915050565b6000806000606084860312156182675761826661772a565b5b600061827586828701617927565b935050602061828686828701617980565b925050604061829786828701617927565b9150509250925092565b60008083601f8401126182b7576182b6617e6a565b5b8235905067ffffffffffffffff8111156182d4576182d3617e6f565b5b6020830191508360018202830111156182f0576182ef617e74565b5b9250929050565b6000806000604084860312156183105761830f61772a565b5b600061831e86828701617927565b935050602084013567ffffffffffffffff81111561833f5761833e61772f565b5b61834b868287016182a1565b92509250509250925092565b600081519050919050565b600082825260208201905092915050565b600061837e82618357565b6183888185618362565b935061839881856020860161780b565b6183a18161783e565b840191505092915050565b600060208201905081810360008301526183c68184618373565b905092915050565b600060ff82169050919050565b6183e4816183ce565b82525050565b60006020820190506183ff60008301846183db565b92915050565b6000806040838503121561841c5761841b61772a565b5b600061842a85828601617980565b925050602061843b85828601617c99565b9150509250929050565b60008083601f84011261845b5761845a617e6a565b5b8235905067ffffffffffffffff81111561847857618477617e6f565b5b60208301915083602082028301111561849457618493617e74565b5b9250929050565b600080602083850312156184b2576184b161772a565b5b600083013567ffffffffffffffff8111156184d0576184cf61772f565b5b6184dc85828601618445565b92509250509250929050565b600081519050919050565b600082825260208201905092915050565b6000819050602082019050919050565b600082825260208201905092915050565b600061853082618357565b61853a8185618514565b935061854a81856020860161780b565b6185538161783e565b840191505092915050565b600061856a8383618525565b905092915050565b6000602082019050919050565b600061858a826184e8565b61859481856184f3565b9350836020820285016185a685618504565b8060005b858110156185e257848403895281516185c3858261855e565b94506185ce83618572565b925060208a019950506001810190506185aa565b50829750879550505050505092915050565b6000602082019050818103600083015261860e818461857f565b905092915050565b6000806040838503121561862d5761862c61772a565b5b600061863b85828601617927565b925050602061864c85828601617980565b9150509250929050565b600080600080608085870312156186705761866f61772a565b5b600061867e87828801617980565b945050602061868f87828801617980565b93505060406186a087828801617927565b925050606085013567ffffffffffffffff8111156186c1576186c061772f565b5b6186cd87828801618031565b91505092959194509250565b60008083601f8401126186ef576186ee617e6a565b5b8235905067ffffffffffffffff81111561870c5761870b617e6f565b5b60208301915083600182028301111561872857618727617e74565b5b9250929050565b60008060008060006060868803121561874b5761874a61772a565b5b600061875988828901617927565b955050602086013567ffffffffffffffff81111561877a5761877961772f565b5b618786888289016186d9565b9450945050604086013567ffffffffffffffff8111156187a9576187a861772f565b5b6187b5888289016182a1565b92509250509295509295909350565b60006040820190506187d96000830185617a02565b6187e66020830184617a02565b9392505050565b600067ffffffffffffffff82111561880857618807617f34565b5b602082029050602081019050919050565b600061882c618827846187ed565b617f94565b9050808382526020820190506020840283018581111561884f5761884e617e74565b5b835b8181101561887857806188648882617980565b845260208401935050602081019050618851565b5050509392505050565b600082601f83011261889757618896617e6a565b5b81356188a7848260208601618819565b91505092915050565b60006fffffffffffffffffffffffffffffffff82169050919050565b6188d5816188b0565b81146188e057600080fd5b50565b6000813590506188f2816188cc565b92915050565b6000806000806000806000806000806101408b8d03121561891c5761891b61772a565b5b600061892a8d828e01617980565b9a505060208b013567ffffffffffffffff81111561894b5761894a61772f565b5b6189578d828e016181d7565b99505060408b013567ffffffffffffffff8111156189785761897761772f565b5b6189848d828e016181d7565b98505060608b013567ffffffffffffffff8111156189a5576189a461772f565b5b6189b18d828e016181d7565b97505060808b013567ffffffffffffffff8111156189d2576189d161772f565b5b6189de8d828e01618882565b96505060a06189ef8d828e01617980565b95505060c0618a008d828e01617980565b94505060e0618a118d828e016188e3565b935050610100618a238d828e016188e3565b925050610120618a358d828e01617980565b9150509295989b9194979a5092959850565b600080600060408486031215618a6057618a5f61772a565b5b600084013567ffffffffffffffff811115618a7e57618a7d61772f565b5b618a8a86828701618031565b935050602084013567ffffffffffffffff811115618aab57618aaa61772f565b5b618ab7868287016182a1565b92509250509250925092565b60008060408385031215618ada57618ad961772a565b5b6000618ae885828601617980565b9250506020618af985828601617980565b9150509250929050565b7f4e487b7100000000000000000000000000000000000000000000000000000000600052602260045260246000fd5b60006002820490506001821680618b4a57607f821691505b60208210811415618b5e57618b5d618b03565b5b50919050565b6000604082019050618b7960008301856178dc565b618b8660208301846178dc565b9392505050565b600081519050618b9c81617c82565b92915050565b600060208284031215618bb857618bb761772a565b5b6000618bc684828501618b8d565b91505092915050565b7f4e6f7420617574686f72697a6564000000000000000000000000000000000000600082015250565b6000618c05600e836177fa565b9150618c1082618bcf565b602082019050919050565b60006020820190508181036000830152618c3481618bf8565b9050919050565b600080fd5b600080fd5b600080fd5b60008083356001602003843603038112618c6757618c66618c3b565b5b80840192508235915067ffffffffffffffff821115618c8957618c88618c40565b5b602083019250602082023603831315618ca557618ca4618c45565b5b509250929050565b60008160601b9050919050565b6000618cc582618cad565b9050919050565b6000618cd782618cba565b9050919050565b618cef618cea826178ca565b618ccc565b82525050565b6000819050919050565b618d10618d0b82617906565b618cf5565b82525050565b6000618d228287618cde565b601482019150618d328286618cff565b602082019150618d428285618cff565b602082019150618d528284618cde565b60148201915081905095945050505050565b7f2150726963654f7243757272656e637900000000000000000000000000000000600082015250565b6000618d9a6010836177fa565b9150618da582618d64565b602082019050919050565b60006020820190508181036000830152618dc981618d8d565b9050919050565b7f4e487b7100000000000000000000000000000000000000000000000000000000600052601160045260246000fd5b6000618e0a82617906565b9150618e1583617906565b9250827fffffffffffffffffffffffffffffffffffffffffffffffffffffffffffffffff03821115618e4a57618e49618dd0565b5b828201905092915050565b7f2151747900000000000000000000000000000000000000000000000000000000600082015250565b6000618e8b6004836177fa565b9150618e9682618e55565b602082019050919050565b60006020820190508181036000830152618eba81618e7e565b9050919050565b7f214d6178537570706c7900000000000000000000000000000000000000000000600082015250565b6000618ef7600a836177fa565b9150618f0282618ec1565b602082019050919050565b60006020820190508181036000830152618f2681618eea565b9050919050565b7f63616e7420636c61696d20796574000000000000000000000000000000000000600082015250565b6000618f63600e836177fa565b9150618f6e82618f2d565b602082019050919050565b60006020820190508181036000830152618f9281618f56565b9050919050565b7f496e76616c696420696e64657800000000000000000000000000000000000000600082015250565b6000618fcf600d836177fa565b9150618fda82618f99565b602082019050919050565b60006020820190508181036000830152618ffe81618fc2565b9050919050565b7f4e487b7100000000000000000000000000000000000000000000000000000000600052603260045260246000fd5b600061903f82617906565b915061904a83617906565b9250817fffffffffffffffffffffffffffffffffffffffffffffffffffffffffffffffff048311821515161561908357619082618dd0565b5b828202905092915050565b7f4e487b7100000000000000000000000000000000000000000000000000000000600052601260045260246000fd5b60006190c882617906565b91506190d383617906565b9250826190e3576190e261908e565b5b828204905092915050565b7f43616e206f6e6c79206772616e7420746f206e6f6e20686f6c64657273000000600082015250565b6000619124601d836177fa565b915061912f826190ee565b602082019050919050565b6000602082019050818103600083015261915381619117565b9050919050565b7f4e6f7420617574686f72697a656420746f20736574206f70657261746f72207260008201527f65737472696374696f6e2e000000000000000000000000000000000000000000602082015250565b60006191b6602b836177fa565b91506191c18261915a565b604082019050919050565b600060208201905081810360008301526191e5816191a9565b9050919050565b7f43616e206f6e6c792072656e6f756e636520666f722073656c66000000000000600082015250565b6000619222601a836177fa565b915061922d826191ec565b602082019050919050565b6000602082019050818103600083015261925181619215565b9050919050565b6000823560016101000383360303811261927557619274618c3b565b5b80830191505092915050565b7f5354000000000000000000000000000000000000000000000000000000000000600082015250565b60006192b76002836177fa565b91506192c282619281565b602082019050919050565b600060208201905081810360008301526192e6816192aa565b9050919050565b7f6d617820737570706c7920636c61696d65640000000000000000000000000000600082015250565b60006193236012836177fa565b915061932e826192ed565b602082019050919050565b6000602082019050818103600083015261935281619316565b9050919050565b6000813561936681617910565b80915050919050565b60008160001b9050919050565b60007fffffffffffffffffffffffffffffffffffffffffffffffffffffffffffffffff6193a88461936f565b9350801983169250808416831791505092915050565b6000819050919050565b60006193e36193de6193d984617906565b6193be565b617906565b9050919050565b6000819050919050565b6193fd826193c8565b619410619409826193ea565b835461937c565b8255505050565b6000813561942481617b56565b80915050919050565b600061943882617b4c565b9050919050565b60008160001c9050919050565b60006194578261943f565b9050919050565b6194678261942d565b61947a6194738261944c565b835461937c565b8255505050565b6000813561948e81617969565b80915050919050565b600073ffffffffffffffffffffffffffffffffffffffff6194b78461936f565b9350801983169250808416831791505092915050565b60006194e86194e36194de846178aa565b6193be565b6178aa565b9050919050565b60006194fa826194cd565b9050919050565b600061950c826194ef565b9050919050565b6000819050919050565b61952682619501565b61953961953282619513565b8354619497565b8255505050565b6000808335600160200384360303811261955d5761955c618c3b565b5b80840192508235915067ffffffffffffffff82111561957f5761957e618c40565b5b60208301925060018202360383131561959b5761959a618c45565b5b509250929050565b600082905092915050565b60008190508160005260206000209050919050565b60006020601f8301049050919050565b600082821b905092915050565b6000600883026196107fffffffffffffffffffffffffffffffffffffffffffffffffffffffffffffffff826195d3565b61961a86836195d3565b95508019841693508086168417925050509392505050565b61963b836193c8565b61964f619647826193ea565b8484546195e0565b825550505050565b600090565b619664619657565b61966f818484619632565b505050565b5b818110156196935761968860008261965c565b600181019050619675565b5050565b601f8211156196d8576196a9816195ae565b6196b2846195c3565b810160208510156196c1578190505b6196d56196cd856195c3565b830182619674565b50505b505050565b600082821c905092915050565b60006196fb600019846008026196dd565b1980831691505092915050565b600061971483836196ea565b9150826002028217905092915050565b61972e83836195a3565b67ffffffffffffffff81111561974757619746617f34565b5b6197518254618b32565b61975c828285619697565b6000601f83116001811461978b5760008415619779578287013590505b6197838582619708565b8655506197eb565b601f198416619799866195ae565b60005b828110156197c15784890135825560018201915060208501945060208101905061979c565b868310156197de57848901356197da601f8916826196ea565b8355505b6001600288020188555050505b50505050505050565b6197ff838383619724565b505050565b60008101600083018061981681619359565b905061982281846193f4565b50505060018101602083018061983781619359565b905061984381846193f4565b50505060028101604083018061985881619359565b905061986481846193f4565b50505060038101606083018061987981619359565b905061988581846193f4565b50505060048101608083018061989a81619417565b90506198a6818461945e565b5050506005810160a08301806198bb81619359565b90506198c781846193f4565b5050506006810160c08301806198dc81619481565b90506198e8818461951d565b5050506007810160e083016198fd8185619540565b6199088183866197f4565b505050505050565b61991a8282619804565b5050565b600061992982617906565b91507fffffffffffffffffffffffffffffffffffffffffffffffffffffffffffffffff82141561995c5761995b618dd0565b5b600182019050919050565b600082825260208201905092915050565b6000819050919050565b60006199916020840184617927565b905092915050565b60006199a86020840184617b6d565b905092915050565b60006199bf6020840184617980565b905092915050565b600080fd5b600080fd5b600080fd5b600080833560016020038436030381126199f3576199f26199d1565b5b83810192508235915060208301925067ffffffffffffffff821115619a1b57619a1a6199c7565b5b600182023603841315619a3157619a306199cc565b5b509250929050565b6000619a458385617d4e565b9350619a52838584617fe0565b619a5b8361783e565b840190509392505050565b60006101008301619a7a6000840184619982565b619a876000860182617d21565b50619a956020840184619982565b619aa26020860182617d21565b50619ab06040840184619982565b619abd6040860182617d21565b50619acb6060840184619982565b619ad86060860182617d21565b50619ae66080840184619999565b619af36080860182617d30565b50619b0160a0840184619982565b619b0e60a0860182617d21565b50619b1c60c08401846199b0565b619b2960c0860182617d3f565b50619b3760e08401846199d6565b85830360e0870152619b4a838284619a39565b925050508091505092915050565b6000619b648383619a66565b905092915050565b60008235600161010003833603038112619b8957619b886199d1565b5b82810191505092915050565b6000602082019050919050565b6000619bae8385619967565b935083602084028501619bc084619978565b8060005b87811015619c04578484038952619bdb8284619b6c565b619be58582619b58565b9450619bf083619b95565b925060208a01995050600181019050619bc4565b50829750879450505050509392505050565b60006040820190508181036000830152619c31818587619ba2565b9050619c4060208301846177c5565b949350505050565b7f4e6f7468696e6720746f2072657665616c000000000000000000000000000000600082015250565b6000619c7e6011836177fa565b9150619c8982619c48565b602082019050919050565b60006020820190508181036000830152619cad81619c71565b9050919050565b6000619cc7619cc284617faf565b617f94565b905082815260208101848484011115619ce357619ce2617f2f565b5b619cee84828561780b565b509392505050565b600082601f830112619d0b57619d0a617e6a565b5b8151619d1b848260208601619cb4565b91505092915050565b600081519050619d3381617b56565b92915050565b60008060408385031215619d5057619d4f61772a565b5b600083015167ffffffffffffffff811115619d6e57619d6d61772f565b5b619d7a85828601619cf6565b9250506020619d8b85828601619d24565b9150509250929050565b600081905092915050565b6000619dab826177ef565b619db58185619d95565b9350619dc581856020860161780b565b80840191505092915050565b600081905092915050565b6000619de88385619dd1565b9350619df5838584617fe0565b82840190509392505050565b6000619e0d8287619da0565b9150619e1a828587619ddc565b9150619e268284618cff565b60208201915081905095945050505050565b7f496e636f7272656374206b657900000000000000000000000000000000000000600082015250565b6000619e6e600d836177fa565b9150619e7982619e38565b602082019050919050565b60006020820190508181036000830152619e9d81619e61565b9050919050565b60008083356001602003843603038112619ec157619ec0618c3b565b5b80840192508235915067ffffffffffffffff821115619ee357619ee2618c40565b5b602083019250600182023603831315619eff57619efe618c45565b5b509250929050565b6000619f1282617906565b9150619f1d83617906565b925082821015619f3057619f2f618dd0565b5b828203905092915050565b6000619f4682617906565b91506000821415619f5a57619f59618dd0565b5b600182039050919050565b7f21434f4e444954494f4e2e000000000000000000000000000000000000000000600082015250565b6000619f9b600b836177fa565b9150619fa682619f65565b602082019050919050565b60006020820190508181036000830152619fca81619f8e565b9050919050565b7f3000000000000000000000000000000000000000000000000000000000000000600082015250565b600061a007600183619d95565b915061a01282619fd1565b600182019050919050565b600061a0298284619da0565b915061a03482619ffa565b915081905092915050565b600061a04b8285619da0565b915061a0578284619da0565b91508190509392505050565b6000806040838503121561a07a5761a07961772a565b5b600083013567ffffffffffffffff81111561a0985761a09761772f565b5b61a0a485828601618031565b925050602061a0b585828601617b6d565b9150509250929050565b7f496e697469616c697a61626c653a20636f6e747261637420697320616c72656160008201527f647920696e697469616c697a6564000000000000000000000000000000000000602082015250565b600061a11b602e836177fa565b915061a1268261a0bf565b604082019050919050565b6000602082019050818103600083015261a14a8161a10e565b9050919050565b6000819050919050565b600061a17661a17161a16c8461a151565b6193be565b6183ce565b9050919050565b61a1868161a15b565b82525050565b600060208201905061a1a1600083018461a17d565b92915050565b600061a1b4828587619ddc565b915061a1c08284618cff565b602082019150819050949350505050565b7f45786365656473206d6178206270730000000000000000000000000000000000600082015250565b600061a207600f836177fa565b915061a2128261a1d1565b602082019050919050565b6000602082019050818103600083015261a2368161a1fa565b9050919050565b6000819050919050565b61a25861a25382617b4c565b61a23d565b82525050565b600061a26a828561a247565b60208201915061a27a828461a247565b6020820191508190509392505050565b7f5065726d697373696f6e733a206163636f756e74200000000000000000000000600082015250565b600061a2c0601583619d95565b915061a2cb8261a28a565b601582019050919050565b7f206973206d697373696e6720726f6c6520000000000000000000000000000000600082015250565b600061a30c601183619d95565b915061a3178261a2d6565b601182019050919050565b600061a32d8261a2b3565b915061a3398285619da0565b915061a3448261a2ff565b915061a3508284619da0565b91508190509392505050565b7f21546f6b656e7300000000000000000000000000000000000000000000000000600082015250565b600061a3926007836177fa565b915061a39d8261a35c565b602082019050919050565b6000602082019050818103600083015261a3c18161a385565b9050919050565b7f657863656564206d617820746f74616c20737570706c792e0000000000000000600082015250565b600061a3fe6018836177fa565b915061a4098261a3c8565b602082019050919050565b6000602082019050818103600083015261a42d8161a3f1565b9050919050565b7f2150726963650000000000000000000000000000000000000000000000000000600082015250565b600061a46a6006836177fa565b915061a4758261a434565b602082019050919050565b6000602082019050818103600083015261a4998161a45d565b9050919050565b6000604082019050818103600083015261a4ba818561784f565b9050818103602083015261a4ce818461784f565b90509392505050565b7f416464726573733a2064656c65676174652063616c6c20746f206e6f6e2d636f60008201527f6e74726163740000000000000000000000000000000000000000000000000000602082015250565b600061a5336026836177fa565b915061a53e8261a4d7565b604082019050919050565b6000602082019050818103600083015261a5628161a526565b9050919050565b600061a57482618357565b61a57e8185619dd1565b935061a58e81856020860161780b565b80840191505092915050565b600061a5a6828461a569565b915081905092915050565b7f496e76616c696420746f6b656e49640000000000000000000000000000000000600082015250565b600061a5e7600f836177fa565b915061a5f28261a5b1565b602082019050919050565b6000602082019050818103600083015261a6168161a5da565b9050919050565b600061a62882617906565b915061a63383617906565b92508261a6435761a64261908e565b5b828206905092915050565b7f3020616d74000000000000000000000000000000000000000000000000000000600082015250565b600061a6846005836177fa565b915061a68f8261a64e565b602082019050919050565b6000602082019050818103600083015261a6b38161a677565b9050919050565b600061a6c683856177fa565b935061a6d3838584617fe0565b61a6dc8361783e565b840190509392505050565b600061a6f38385618362565b935061a700838584617fe0565b61a7098361783e565b840190509392505050565b600060608201905061a7296000830188617a02565b818103602083015261a73c81868861a6ba565b9050818103604083015261a75181848661a6e7565b90509695505050505050565b7f496e697469616c697a61626c653a20636f6e7472616374206973206e6f74206960008201527f6e697469616c697a696e67000000000000000000000000000000000000000000602082015250565b600061a7b9602b836177fa565b915061a7c48261a75d565b604082019050919050565b6000602082019050818103600083015261a7e88161a7ac565b9050919050565b7f537472696e67733a20686578206c656e67746820696e73756666696369656e74600082015250565b600061a8256020836177fa565b915061a8308261a7ef565b602082019050919050565b6000602082019050818103600083015261a8548161a818565b9050919050565b7f215472616e736665722d526f6c65000000000000000000000000000000000000600082015250565b600061a891600e836177fa565b915061a89c8261a85b565b602082019050919050565b6000602082019050818103600083015261a8c08161a884565b9050919050565b600060808201905061a8dc60008301876178dc565b61a8e960208301866178dc565b61a8f66040830185617a02565b818103606083015261a9088184618373565b905095945050505050565b60008151905061a92281617760565b92915050565b60006020828403121561a93e5761a93d61772a565b5b600061a94c8482850161a913565b91505092915050565b50565b600061a965600083619dd1565b915061a9708261a955565b600082019050919050565b600061a9868261a958565b9150819050919050565b7f6e617469766520746f6b656e207472616e73666572206661696c656400000000600082015250565b600061a9c6601c836177fa565b915061a9d18261a990565b602082019050919050565b6000602082019050818103600083015261a9f58161a9b9565b9050919050565b600060608201905061aa1160008301866178dc565b61aa1e60208301856178dc565b61aa2b6040830184617a02565b949350505050565b7f5361666545524332303a204552433230206f7065726174696f6e20646964206e60008201527f6f74207375636365656400000000000000000000000000000000000000000000602082015250565b600061aa8f602a836177fa565b915061aa9a8261aa33565b604082019050919050565b6000602082019050818103600083015261aabe8161aa82565b9050919050565b7f416464726573733a20696e73756666696369656e742062616c616e636520666f60008201527f722063616c6c0000000000000000000000000000000000000000000000000000602082015250565b600061ab216026836177fa565b915061ab2c8261aac5565b604082019050919050565b6000602082019050818103600083015261ab508161ab14565b9050919050565b7f416464726573733a2063616c6c20746f206e6f6e2d636f6e7472616374000000600082015250565b600061ab8d601d836177fa565b915061ab988261ab57565b602082019050919050565b6000602082019050818103600083015261abbc8161ab80565b905091905056fe416464726573733a206c6f772d6c6576656c2064656c65676174652063616c6c206661696c6564a26469706673582212207bbae61fc63e055ee1611166cf60a3651af0b59d4f12c288d4f8b0a0d4d460cb64736f6c634300080c0033",
  "immutableReferences": {},
  "source": "// SPDX-License-Identifier: Apache-2.0\npragma solidity ^0.8.11;\n\n/// @author thirdweb\n\n//   $$\\     $$\\       $$\\                 $$\\                         $$\\\n//   $$ |    $$ |      \\__|                $$ |                        $$ |\n// $$$$$$\\   $$$$$$$\\  $$\\  $$$$$$\\   $$$$$$$ |$$\\  $$\\  $$\\  $$$$$$\\  $$$$$$$\\\n// \\_$$  _|  $$  __$$\\ $$ |$$  __$$\\ $$  __$$ |$$ | $$ | $$ |$$  __$$\\ $$  __$$\\\n//   $$ |    $$ |  $$ |$$ |$$ |  \\__|$$ /  $$ |$$ | $$ | $$ |$$$$$$$$ |$$ |  $$ |\n//   $$ |$$\\ $$ |  $$ |$$ |$$ |      $$ |  $$ |$$ | $$ | $$ |$$   ____|$$ |  $$ |\n//   \\$$$$  |$$ |  $$ |$$ |$$ |      \\$$$$$$$ |\\$$$$$\\$$$$  |\\$$$$$$$\\ $$$$$$$  |\n//    \\____/ \\__|  \\__|\\__|\\__|       \\_______| \\_____\\____/  \\_______|\\_______/\n\n//  ==========  External imports    ==========\n\nimport \"@openzeppelin/contracts-upgradeable/utils/MulticallUpgradeable.sol\";\nimport \"@openzeppelin/contracts-upgradeable/utils/StringsUpgradeable.sol\";\nimport \"@openzeppelin/contracts-upgradeable/interfaces/IERC2981Upgradeable.sol\";\n\nimport \"../eip/ERC721AVirtualApproveUpgradeable.sol\";\n\n//  ==========  Internal imports    ==========\n\nimport \"../openzeppelin-presets/metatx/ERC2771ContextUpgradeable.sol\";\nimport \"../lib/CurrencyTransferLib.sol\";\n\n//  ==========  Features    ==========\n\nimport \"../extension/ContractMetadata.sol\";\nimport \"../extension/PlatformFee.sol\";\nimport \"../extension/Royalty.sol\";\nimport \"../extension/PrimarySale.sol\";\nimport \"../extension/Ownable.sol\";\nimport \"../extension/DelayedReveal.sol\";\nimport \"../extension/LazyMint.sol\";\nimport \"../extension/PermissionsEnumerable.sol\";\nimport \"../extension/Drop.sol\";\n\n// OpenSea operator filter\nimport \"../extension/DefaultOperatorFiltererUpgradeable.sol\";\n\ncontract DropERC721 is\n    Initializable,\n    ContractMetadata,\n    PlatformFee,\n    Royalty,\n    PrimarySale,\n    Ownable,\n    DelayedReveal,\n    LazyMint,\n    PermissionsEnumerable,\n    Drop,\n    ERC2771ContextUpgradeable,\n    MulticallUpgradeable,\n    DefaultOperatorFiltererUpgradeable,\n    ERC721AUpgradeable\n{\n    using StringsUpgradeable for uint256;\n\n    /*///////////////////////////////////////////////////////////////\n                            State variables\n    //////////////////////////////////////////////////////////////*/\n\n    /// @dev Only transfers to or from TRANSFER_ROLE holders are valid, when transfers are restricted.\n    bytes32 private transferRole;\n    /// @dev Only MINTER_ROLE holders can sign off on `MintRequest`s and lazy mint tokens.\n    bytes32 private minterRole;\n\n    /// @dev Max bps in the thirdweb system.\n    uint256 private constant MAX_BPS = 10_000;\n\n    /// @dev Global max total supply of NFTs.\n    uint256 public maxTotalSupply;\n\n    /// @dev Emitted when the global max supply of tokens is updated.\n    event MaxTotalSupplyUpdated(uint256 maxTotalSupply);\n\n    /*///////////////////////////////////////////////////////////////\n                    Constructor + initializer logic\n    //////////////////////////////////////////////////////////////*/\n\n    constructor() initializer {}\n\n    /// @dev Initiliazes the contract, like a constructor.\n    function initialize(\n        address _defaultAdmin,\n        string memory _name,\n        string memory _symbol,\n        string memory _contractURI,\n        address[] memory _trustedForwarders,\n        address _saleRecipient,\n        address _royaltyRecipient,\n        uint128 _royaltyBps,\n        uint128 _platformFeeBps,\n        address _platformFeeRecipient\n    ) external initializer {\n        bytes32 _transferRole = keccak256(\"TRANSFER_ROLE\");\n        bytes32 _minterRole = keccak256(\"MINTER_ROLE\");\n\n        // Initialize inherited contracts, most base-like -> most derived.\n        __ERC2771Context_init(_trustedForwarders);\n        __ERC721A_init(_name, _symbol);\n        __DefaultOperatorFilterer_init();\n\n        _setupContractURI(_contractURI);\n        _setupOwner(_defaultAdmin);\n        _setOperatorRestriction(true);\n\n        _setupRole(DEFAULT_ADMIN_ROLE, _defaultAdmin);\n        _setupRole(_minterRole, _defaultAdmin);\n        _setupRole(_transferRole, _defaultAdmin);\n        _setupRole(_transferRole, address(0));\n\n        _setupPlatformFeeInfo(_platformFeeRecipient, _platformFeeBps);\n        _setupDefaultRoyaltyInfo(_royaltyRecipient, _royaltyBps);\n        _setupPrimarySaleRecipient(_saleRecipient);\n\n        transferRole = _transferRole;\n        minterRole = _minterRole;\n    }\n\n    /*///////////////////////////////////////////////////////////////\n                        ERC 165 / 721 / 2981 logic\n    //////////////////////////////////////////////////////////////*/\n\n    /// @dev Returns the URI for a given tokenId.\n    function tokenURI(uint256 _tokenId) public view override returns (string memory) {\n        (uint256 batchId, ) = _getBatchId(_tokenId);\n        string memory batchUri = _getBaseURI(_tokenId);\n\n        if (isEncryptedBatch(batchId)) {\n            return string(abi.encodePacked(batchUri, \"0\"));\n        } else {\n            return string(abi.encodePacked(batchUri, _tokenId.toString()));\n        }\n    }\n\n    /// @dev See ERC 165\n    function supportsInterface(bytes4 interfaceId)\n        public\n        view\n        virtual\n        override(ERC721AUpgradeable, IERC165)\n        returns (bool)\n    {\n        return super.supportsInterface(interfaceId) || type(IERC2981Upgradeable).interfaceId == interfaceId;\n    }\n\n    /*///////////////////////////////////////////////////////////////\n                        Contract identifiers\n    //////////////////////////////////////////////////////////////*/\n\n    function contractType() external pure returns (bytes32) {\n        return bytes32(\"DropERC721\");\n    }\n\n    function contractVersion() external pure returns (uint8) {\n        return uint8(4);\n    }\n\n    /*///////////////////////////////////////////////////////////////\n                    Lazy minting + delayed-reveal logic\n    //////////////////////////////////////////////////////////////*/\n\n    /**\n     *  @dev Lets an account with `MINTER_ROLE` lazy mint 'n' NFTs.\n     *       The URIs for each token is the provided `_baseURIForTokens` + `{tokenId}`.\n     */\n    function lazyMint(\n        uint256 _amount,\n        string calldata _baseURIForTokens,\n        bytes calldata _data\n    ) public override returns (uint256 batchId) {\n        if (_data.length > 0) {\n            (bytes memory encryptedURI, bytes32 provenanceHash) = abi.decode(_data, (bytes, bytes32));\n            if (encryptedURI.length != 0 && provenanceHash != \"\") {\n                _setEncryptedData(nextTokenIdToLazyMint + _amount, _data);\n            }\n        }\n\n        return super.lazyMint(_amount, _baseURIForTokens, _data);\n    }\n\n    /// @dev Lets an account with `MINTER_ROLE` reveal the URI for a batch of 'delayed-reveal' NFTs.\n    function reveal(uint256 _index, bytes calldata _key)\n        external\n        onlyRole(minterRole)\n        returns (string memory revealedURI)\n    {\n        uint256 batchId = getBatchIdAtIndex(_index);\n        revealedURI = getRevealURI(batchId, _key);\n\n        _setEncryptedData(batchId, \"\");\n        _setBaseURI(batchId, revealedURI);\n\n        emit TokenURIRevealed(_index, revealedURI);\n    }\n\n    /*///////////////////////////////////////////////////////////////\n                        Setter functions\n    //////////////////////////////////////////////////////////////*/\n\n    /// @dev Lets a contract admin set the global maximum supply for collection's NFTs.\n    function setMaxTotalSupply(uint256 _maxTotalSupply) external onlyRole(DEFAULT_ADMIN_ROLE) {\n        maxTotalSupply = _maxTotalSupply;\n        emit MaxTotalSupplyUpdated(_maxTotalSupply);\n    }\n\n    /*///////////////////////////////////////////////////////////////\n                        Internal functions\n    //////////////////////////////////////////////////////////////*/\n\n    /// @dev Runs before every `claim` function call.\n    function _beforeClaim(\n        address,\n        uint256 _quantity,\n        address,\n        uint256,\n        AllowlistProof calldata,\n        bytes memory\n    ) internal view override {\n        require(_currentIndex + _quantity <= nextTokenIdToLazyMint, \"!Tokens\");\n        require(maxTotalSupply == 0 || _currentIndex + _quantity <= maxTotalSupply, \"exceed max total supply.\");\n    }\n\n    /// @dev Collects and distributes the primary sale value of NFTs being claimed.\n    function _collectPriceOnClaim(\n        address _primarySaleRecipient,\n        uint256 _quantityToClaim,\n        address _currency,\n        uint256 _pricePerToken\n    ) internal override {\n        if (_pricePerToken == 0) {\n            return;\n        }\n\n        (address platformFeeRecipient, uint16 platformFeeBps) = getPlatformFeeInfo();\n\n        address saleRecipient = _primarySaleRecipient == address(0) ? primarySaleRecipient() : _primarySaleRecipient;\n\n        uint256 totalPrice = _quantityToClaim * _pricePerToken;\n        uint256 platformFees = (totalPrice * platformFeeBps) / MAX_BPS;\n\n        if (_currency == CurrencyTransferLib.NATIVE_TOKEN) {\n            if (msg.value != totalPrice) {\n                revert(\"!Price\");\n            }\n        }\n\n        CurrencyTransferLib.transferCurrency(_currency, _msgSender(), platformFeeRecipient, platformFees);\n        CurrencyTransferLib.transferCurrency(_currency, _msgSender(), saleRecipient, totalPrice - platformFees);\n    }\n\n    /// @dev Transfers the NFTs being claimed.\n    function _transferTokensOnClaim(address _to, uint256 _quantityBeingClaimed)\n        internal\n        override\n        returns (uint256 startTokenId)\n    {\n        startTokenId = _currentIndex;\n        _safeMint(_to, _quantityBeingClaimed);\n    }\n\n    /// @dev Checks whether platform fee info can be set in the given execution context.\n    function _canSetPlatformFeeInfo() internal view override returns (bool) {\n        return hasRole(DEFAULT_ADMIN_ROLE, _msgSender());\n    }\n\n    /// @dev Checks whether primary sale recipient can be set in the given execution context.\n    function _canSetPrimarySaleRecipient() internal view override returns (bool) {\n        return hasRole(DEFAULT_ADMIN_ROLE, _msgSender());\n    }\n\n    /// @dev Checks whether owner can be set in the given execution context.\n    function _canSetOwner() internal view override returns (bool) {\n        return hasRole(DEFAULT_ADMIN_ROLE, _msgSender());\n    }\n\n    /// @dev Checks whether royalty info can be set in the given execution context.\n    function _canSetRoyaltyInfo() internal view override returns (bool) {\n        return hasRole(DEFAULT_ADMIN_ROLE, _msgSender());\n    }\n\n    /// @dev Checks whether contract metadata can be set in the given execution context.\n    function _canSetContractURI() internal view override returns (bool) {\n        return hasRole(DEFAULT_ADMIN_ROLE, _msgSender());\n    }\n\n    /// @dev Checks whether platform fee info can be set in the given execution context.\n    function _canSetClaimConditions() internal view override returns (bool) {\n        return hasRole(DEFAULT_ADMIN_ROLE, _msgSender());\n    }\n\n    /// @dev Returns whether lazy minting can be done in the given execution context.\n    function _canLazyMint() internal view virtual override returns (bool) {\n        return hasRole(minterRole, _msgSender());\n    }\n\n    /// @dev Returns whether operator restriction can be set in the given execution context.\n    function _canSetOperatorRestriction() internal virtual override returns (bool) {\n        return hasRole(DEFAULT_ADMIN_ROLE, _msgSender());\n    }\n\n    /*///////////////////////////////////////////////////////////////\n                        Miscellaneous\n    //////////////////////////////////////////////////////////////*/\n\n    /**\n     * Returns the total amount of tokens minted in the contract.\n     */\n    function totalMinted() external view returns (uint256) {\n        unchecked {\n            return _currentIndex - _startTokenId();\n        }\n    }\n\n    /// @dev The tokenId of the next NFT that will be minted / lazy minted.\n    function nextTokenIdToMint() external view returns (uint256) {\n        return nextTokenIdToLazyMint;\n    }\n\n    /// @dev The next token ID of the NFT that can be claimed.\n    function nextTokenIdToClaim() external view returns (uint256) {\n        return _currentIndex;\n    }\n\n    /// @dev Burns `tokenId`. See {ERC721-_burn}.\n    function burn(uint256 tokenId) external virtual {\n        // note: ERC721AUpgradeable's `_burn(uint256,bool)` internally checks for token approvals.\n        _burn(tokenId, true);\n    }\n\n    /// @dev See {ERC721-_beforeTokenTransfer}.\n    function _beforeTokenTransfers(\n        address from,\n        address to,\n        uint256 startTokenId,\n        uint256 quantity\n    ) internal virtual override {\n        super._beforeTokenTransfers(from, to, startTokenId, quantity);\n\n        // if transfer is restricted on the contract, we still want to allow burning and minting\n        if (!hasRole(transferRole, address(0)) && from != address(0) && to != address(0)) {\n            if (!hasRole(transferRole, from) && !hasRole(transferRole, to)) {\n                revert(\"!Transfer-Role\");\n            }\n        }\n    }\n\n    /// @dev See {ERC721-setApprovalForAll}.\n    function setApprovalForAll(address operator, bool approved) public override onlyAllowedOperatorApproval(operator) {\n        super.setApprovalForAll(operator, approved);\n    }\n\n    /// @dev See {ERC721-approve}.\n    function approve(address operator, uint256 tokenId) public override onlyAllowedOperatorApproval(operator) {\n        super.approve(operator, tokenId);\n    }\n\n    /// @dev See {ERC721-_transferFrom}.\n    function transferFrom(\n        address from,\n        address to,\n        uint256 tokenId\n    ) public override(ERC721AUpgradeable) onlyAllowedOperator(from) {\n        super.transferFrom(from, to, tokenId);\n    }\n\n    /// @dev See {ERC721-_safeTransferFrom}.\n    function safeTransferFrom(\n        address from,\n        address to,\n        uint256 tokenId\n    ) public override(ERC721AUpgradeable) onlyAllowedOperator(from) {\n        super.safeTransferFrom(from, to, tokenId);\n    }\n\n    /// @dev See {ERC721-_safeTransferFrom}.\n    function safeTransferFrom(\n        address from,\n        address to,\n        uint256 tokenId,\n        bytes memory data\n    ) public override(ERC721AUpgradeable) onlyAllowedOperator(from) {\n        super.safeTransferFrom(from, to, tokenId, data);\n    }\n\n    function _dropMsgSender() internal view virtual override returns (address) {\n        return _msgSender();\n    }\n\n    function _msgSender()\n        internal\n        view\n        virtual\n        override(ContextUpgradeable, ERC2771ContextUpgradeable)\n        returns (address sender)\n    {\n        return ERC2771ContextUpgradeable._msgSender();\n    }\n\n    function _msgData()\n        internal\n        view\n        virtual\n        override(ContextUpgradeable, ERC2771ContextUpgradeable)\n        returns (bytes calldata)\n    {\n        return ERC2771ContextUpgradeable._msgData();\n    }\n}\n",
  "sourcePath": "/Users/vfadeev/Work/rarible/thirdweb-query-contracts/contracts/drop/DropERC721.sol",
  "compiler": {
    "name": "solc",
    "version": "0.8.12+commit.f00d7308.Emscripten.clang"
  },
  "schemaVersion": "3.4.3",
  "updatedAt": "2023-09-06T16:00:53.438Z",
  "devdoc": {
    "events": {
      "MaxTotalSupplyUpdated(uint256)": {
        "details": "Emitted when the global max supply of tokens is updated."
      }
    },
    "kind": "dev",
    "methods": {
      "approve(address,uint256)": {
        "details": "See {ERC721-approve}."
      },
      "balanceOf(address)": {
        "details": "See {IERC721-balanceOf}."
      },
      "burn(uint256)": {
        "details": "Burns `tokenId`. See {ERC721-_burn}."
      },
      "claim(address,uint256,address,uint256,(bytes32[],uint256,uint256,address),bytes)": {
        "details": "Lets an account claim tokens."
      },
      "encryptDecrypt(bytes,bytes)": {
        "details": "Encrypt/decrypt given `data` with `key`. Uses inline assembly.                  See: https://ethereum.stackexchange.com/questions/69825/decrypt-message-on-chain",
        "params": {
          "data": "Bytes of data to encrypt/decrypt.",
          "key": "Secure key used by caller for encryption/decryption."
        },
        "returns": {
          "result": " Output after encryption/decryption of given data."
        }
      },
      "getActiveClaimConditionId()": {
        "details": "At any given moment, returns the uid for the active claim condition."
      },
      "getApproved(uint256)": {
        "details": "See {IERC721-getApproved}."
      },
      "getBaseURICount()": {
        "details": "Each batch of tokens has an in ID and an associated `baseURI`.                  See {batchIds}."
      },
      "getBatchIdAtIndex(uint256)": {
        "details": "See {getBaseURICount}.",
        "params": {
          "_index": "ID of a token."
        }
      },
      "getClaimConditionById(uint256)": {
        "details": "Returns the claim condition at the given uid."
      },
      "getPlatformFeeInfo()": {
        "details": "Returns the platform fee recipient and bps."
      },
      "getRevealURI(uint256,bytes)": {
        "details": "Reveal encrypted base URI for `_batchId` with caller/admin's `_key` used for encryption.                      Reverts if there's no encrypted URI for `_batchId`.                      See {encryptDecrypt}.",
        "params": {
          "_batchId": "ID of the batch for which URI is being revealed.",
          "_key": "Secure key used by caller/admin for encryption of baseURI."
        },
        "returns": {
          "revealedURI": "Decrypted base URI."
        }
      },
      "getRoleAdmin(bytes32)": {
        "details": "See {grantRole} and {revokeRole}.                  To change a role's admin, use {_setRoleAdmin}.",
        "params": {
          "role": "keccak256 hash of the role. e.g. keccak256(\"TRANSFER_ROLE\")"
        }
      },
      "getRoleMember(bytes32,uint256)": {
        "details": "Returns `member` who has `role`, at `index` of role-members list.                  See struct {RoleMembers}, and mapping {roleMembers}",
        "params": {
          "index": "Index in list of current members for the role.",
          "role": "keccak256 hash of the role. e.g. keccak256(\"TRANSFER_ROLE\")"
        },
        "returns": {
          "member": " Address of account that has `role`"
        }
      },
      "getRoleMemberCount(bytes32)": {
        "details": "Returns `count` of accounts that have `role`.                  See struct {RoleMembers}, and mapping {roleMembers}",
        "params": {
          "role": "keccak256 hash of the role. e.g. keccak256(\"TRANSFER_ROLE\")"
        },
        "returns": {
          "count": "  Total number of accounts that have `role`"
        }
      },
      "getRoyaltyInfoForToken(uint256)": {
        "details": "Returns royalty recipient and bps for `_tokenId`.",
        "params": {
          "_tokenId": "The tokenID of the NFT for which to query royalty info."
        }
      },
      "getSupplyClaimedByWallet(uint256,address)": {
        "details": "Returns the supply claimed by claimer for a given conditionId."
      },
      "grantRole(bytes32,address)": {
        "details": "Caller must have admin role for the `role`.                  Emits {RoleGranted Event}.",
        "params": {
          "account": "Address of the account to which the role is being granted.",
          "role": "keccak256 hash of the role. e.g. keccak256(\"TRANSFER_ROLE\")"
        }
      },
      "hasRole(bytes32,address)": {
        "details": "Returns `true` if `account` has been granted `role`.",
        "params": {
          "account": "Address of the account for which the role is being checked.",
          "role": "keccak256 hash of the role. e.g. keccak256(\"TRANSFER_ROLE\")"
        }
      },
      "hasRoleWithSwitch(bytes32,address)": {
        "details": "Returns `true` if `account` has been granted `role`.                  Role restrictions can be swtiched on and off:                      - If address(0) has ROLE, then the ROLE restrictions                        don't apply.                      - If address(0) does not have ROLE, then the ROLE                        restrictions will apply.",
        "params": {
          "account": "Address of the account for which the role is being checked.",
          "role": "keccak256 hash of the role. e.g. keccak256(\"TRANSFER_ROLE\")"
        }
      },
      "initialize(address,string,string,string,address[],address,address,uint128,uint128,address)": {
        "details": "Initiliazes the contract, like a constructor."
      },
      "isApprovedForAll(address,address)": {
        "details": "See {IERC721-isApprovedForAll}."
      },
      "isEncryptedBatch(uint256)": {
        "details": "Returns `true` if `_batchId`'s base URI is encrypted.",
        "params": {
          "_batchId": "ID of a batch of NFTs."
        }
      },
      "lazyMint(uint256,string,bytes)": {
        "details": "Lets an account with `MINTER_ROLE` lazy mint 'n' NFTs.       The URIs for each token is the provided `_baseURIForTokens` + `{tokenId}`."
      },
      "multicall(bytes[])": {
        "details": "Receives and executes a batch of function calls on this contract."
      },
      "name()": {
        "details": "See {IERC721Metadata-name}."
      },
      "nextTokenIdToClaim()": {
        "details": "The next token ID of the NFT that can be claimed."
      },
      "nextTokenIdToMint()": {
        "details": "The tokenId of the next NFT that will be minted / lazy minted."
      },
      "ownerOf(uint256)": {
        "details": "See {IERC721-ownerOf}."
      },
      "primarySaleRecipient()": {
        "details": "Returns primary sale recipient address."
      },
      "renounceRole(bytes32,address)": {
        "details": "Caller must have the `role`, with caller being the same as `account`.                  Emits {RoleRevoked Event}.",
        "params": {
          "account": "Address of the account from which the role is being revoked.",
          "role": "keccak256 hash of the role. e.g. keccak256(\"TRANSFER_ROLE\")"
        }
      },
      "reveal(uint256,bytes)": {
        "details": "Lets an account with `MINTER_ROLE` reveal the URI for a batch of 'delayed-reveal' NFTs."
      },
      "revokeRole(bytes32,address)": {
        "details": "Caller must have admin role for the `role`.                  Emits {RoleRevoked Event}.",
        "params": {
          "account": "Address of the account from which the role is being revoked.",
          "role": "keccak256 hash of the role. e.g. keccak256(\"TRANSFER_ROLE\")"
        }
      },
      "royaltyInfo(uint256,uint256)": {
        "details": "Returns royalty amount and recipient for `tokenId` and `salePrice`.",
        "params": {
          "salePrice": "Sale price of the token.",
          "tokenId": "The tokenID of the NFT for which to query royalty info."
        },
        "returns": {
          "receiver": "       Address of royalty recipient account.",
          "royaltyAmount": "  Royalty amount calculated at current royaltyBps value."
        }
      },
      "safeTransferFrom(address,address,uint256)": {
        "details": "See {ERC721-_safeTransferFrom}."
      },
      "safeTransferFrom(address,address,uint256,bytes)": {
        "details": "See {ERC721-_safeTransferFrom}."
      },
      "setApprovalForAll(address,bool)": {
        "details": "See {ERC721-setApprovalForAll}."
      },
      "setClaimConditions((uint256,uint256,uint256,uint256,bytes32,uint256,address,string)[],bool)": {
        "details": "Lets a contract admin set claim conditions."
      },
      "setContractURI(string)": {
        "details": "Caller should be authorized to setup contractURI, e.g. contract admin.                  See {_canSetContractURI}.                  Emits {ContractURIUpdated Event}.",
        "params": {
          "_uri": "keccak256 hash of the role. e.g. keccak256(\"TRANSFER_ROLE\")"
        }
      },
      "setDefaultRoyaltyInfo(address,uint256)": {
        "details": "Caller should be authorized to set royalty info.                  See {_canSetRoyaltyInfo}.                  Emits {DefaultRoyalty Event}; See {_setupDefaultRoyaltyInfo}.",
        "params": {
          "_royaltyBps": "Updated royalty bps.",
          "_royaltyRecipient": "Address to be set as default royalty recipient."
        }
      },
      "setMaxTotalSupply(uint256)": {
        "details": "Lets a contract admin set the global maximum supply for collection's NFTs."
      },
      "setOwner(address)": {
        "params": {
          "_newOwner": "The address to set as the new owner of the contract."
        }
      },
      "setPlatformFeeInfo(address,uint256)": {
        "details": "Caller should be authorized to set platform fee info.                  See {_canSetPlatformFeeInfo}.                  Emits {PlatformFeeInfoUpdated Event}; See {_setupPlatformFeeInfo}.",
        "params": {
          "_platformFeeBps": "Updated platformFeeBps.",
          "_platformFeeRecipient": "Address to be set as new platformFeeRecipient."
        }
      },
      "setPrimarySaleRecipient(address)": {
        "details": "Caller should be authorized to set primary sales info.                  See {_canSetPrimarySaleRecipient}.                  Emits {PrimarySaleRecipientUpdated Event}; See {_setupPrimarySaleRecipient}.",
        "params": {
          "_saleRecipient": "Address to be set as new recipient of primary sales."
        }
      },
      "setRoyaltyInfoForToken(uint256,address,uint256)": {
        "details": "Sets royalty info for `_tokenId`. Caller should be authorized to set royalty info.                  See {_canSetRoyaltyInfo}.                  Emits {RoyaltyForToken Event}; See {_setupRoyaltyInfoForToken}.",
        "params": {
          "_bps": "Updated royalty bps for the token Id.",
          "_recipient": "Address to be set as royalty recipient for given token Id."
        }
      },
      "supportsInterface(bytes4)": {
        "details": "See ERC 165"
      },
      "symbol()": {
        "details": "See {IERC721Metadata-symbol}."
      },
      "tokenURI(uint256)": {
        "details": "Returns the URI for a given tokenId."
      },
      "totalSupply()": {
        "details": "Burned tokens are calculated here, use _totalMinted() if you want to count just minted tokens."
      },
      "transferFrom(address,address,uint256)": {
        "details": "See {ERC721-_transferFrom}."
      },
      "verifyClaim(uint256,address,uint256,address,uint256,(bytes32[],uint256,uint256,address))": {
        "details": "Checks a request to claim NFTs against the active claim condition's criteria."
      }
    },
    "stateVariables": {
      "MAX_BPS": {
        "details": "Max bps in the thirdweb system."
      },
      "maxTotalSupply": {
        "details": "Global max total supply of NFTs."
      },
      "minterRole": {
        "details": "Only MINTER_ROLE holders can sign off on `MintRequest`s and lazy mint tokens."
      },
      "transferRole": {
        "details": "Only transfers to or from TRANSFER_ROLE holders are valid, when transfers are restricted."
      }
    },
    "version": 1
  },
  "userdoc": {
    "errors": {
      "ApprovalCallerNotOwnerNorApproved()": [
        {
          "notice": "The caller must own the token or be an approved operator."
        }
      ],
      "ApprovalQueryForNonexistentToken()": [
        {
          "notice": "The token does not exist."
        }
      ],
      "ApprovalToCurrentOwner()": [
        {
          "notice": "The caller cannot approve to the current owner."
        }
      ],
      "ApproveToCaller()": [
        {
          "notice": "The caller cannot approve to their own address."
        }
      ],
      "BalanceQueryForZeroAddress()": [
        {
          "notice": "Cannot query the balance for the zero address."
        }
      ],
      "MintToZeroAddress()": [
        {
          "notice": "Cannot mint to the zero address."
        }
      ],
      "MintZeroQuantity()": [
        {
          "notice": "The quantity of tokens minted must be more than zero."
        }
      ],
      "OwnerQueryForNonexistentToken()": [
        {
          "notice": "The token does not exist."
        }
      ],
      "TransferCallerNotOwnerNorApproved()": [
        {
          "notice": "The caller must own the token or be an approved operator."
        }
      ],
      "TransferFromIncorrectOwner()": [
        {
          "notice": "The token must be owned by `from`."
        }
      ],
      "TransferToNonERC721ReceiverImplementer()": [
        {
          "notice": "Cannot safely transfer to a contract that does not implement the ERC721Receiver interface."
        }
      ],
      "TransferToZeroAddress()": [
        {
          "notice": "Cannot transfer to the zero address."
        }
      ],
      "URIQueryForNonexistentToken()": [
        {
          "notice": "The token does not exist."
        }
      ]
    },
    "events": {
      "ClaimConditionsUpdated((uint256,uint256,uint256,uint256,bytes32,uint256,address,string)[],bool)": {
        "notice": "Emitted when the contract's claim conditions are updated."
      },
      "TokensClaimed(uint256,address,address,uint256,uint256)": {
        "notice": "Emitted when tokens are claimed via `claim`."
      }
    },
    "kind": "user",
    "methods": {
      "contractURI()": {
        "notice": "Returns the contract metadata URI."
      },
      "encryptDecrypt(bytes,bytes)": {
        "notice": "Encrypt/decrypt data on chain."
      },
      "getBaseURICount()": {
        "notice": "Returns the count of batches of NFTs."
      },
      "getBatchIdAtIndex(uint256)": {
        "notice": "Returns the ID for the batch of tokens the given tokenId belongs to."
      },
      "getDefaultRoyaltyInfo()": {
        "notice": "Returns the defualt royalty recipient and BPS for this contract's NFTs."
      },
      "getRevealURI(uint256,bytes)": {
        "notice": "Returns revealed URI for a batch of NFTs."
      },
      "getRoleAdmin(bytes32)": {
        "notice": "Returns the admin role that controls the specified role."
      },
      "getRoleMember(bytes32,uint256)": {
        "notice": "Returns the role-member from a list of members for a role,                  at a given index."
      },
      "getRoleMemberCount(bytes32)": {
        "notice": "Returns total number of accounts that have a role."
      },
      "getRoyaltyInfoForToken(uint256)": {
        "notice": "View royalty info for a given token."
      },
      "grantRole(bytes32,address)": {
        "notice": "Grants a role to an account, if not previously granted."
      },
      "hasRole(bytes32,address)": {
        "notice": "Checks whether an account has a particular role."
      },
      "hasRoleWithSwitch(bytes32,address)": {
        "notice": "Checks whether an account has a particular role;                  role restrictions can be swtiched on and off."
      },
      "isEncryptedBatch(uint256)": {
        "notice": "Returns whether the relvant batch of NFTs is subject to a delayed reveal."
      },
      "owner()": {
        "notice": "Returns the owner of the contract."
      },
      "renounceRole(bytes32,address)": {
        "notice": "Revokes role from the account."
      },
      "revokeRole(bytes32,address)": {
        "notice": "Revokes role from an account."
      },
      "royaltyInfo(uint256,uint256)": {
        "notice": "View royalty info for a given token and sale price."
      },
      "setContractURI(string)": {
        "notice": "Lets a contract admin set the URI for contract-level metadata."
      },
      "setDefaultRoyaltyInfo(address,uint256)": {
        "notice": "Updates default royalty recipient and bps."
      },
      "setOwner(address)": {
        "notice": "Lets an authorized wallet set a new owner for the contract."
      },
      "setPlatformFeeInfo(address,uint256)": {
        "notice": "Updates the platform fee recipient and bps."
      },
      "setPrimarySaleRecipient(address)": {
        "notice": "Updates primary sale recipient."
      },
      "setRoyaltyInfoForToken(uint256,address,uint256)": {
        "notice": "Updates default royalty recipient and bps for a particular token."
      },
      "totalMinted()": {
        "notice": "Returns the total amount of tokens minted in the contract."
      }
    },
    "version": 1
  }
}