{
  "contractName": "DropERC721Reader",
  "abi": [
    {
      "inputs": [],
      "stateMutability": "nonpayable",
      "type": "constructor"
    },
    {
      "inputs": [],
      "name": "NATIVE1",
      "outputs": [
        {
          "internalType": "address",
          "name": "",
          "type": "address"
        }
      ],
      "stateMutability": "view",
      "type": "function"
    },
    {
      "inputs": [],
      "name": "NATIVE2",
      "outputs": [
        {
          "internalType": "address",
          "name": "",
          "type": "address"
        }
      ],
      "stateMutability": "view",
      "type": "function"
    },
    {
      "inputs": [
        {
          "internalType": "address",
          "name": "_dropERC721",
          "type": "address"
        },
        {
          "internalType": "address",
          "name": "_claimer",
          "type": "address"
        }
      ],
      "name": "getAllData",
      "outputs": [
        {
          "internalType": "uint256",
          "name": "activeClaimConditionIndex",
          "type": "uint256"
        },
        {
          "components": [
            {
              "internalType": "uint256",
              "name": "startTimestamp",
              "type": "uint256"
            },
            {
              "internalType": "uint256",
              "name": "maxClaimableSupply",
              "type": "uint256"
            },
            {
              "internalType": "uint256",
              "name": "supplyClaimed",
              "type": "uint256"
            },
            {
              "internalType": "uint256",
              "name": "quantityLimitPerWallet",
              "type": "uint256"
            },
            {
              "internalType": "bytes32",
              "name": "merkleRoot",
              "type": "bytes32"
            },
            {
              "internalType": "uint256",
              "name": "pricePerToken",
              "type": "uint256"
            },
            {
              "internalType": "address",
              "name": "currency",
              "type": "address"
            },
            {
              "internalType": "string",
              "name": "metadata",
              "type": "string"
            }
          ],
          "internalType": "struct IClaimCondition.ClaimCondition[]",
          "name": "conditions",
          "type": "tuple[]"
        },
        {
          "components": [
            {
              "internalType": "uint256",
              "name": "totalMinted",
              "type": "uint256"
            },
            {
              "internalType": "uint256",
              "name": "claimedByUser",
              "type": "uint256"
            },
            {
              "internalType": "uint256",
              "name": "totalSupply",
              "type": "uint256"
            },
            {
              "internalType": "uint256",
              "name": "maxTotalSupply",
              "type": "uint256"
            },
            {
              "internalType": "uint256",
              "name": "nextTokenIdToMint",
              "type": "uint256"
            },
            {
              "internalType": "uint256",
              "name": "nextTokenIdToClaim",
              "type": "uint256"
            },
            {
              "internalType": "string",
              "name": "name",
              "type": "string"
            },
            {
              "internalType": "string",
              "name": "symbol",
              "type": "string"
            },
            {
              "internalType": "string",
              "name": "contractURI",
              "type": "string"
            },
            {
              "internalType": "uint256",
              "name": "baseURICount",
              "type": "uint256"
            },
            {
              "internalType": "uint256",
              "name": "userBalance",
              "type": "uint256"
            },
            {
              "internalType": "uint256",
              "name": "blockTimeStamp",
              "type": "uint256"
            },
            {
              "components": [
                {
                  "internalType": "address",
                  "name": "recipient",
                  "type": "address"
                },
                {
                  "internalType": "uint256",
                  "name": "bps",
                  "type": "uint256"
                }
              ],
              "internalType": "struct DropERC721Reader.FeeData",
              "name": "defaultRoyaltyInfo",
              "type": "tuple"
            },
            {
              "components": [
                {
                  "internalType": "address",
                  "name": "recipient",
                  "type": "address"
                },
                {
                  "internalType": "uint256",
                  "name": "bps",
                  "type": "uint256"
                }
              ],
              "internalType": "struct DropERC721Reader.FeeData",
              "name": "platformFeeInfo",
              "type": "tuple"
            }
          ],
          "internalType": "struct DropERC721Reader.GlobalData",
          "name": "globalData",
          "type": "tuple"
        }
      ],
      "stateMutability": "view",
      "type": "function"
    }
  ],
  "bytecode": "0x608060405234801561001057600080fd5b50611649806100206000396000f3fe608060405234801561001057600080fd5b50600436106100415760003560e01c8063362dbafb14610046578063ab8a4bef14610064578063d636cc5d14610096575b600080fd5b61004e6100b4565b60405161005b9190610c86565b60405180910390f35b61007e60048036038101906100799190610ce1565b6100cc565b60405161008d939291906110e7565b60405180910390f35b61009e610b37565b6040516100ab9190610c86565b60405180910390f35b73eeeeeeeeeeeeeeeeeeeeeeeeeeeeeeeeeeeeeeee81565b600060606100d8610b3c565b60008590506000808273ffffffffffffffffffffffffffffffffffffffff1663d637ed596040518163ffffffff1660e01b81526004016040805180830381865afa15801561012a573d6000803e3d6000fd5b505050506040513d601f19601f8201168201806040525081019061014e9190611158565b9150915060008082146102ee578373ffffffffffffffffffffffffffffffffffffffff1663c68907de6040518163ffffffff1660e01b8152600401602060405180830381865afa9250505080156101c357506040513d601f19601f820116820180604052508101906101c09190611198565b60015b6101d057600096506101d5565b809750505b8167ffffffffffffffff8111156101ef576101ee6111c5565b5b60405190808252806020026020018201604052801561022857816020015b610215610bb7565b81526020019060019003908161020d5790505b50955060005b828110156102ec5760008573ffffffffffffffffffffffffffffffffffffffff16636f8934f4836040518263ffffffff1660e01b815260040161027191906111f4565b600060405180830381865afa15801561028e573d6000803e3d6000fd5b505050506040513d6000823e3d601f19601f820116820180604052508101906102b79190611437565b9050808883815181106102cd576102cc611480565b5b60200260200101819052505080806102e4906114de565b91505061022e565b505b6102f6610b3c565b6000831115610539578473ffffffffffffffffffffffffffffffffffffffff1663ad1eefc5898b6040518363ffffffff1660e01b815260040161033a929190611527565b602060405180830381865afa158015610357573d6000803e3d6000fd5b505050506040513d601f19601f8201168201806040525081019061037b9190611198565b915060008573ffffffffffffffffffffffffffffffffffffffff16636f8934f48a6040518263ffffffff1660e01b81526004016103b891906111f4565b600060405180830381865afa1580156103d5573d6000803e3d6000fd5b505050506040513d6000823e3d601f19601f820116820180604052508101906103fe9190611437565b9050600073ffffffffffffffffffffffffffffffffffffffff168160c0015173ffffffffffffffffffffffffffffffffffffffff161480610482575073eeeeeeeeeeeeeeeeeeeeeeeeeeeeeeeeeeeeeeee73ffffffffffffffffffffffffffffffffffffffff168160c0015173ffffffffffffffffffffffffffffffffffffffff16145b156104ae578973ffffffffffffffffffffffffffffffffffffffff163182610140018181525050610537565b8060c0015173ffffffffffffffffffffffffffffffffffffffff166370a082318b6040518263ffffffff1660e01b81526004016104eb9190610c86565b602060405180830381865afa158015610508573d6000803e3d6000fd5b505050506040513d601f19601f8201168201806040525081019061052c9190611198565b826101400181815250505b505b8473ffffffffffffffffffffffffffffffffffffffff1663a2309ff86040518163ffffffff1660e01b8152600401602060405180830381865afa158015610584573d6000803e3d6000fd5b505050506040513d601f19601f820116820180604052508101906105a89190611198565b816000018181525050818160200181815250508473ffffffffffffffffffffffffffffffffffffffff166318160ddd6040518163ffffffff1660e01b8152600401602060405180830381865afa158015610606573d6000803e3d6000fd5b505050506040513d601f19601f8201168201806040525081019061062a9190611198565b8160400181815250508473ffffffffffffffffffffffffffffffffffffffff16632ab4d0526040518163ffffffff1660e01b8152600401602060405180830381865afa15801561067e573d6000803e3d6000fd5b505050506040513d601f19601f820116820180604052508101906106a29190611198565b8160600181815250508473ffffffffffffffffffffffffffffffffffffffff16633b1475a76040518163ffffffff1660e01b8152600401602060405180830381865afa1580156106f6573d6000803e3d6000fd5b505050506040513d601f19601f8201168201806040525081019061071a9190611198565b8160800181815250508473ffffffffffffffffffffffffffffffffffffffff1663acd083f86040518163ffffffff1660e01b8152600401602060405180830381865afa15801561076e573d6000803e3d6000fd5b505050506040513d601f19601f820116820180604052508101906107929190611198565b8160a00181815250508473ffffffffffffffffffffffffffffffffffffffff166306fdde036040518163ffffffff1660e01b8152600401600060405180830381865afa1580156107e6573d6000803e3d6000fd5b505050506040513d6000823e3d601f19601f8201168201806040525081019061080f9190611550565b8160c001819052508473ffffffffffffffffffffffffffffffffffffffff166395d89b416040518163ffffffff1660e01b8152600401600060405180830381865afa158015610862573d6000803e3d6000fd5b505050506040513d6000823e3d601f19601f8201168201806040525081019061088b9190611550565b8160e001819052508473ffffffffffffffffffffffffffffffffffffffff1663e8a3d4856040518163ffffffff1660e01b8152600401600060405180830381865afa1580156108de573d6000803e3d6000fd5b505050506040513d6000823e3d601f19601f820116820180604052508101906109079190611550565b8161010001819052508473ffffffffffffffffffffffffffffffffffffffff166363b45e2d6040518163ffffffff1660e01b8152600401602060405180830381865afa15801561095b573d6000803e3d6000fd5b505050506040513d601f19601f8201168201806040525081019061097f9190611198565b8161012001818152505042816101600181815250506000808673ffffffffffffffffffffffffffffffffffffffff1663b24f2d396040518163ffffffff1660e01b81526004016040805180830381865afa1580156109e1573d6000803e3d6000fd5b505050506040513d601f19601f82011682018060405250810190610a0591906115d3565b91509150818361018001516000019073ffffffffffffffffffffffffffffffffffffffff16908173ffffffffffffffffffffffffffffffffffffffff16815250508061ffff1683610180015160200181815250506000808873ffffffffffffffffffffffffffffffffffffffff1663d45573f66040518163ffffffff1660e01b81526004016040805180830381865afa158015610aa6573d6000803e3d6000fd5b505050506040513d601f19601f82011682018060405250810190610aca91906115d3565b9150915081856101a001516000019073ffffffffffffffffffffffffffffffffffffffff16908173ffffffffffffffffffffffffffffffffffffffff16815250508061ffff16856101a0015160200181815250508b8b869b509b509b505050505050505050509250925092565b600081565b604051806101c00160405280600081526020016000815260200160008152602001600081526020016000815260200160008152602001606081526020016060815260200160608152602001600081526020016000815260200160008152602001610ba4610c15565b8152602001610bb1610c15565b81525090565b604051806101000160405280600081526020016000815260200160008152602001600081526020016000801916815260200160008152602001600073ffffffffffffffffffffffffffffffffffffffff168152602001606081525090565b6040518060400160405280600073ffffffffffffffffffffffffffffffffffffffff168152602001600081525090565b600073ffffffffffffffffffffffffffffffffffffffff82169050919050565b6000610c7082610c45565b9050919050565b610c8081610c65565b82525050565b6000602082019050610c9b6000830184610c77565b92915050565b6000604051905090565b600080fd5b600080fd5b610cbe81610c65565b8114610cc957600080fd5b50565b600081359050610cdb81610cb5565b92915050565b60008060408385031215610cf857610cf7610cab565b5b6000610d0685828601610ccc565b9250506020610d1785828601610ccc565b9150509250929050565b6000819050919050565b610d3481610d21565b82525050565b600081519050919050565b600082825260208201905092915050565b6000819050602082019050919050565b610d6f81610d21565b82525050565b6000819050919050565b610d8881610d75565b82525050565b610d9781610c65565b82525050565b600081519050919050565b600082825260208201905092915050565b60005b83811015610dd7578082015181840152602081019050610dbc565b83811115610de6576000848401525b50505050565b6000601f19601f8301169050919050565b6000610e0882610d9d565b610e128185610da8565b9350610e22818560208601610db9565b610e2b81610dec565b840191505092915050565b600061010083016000830151610e4f6000860182610d66565b506020830151610e626020860182610d66565b506040830151610e756040860182610d66565b506060830151610e886060860182610d66565b506080830151610e9b6080860182610d7f565b5060a0830151610eae60a0860182610d66565b5060c0830151610ec160c0860182610d8e565b5060e083015184820360e0860152610ed98282610dfd565b9150508091505092915050565b6000610ef28383610e36565b905092915050565b6000602082019050919050565b6000610f1282610d3a565b610f1c8185610d45565b935083602082028501610f2e85610d56565b8060005b85811015610f6a5784840389528151610f4b8582610ee6565b9450610f5683610efa565b925060208a01995050600181019050610f32565b50829750879550505050505092915050565b604082016000820151610f926000850182610d8e565b506020820151610fa56020850182610d66565b50505050565b600061020083016000830151610fc46000860182610d66565b506020830151610fd76020860182610d66565b506040830151610fea6040860182610d66565b506060830151610ffd6060860182610d66565b5060808301516110106080860182610d66565b5060a083015161102360a0860182610d66565b5060c083015184820360c086015261103b8282610dfd565b91505060e083015184820360e08601526110558282610dfd565b9150506101008301518482036101008601526110718282610dfd565b915050610120830151611088610120860182610d66565b5061014083015161109d610140860182610d66565b506101608301516110b2610160860182610d66565b506101808301516110c7610180860182610f7c565b506101a08301516110dc6101c0860182610f7c565b508091505092915050565b60006060820190506110fc6000830186610d2b565b818103602083015261110e8185610f07565b905081810360408301526111228184610fab565b9050949350505050565b61113581610d21565b811461114057600080fd5b50565b6000815190506111528161112c565b92915050565b6000806040838503121561116f5761116e610cab565b5b600061117d85828601611143565b925050602061118e85828601611143565b9150509250929050565b6000602082840312156111ae576111ad610cab565b5b60006111bc84828501611143565b91505092915050565b7f4e487b7100000000000000000000000000000000000000000000000000000000600052604160045260246000fd5b60006020820190506112096000830184610d2b565b92915050565b600080fd5b61121d82610dec565b810181811067ffffffffffffffff8211171561123c5761123b6111c5565b5b80604052505050565b600061124f610ca1565b905061125b8282611214565b919050565b600080fd5b61126e81610d75565b811461127957600080fd5b50565b60008151905061128b81611265565b92915050565b6000815190506112a081610cb5565b92915050565b600080fd5b600080fd5b600067ffffffffffffffff8211156112cb576112ca6111c5565b5b6112d482610dec565b9050602081019050919050565b60006112f46112ef846112b0565b611245565b9050828152602081018484840111156113105761130f6112ab565b5b61131b848285610db9565b509392505050565b600082601f830112611338576113376112a6565b5b81516113488482602086016112e1565b91505092915050565b600061010082840312156113685761136761120f565b5b611373610100611245565b9050600061138384828501611143565b600083015250602061139784828501611143565b60208301525060406113ab84828501611143565b60408301525060606113bf84828501611143565b60608301525060806113d38482850161127c565b60808301525060a06113e784828501611143565b60a08301525060c06113fb84828501611291565b60c08301525060e082015167ffffffffffffffff81111561141f5761141e611260565b5b61142b84828501611323565b60e08301525092915050565b60006020828403121561144d5761144c610cab565b5b600082015167ffffffffffffffff81111561146b5761146a610cb0565b5b61147784828501611351565b91505092915050565b7f4e487b7100000000000000000000000000000000000000000000000000000000600052603260045260246000fd5b7f4e487b7100000000000000000000000000000000000000000000000000000000600052601160045260246000fd5b60006114e982610d21565b91507fffffffffffffffffffffffffffffffffffffffffffffffffffffffffffffffff82141561151c5761151b6114af565b5b600182019050919050565b600060408201905061153c6000830185610d2b565b6115496020830184610c77565b9392505050565b60006020828403121561156657611565610cab565b5b600082015167ffffffffffffffff81111561158457611583610cb0565b5b61159084828501611323565b91505092915050565b600061ffff82169050919050565b6115b081611599565b81146115bb57600080fd5b50565b6000815190506115cd816115a7565b92915050565b600080604083850312156115ea576115e9610cab565b5b60006115f885828601611291565b9250506020611609858286016115be565b915050925092905056fea2646970667358221220998b9f4aee0d566a209d5bbb8fbafae5c1780d07c62c0988580dde1403c22a7964736f6c634300080c0033",
  "immutableReferences": {},
  "source": "// SPDX-License-Identifier: Apache-2.0\npragma solidity ^0.8.11;\n\n/// @author rarible\n\n//    /$$$$$$$                      /$$ /$$       /$$\n//    | $$__  $$                    |__/| $$      | $$\n//    | $$  \\ $$  /$$$$$$   /$$$$$$  /$$| $$$$$$$ | $$  /$$$$$$\n//    | $$$$$$$/ |____  $$ /$$__  $$| $$| $$__  $$| $$ /$$__  $$\n//    | $$__  $$  /$$$$$$$| $$  \\__/| $$| $$  \\ $$| $$| $$$$$$$$\n//    | $$  \\ $$ /$$__  $$| $$      | $$| $$  | $$| $$| $$_____/\n//    | $$  | $$|  $$$$$$$| $$      | $$| $$$$$$$/| $$|  $$$$$$$\n//    |__/  |__/ \\_______/|__/      |__/|_______/ |__/ \\_______/\n\n\n//  ==========  External imports    ==========\n\nimport \"@openzeppelin/contracts-upgradeable/utils/MulticallUpgradeable.sol\";\nimport \"@openzeppelin/contracts-upgradeable/utils/StringsUpgradeable.sol\";\nimport \"@openzeppelin/contracts-upgradeable/interfaces/IERC2981Upgradeable.sol\";\n\nimport \"../eip/ERC721AVirtualApproveUpgradeable.sol\";\n\n//  ==========  Internal imports    ==========\n\nimport \"../openzeppelin-presets/metatx/ERC2771ContextUpgradeable.sol\";\nimport \"../lib/CurrencyTransferLib.sol\";\n\n//  ==========  Features    ==========\n\nimport \"../extension/ContractMetadata.sol\";\nimport \"../extension/PlatformFee.sol\";\nimport \"../extension/Royalty.sol\";\nimport \"../extension/PrimarySale.sol\";\nimport \"../extension/Ownable.sol\";\nimport \"../extension/DelayedReveal.sol\";\nimport \"../extension/LazyMint.sol\";\nimport \"../extension/PermissionsEnumerable.sol\";\nimport \"../extension/Drop.sol\";\nimport \"../extension/interface/IClaimCondition.sol\";\nimport \"../extension/interface/IClaimConditionMultiPhase.sol\";\n\n// OpenSea operator filter\nimport \"../extension/DefaultOperatorFiltererUpgradeable.sol\";\n\nimport \"../drop/DropERC721.sol\";\nimport \"hardhat/console.sol\";\nimport \"../eip/interface/IERC20.sol\";\n\ncontract DropERC721Reader {\n\n    struct FeeData {\n        address recipient;\n        uint256 bps;\n    }\n\n    struct GlobalData {\n        uint256 totalMinted;\n        uint256 claimedByUser;\n        uint256 totalSupply;\n        uint256 maxTotalSupply;\n        uint256 nextTokenIdToMint;\n        uint256 nextTokenIdToClaim;\n        string name;\n        string symbol;\n        string contractURI;\n        uint256 baseURICount;\n        uint256 userBalance;\n        uint256 blockTimeStamp;\n        FeeData defaultRoyaltyInfo;\n        FeeData platformFeeInfo;\n    }\n\n    address public constant NATIVE1 = 0x0000000000000000000000000000000000000000;\n    address public constant NATIVE2 = 0xEeeeeEeeeEeEeeEeEeEeeEEEeeeeEeeeeeeeEEeE;\n\n    constructor() {\n\n    }\n\n    function getAllData(\n        address _dropERC721,\n        address _claimer\n    ) public view returns (\n        uint256 activeClaimConditionIndex,\n        IClaimCondition.ClaimCondition[] memory conditions,\n        GlobalData memory globalData\n        ) {\n        DropERC721 drop = DropERC721(_dropERC721);\n\n        (uint256 startConditionIndex,uint256 stopConditionIndex)  = drop.claimCondition();\n        uint256 _claimedByUser = 0;\n        if(stopConditionIndex != 0) {\n            try drop.getActiveClaimConditionId() returns (uint256 _activeClaimConditionIndex) {\n                activeClaimConditionIndex = _activeClaimConditionIndex;\n            } catch {\n                activeClaimConditionIndex = 0;\n            }\n            conditions = new IClaimCondition.ClaimCondition[](stopConditionIndex);\n            \n            for (uint i = 0; i < stopConditionIndex; i++) {\n                IClaimCondition.ClaimCondition memory condition = drop.getClaimConditionById(i);\n                conditions[i] = condition;\n            }\n        }\n\n        DropERC721Reader.GlobalData memory _globalData;\n        if(stopConditionIndex > 0) {\n            _claimedByUser = drop.getSupplyClaimedByWallet(activeClaimConditionIndex, _claimer);\n            IClaimCondition.ClaimCondition memory condition = drop.getClaimConditionById(activeClaimConditionIndex);\n            if(condition.currency == NATIVE1 || condition.currency == NATIVE2) {\n                _globalData.userBalance = _claimer.balance;\n            } else {\n                _globalData.userBalance = IERC20(condition.currency).balanceOf(_claimer);\n            }\n\n        }\n\n        _globalData.totalMinted         = drop.totalMinted();\n        _globalData.claimedByUser       = _claimedByUser;\n        _globalData.totalSupply         = drop.totalSupply();\n        _globalData.maxTotalSupply      = drop.maxTotalSupply();\n        _globalData.nextTokenIdToMint   = drop.nextTokenIdToMint();\n        _globalData.nextTokenIdToClaim  = drop.nextTokenIdToClaim();\n        _globalData.name                = drop.name();\n        _globalData.symbol              = drop.symbol();\n        _globalData.contractURI         = drop.contractURI();\n        _globalData.baseURICount        = drop.getBaseURICount();\n        _globalData.blockTimeStamp      = block.timestamp;\n        (address rAddress, uint16 rBps)     = drop.getDefaultRoyaltyInfo();\n        _globalData.defaultRoyaltyInfo.recipient    = rAddress;\n        _globalData.defaultRoyaltyInfo.bps          = rBps;\n\n        (address pAddress, uint16 pBps)     = drop.getPlatformFeeInfo();\n        _globalData.platformFeeInfo.recipient       = pAddress;\n        _globalData.platformFeeInfo.bps             = pBps;\n        return (activeClaimConditionIndex, conditions, _globalData);\n    }\n}",
  "sourcePath": "/Users/vfadeev/Work/rarible/thirdweb-query-contracts/contracts/drop-reader/DropERC721Reader.sol",
  "compiler": {
    "name": "solc",
    "version": "0.8.12+commit.f00d7308.Emscripten.clang"
  },
  "schemaVersion": "3.4.3",
  "updatedAt": "2023-09-06T16:00:53.432Z",
  "devdoc": {
    "kind": "dev",
    "methods": {},
    "version": 1
  },
  "userdoc": {
    "kind": "user",
    "methods": {},
    "version": 1
  }
}