{
  "contractName": "Permissions",
  "abi": [
    {
      "anonymous": false,
      "inputs": [
        {
          "indexed": true,
          "internalType": "bytes32",
          "name": "role",
          "type": "bytes32"
        },
        {
          "indexed": true,
          "internalType": "bytes32",
          "name": "previousAdminRole",
          "type": "bytes32"
        },
        {
          "indexed": true,
          "internalType": "bytes32",
          "name": "newAdminRole",
          "type": "bytes32"
        }
      ],
      "name": "RoleAdminChanged",
      "type": "event"
    },
    {
      "anonymous": false,
      "inputs": [
        {
          "indexed": true,
          "internalType": "bytes32",
          "name": "role",
          "type": "bytes32"
        },
        {
          "indexed": true,
          "internalType": "address",
          "name": "account",
          "type": "address"
        },
        {
          "indexed": true,
          "internalType": "address",
          "name": "sender",
          "type": "address"
        }
      ],
      "name": "RoleGranted",
      "type": "event"
    },
    {
      "anonymous": false,
      "inputs": [
        {
          "indexed": true,
          "internalType": "bytes32",
          "name": "role",
          "type": "bytes32"
        },
        {
          "indexed": true,
          "internalType": "address",
          "name": "account",
          "type": "address"
        },
        {
          "indexed": true,
          "internalType": "address",
          "name": "sender",
          "type": "address"
        }
      ],
      "name": "RoleRevoked",
      "type": "event"
    },
    {
      "inputs": [],
      "name": "DEFAULT_ADMIN_ROLE",
      "outputs": [
        {
          "internalType": "bytes32",
          "name": "",
          "type": "bytes32"
        }
      ],
      "stateMutability": "view",
      "type": "function"
    },
    {
      "inputs": [
        {
          "internalType": "bytes32",
          "name": "role",
          "type": "bytes32"
        },
        {
          "internalType": "address",
          "name": "account",
          "type": "address"
        }
      ],
      "name": "hasRole",
      "outputs": [
        {
          "internalType": "bool",
          "name": "",
          "type": "bool"
        }
      ],
      "stateMutability": "view",
      "type": "function"
    },
    {
      "inputs": [
        {
          "internalType": "bytes32",
          "name": "role",
          "type": "bytes32"
        },
        {
          "internalType": "address",
          "name": "account",
          "type": "address"
        }
      ],
      "name": "hasRoleWithSwitch",
      "outputs": [
        {
          "internalType": "bool",
          "name": "",
          "type": "bool"
        }
      ],
      "stateMutability": "view",
      "type": "function"
    },
    {
      "inputs": [
        {
          "internalType": "bytes32",
          "name": "role",
          "type": "bytes32"
        }
      ],
      "name": "getRoleAdmin",
      "outputs": [
        {
          "internalType": "bytes32",
          "name": "",
          "type": "bytes32"
        }
      ],
      "stateMutability": "view",
      "type": "function"
    },
    {
      "inputs": [
        {
          "internalType": "bytes32",
          "name": "role",
          "type": "bytes32"
        },
        {
          "internalType": "address",
          "name": "account",
          "type": "address"
        }
      ],
      "name": "grantRole",
      "outputs": [],
      "stateMutability": "nonpayable",
      "type": "function"
    },
    {
      "inputs": [
        {
          "internalType": "bytes32",
          "name": "role",
          "type": "bytes32"
        },
        {
          "internalType": "address",
          "name": "account",
          "type": "address"
        }
      ],
      "name": "revokeRole",
      "outputs": [],
      "stateMutability": "nonpayable",
      "type": "function"
    },
    {
      "inputs": [
        {
          "internalType": "bytes32",
          "name": "role",
          "type": "bytes32"
        },
        {
          "internalType": "address",
          "name": "account",
          "type": "address"
        }
      ],
      "name": "renounceRole",
      "outputs": [],
      "stateMutability": "nonpayable",
      "type": "function"
    }
  ],
  "bytecode": "0x608060405234801561001057600080fd5b50610f25806100206000396000f3fe608060405234801561001057600080fd5b506004361061007d5760003560e01c806391d148541161005b57806391d14854146100ea578063a217fddf1461011a578063a32fa5b314610138578063d547741f146101685761007d565b8063248a9ca3146100825780632f2ff15d146100b257806336568abe146100ce575b600080fd5b61009c60048036038101906100979190610946565b610184565b6040516100a99190610982565b60405180910390f35b6100cc60048036038101906100c791906109fb565b6101a1565b005b6100e860048036038101906100e391906109fb565b610269565b005b61010460048036038101906100ff91906109fb565b6102e5565b6040516101119190610a56565b60405180910390f35b61012261034c565b60405161012f9190610982565b60405180910390f35b610152600480360381019061014d91906109fb565b610353565b60405161015f9190610a56565b60405180910390f35b610182600480360381019061017d91906109fb565b610425565b005b600060016000838152602001908152602001600020549050919050565b6101be600160008481526020019081526020016000205433610450565b60008083815260200190815260200160002060008273ffffffffffffffffffffffffffffffffffffffff1673ffffffffffffffffffffffffffffffffffffffff16815260200190815260200160002060009054906101000a900460ff161561025b576040517f08c379a000000000000000000000000000000000000000000000000000000000815260040161025290610ace565b60405180910390fd5b6102658282610540565b5050565b8073ffffffffffffffffffffffffffffffffffffffff163373ffffffffffffffffffffffffffffffffffffffff16146102d7576040517f08c379a00000000000000000000000000000000000000000000000000000000081526004016102ce90610b3a565b60405180910390fd5b6102e18282610607565b5050565b600080600084815260200190815260200160002060008373ffffffffffffffffffffffffffffffffffffffff1673ffffffffffffffffffffffffffffffffffffffff16815260200190815260200160002060009054906101000a900460ff16905092915050565b6000801b81565b600080600084815260200190815260200160002060008073ffffffffffffffffffffffffffffffffffffffff1673ffffffffffffffffffffffffffffffffffffffff16815260200190815260200160002060009054906101000a900460ff1661041a5760008084815260200190815260200160002060008373ffffffffffffffffffffffffffffffffffffffff1673ffffffffffffffffffffffffffffffffffffffff16815260200190815260200160002060009054906101000a900460ff16905061041f565b600190505b92915050565b610442600160008481526020019081526020016000205433610450565b61044c8282610607565b5050565b60008083815260200190815260200160002060008273ffffffffffffffffffffffffffffffffffffffff1673ffffffffffffffffffffffffffffffffffffffff16815260200190815260200160002060009054906101000a900460ff1661053c576104d28173ffffffffffffffffffffffffffffffffffffffff1660146106cf565b6104e08360001c60206106cf565b6040516020016104f1929190610c6c565b6040516020818303038152906040526040517f08c379a00000000000000000000000000000000000000000000000000000000081526004016105339190610cf0565b60405180910390fd5b5050565b600160008084815260200190815260200160002060008373ffffffffffffffffffffffffffffffffffffffff1673ffffffffffffffffffffffffffffffffffffffff16815260200190815260200160002060006101000a81548160ff0219169083151502179055503373ffffffffffffffffffffffffffffffffffffffff168173ffffffffffffffffffffffffffffffffffffffff16837f2f8788117e7eff1d82e926ec794901d17c78024a50270940304540a733656f0d60405160405180910390a45050565b6106118282610450565b60008083815260200190815260200160002060008273ffffffffffffffffffffffffffffffffffffffff1673ffffffffffffffffffffffffffffffffffffffff16815260200190815260200160002060006101000a81549060ff02191690553373ffffffffffffffffffffffffffffffffffffffff168173ffffffffffffffffffffffffffffffffffffffff16837ff6391f5c32d9c69d2a47ea670b442974b53935d1edc7fd64eb21e047a839171b60405160405180910390a45050565b6060600060028360026106e29190610d4b565b6106ec9190610da5565b67ffffffffffffffff81111561070557610704610dfb565b5b6040519080825280601f01601f1916602001820160405280156107375781602001600182028036833780820191505090505b5090507f30000000000000000000000000000000000000000000000000000000000000008160008151811061076f5761076e610e2a565b5b60200101907effffffffffffffffffffffffffffffffffffffffffffffffffffffffffffff1916908160001a9053507f7800000000000000000000000000000000000000000000000000000000000000816001815181106107d3576107d2610e2a565b5b60200101907effffffffffffffffffffffffffffffffffffffffffffffffffffffffffffff1916908160001a905350600060018460026108139190610d4b565b61081d9190610da5565b90505b60018111156108bd577f3031323334353637383961626364656600000000000000000000000000000000600f86166010811061085f5761085e610e2a565b5b1a60f81b82828151811061087657610875610e2a565b5b60200101907effffffffffffffffffffffffffffffffffffffffffffffffffffffffffffff1916908160001a905350600485901c9450806108b690610e59565b9050610820565b5060008414610901576040517f08c379a00000000000000000000000000000000000000000000000000000000081526004016108f890610ecf565b60405180910390fd5b8091505092915050565b600080fd5b6000819050919050565b61092381610910565b811461092e57600080fd5b50565b6000813590506109408161091a565b92915050565b60006020828403121561095c5761095b61090b565b5b600061096a84828501610931565b91505092915050565b61097c81610910565b82525050565b60006020820190506109976000830184610973565b92915050565b600073ffffffffffffffffffffffffffffffffffffffff82169050919050565b60006109c88261099d565b9050919050565b6109d8816109bd565b81146109e357600080fd5b50565b6000813590506109f5816109cf565b92915050565b60008060408385031215610a1257610a1161090b565b5b6000610a2085828601610931565b9250506020610a31858286016109e6565b9150509250929050565b60008115159050919050565b610a5081610a3b565b82525050565b6000602082019050610a6b6000830184610a47565b92915050565b600082825260208201905092915050565b7f43616e206f6e6c79206772616e7420746f206e6f6e20686f6c64657273000000600082015250565b6000610ab8601d83610a71565b9150610ac382610a82565b602082019050919050565b60006020820190508181036000830152610ae781610aab565b9050919050565b7f43616e206f6e6c792072656e6f756e636520666f722073656c66000000000000600082015250565b6000610b24601a83610a71565b9150610b2f82610aee565b602082019050919050565b60006020820190508181036000830152610b5381610b17565b9050919050565b600081905092915050565b7f5065726d697373696f6e733a206163636f756e74200000000000000000000000600082015250565b6000610b9b601583610b5a565b9150610ba682610b65565b601582019050919050565b600081519050919050565b60005b83811015610bda578082015181840152602081019050610bbf565b83811115610be9576000848401525b50505050565b6000610bfa82610bb1565b610c048185610b5a565b9350610c14818560208601610bbc565b80840191505092915050565b7f206973206d697373696e6720726f6c6520000000000000000000000000000000600082015250565b6000610c56601183610b5a565b9150610c6182610c20565b601182019050919050565b6000610c7782610b8e565b9150610c838285610bef565b9150610c8e82610c49565b9150610c9a8284610bef565b91508190509392505050565b6000601f19601f8301169050919050565b6000610cc282610bb1565b610ccc8185610a71565b9350610cdc818560208601610bbc565b610ce581610ca6565b840191505092915050565b60006020820190508181036000830152610d0a8184610cb7565b905092915050565b6000819050919050565b7f4e487b7100000000000000000000000000000000000000000000000000000000600052601160045260246000fd5b6000610d5682610d12565b9150610d6183610d12565b9250817fffffffffffffffffffffffffffffffffffffffffffffffffffffffffffffffff0483118215151615610d9a57610d99610d1c565b5b828202905092915050565b6000610db082610d12565b9150610dbb83610d12565b9250827fffffffffffffffffffffffffffffffffffffffffffffffffffffffffffffffff03821115610df057610def610d1c565b5b828201905092915050565b7f4e487b7100000000000000000000000000000000000000000000000000000000600052604160045260246000fd5b7f4e487b7100000000000000000000000000000000000000000000000000000000600052603260045260246000fd5b6000610e6482610d12565b91506000821415610e7857610e77610d1c565b5b600182039050919050565b7f537472696e67733a20686578206c656e67746820696e73756666696369656e74600082015250565b6000610eb9602083610a71565b9150610ec482610e83565b602082019050919050565b60006020820190508181036000830152610ee881610eac565b905091905056fea26469706673582212206dc3ae0b6c802ef8a970075e109191758c68689a4e8d6dd941b539471134387764736f6c634300080c0033",
  "immutableReferences": {},
  "source": "// SPDX-License-Identifier: Apache-2.0\npragma solidity ^0.8.0;\n\n/// @author thirdweb\n\nimport \"./interface/IPermissions.sol\";\nimport \"../lib/TWStrings.sol\";\n\n/**\n *  @title   Permissions\n *  @dev     This contracts provides extending-contracts with role-based access control mechanisms\n */\ncontract Permissions is IPermissions {\n    /// @dev Map from keccak256 hash of a role => a map from address => whether address has role.\n    mapping(bytes32 => mapping(address => bool)) private _hasRole;\n\n    /// @dev Map from keccak256 hash of a role to role admin. See {getRoleAdmin}.\n    mapping(bytes32 => bytes32) private _getRoleAdmin;\n\n    /// @dev Default admin role for all roles. Only accounts with this role can grant/revoke other roles.\n    bytes32 public constant DEFAULT_ADMIN_ROLE = 0x00;\n\n    /// @dev Modifier that checks if an account has the specified role; reverts otherwise.\n    modifier onlyRole(bytes32 role) {\n        _checkRole(role, msg.sender);\n        _;\n    }\n\n    /**\n     *  @notice         Checks whether an account has a particular role.\n     *  @dev            Returns `true` if `account` has been granted `role`.\n     *\n     *  @param role     keccak256 hash of the role. e.g. keccak256(\"TRANSFER_ROLE\")\n     *  @param account  Address of the account for which the role is being checked.\n     */\n    function hasRole(bytes32 role, address account) public view override returns (bool) {\n        return _hasRole[role][account];\n    }\n\n    /**\n     *  @notice         Checks whether an account has a particular role;\n     *                  role restrictions can be swtiched on and off.\n     *\n     *  @dev            Returns `true` if `account` has been granted `role`.\n     *                  Role restrictions can be swtiched on and off:\n     *                      - If address(0) has ROLE, then the ROLE restrictions\n     *                        don't apply.\n     *                      - If address(0) does not have ROLE, then the ROLE\n     *                        restrictions will apply.\n     *\n     *  @param role     keccak256 hash of the role. e.g. keccak256(\"TRANSFER_ROLE\")\n     *  @param account  Address of the account for which the role is being checked.\n     */\n    function hasRoleWithSwitch(bytes32 role, address account) public view returns (bool) {\n        if (!_hasRole[role][address(0)]) {\n            return _hasRole[role][account];\n        }\n\n        return true;\n    }\n\n    /**\n     *  @notice         Returns the admin role that controls the specified role.\n     *  @dev            See {grantRole} and {revokeRole}.\n     *                  To change a role's admin, use {_setRoleAdmin}.\n     *\n     *  @param role     keccak256 hash of the role. e.g. keccak256(\"TRANSFER_ROLE\")\n     */\n    function getRoleAdmin(bytes32 role) external view override returns (bytes32) {\n        return _getRoleAdmin[role];\n    }\n\n    /**\n     *  @notice         Grants a role to an account, if not previously granted.\n     *  @dev            Caller must have admin role for the `role`.\n     *                  Emits {RoleGranted Event}.\n     *\n     *  @param role     keccak256 hash of the role. e.g. keccak256(\"TRANSFER_ROLE\")\n     *  @param account  Address of the account to which the role is being granted.\n     */\n    function grantRole(bytes32 role, address account) public virtual override {\n        _checkRole(_getRoleAdmin[role], msg.sender);\n        if (_hasRole[role][account]) {\n            revert(\"Can only grant to non holders\");\n        }\n        _setupRole(role, account);\n    }\n\n    /**\n     *  @notice         Revokes role from an account.\n     *  @dev            Caller must have admin role for the `role`.\n     *                  Emits {RoleRevoked Event}.\n     *\n     *  @param role     keccak256 hash of the role. e.g. keccak256(\"TRANSFER_ROLE\")\n     *  @param account  Address of the account from which the role is being revoked.\n     */\n    function revokeRole(bytes32 role, address account) public virtual override {\n        _checkRole(_getRoleAdmin[role], msg.sender);\n        _revokeRole(role, account);\n    }\n\n    /**\n     *  @notice         Revokes role from the account.\n     *  @dev            Caller must have the `role`, with caller being the same as `account`.\n     *                  Emits {RoleRevoked Event}.\n     *\n     *  @param role     keccak256 hash of the role. e.g. keccak256(\"TRANSFER_ROLE\")\n     *  @param account  Address of the account from which the role is being revoked.\n     */\n    function renounceRole(bytes32 role, address account) public virtual override {\n        if (msg.sender != account) {\n            revert(\"Can only renounce for self\");\n        }\n        _revokeRole(role, account);\n    }\n\n    /// @dev Sets `adminRole` as `role`'s admin role.\n    function _setRoleAdmin(bytes32 role, bytes32 adminRole) internal virtual {\n        bytes32 previousAdminRole = _getRoleAdmin[role];\n        _getRoleAdmin[role] = adminRole;\n        emit RoleAdminChanged(role, previousAdminRole, adminRole);\n    }\n\n    /// @dev Sets up `role` for `account`\n    function _setupRole(bytes32 role, address account) internal virtual {\n        _hasRole[role][account] = true;\n        emit RoleGranted(role, account, msg.sender);\n    }\n\n    /// @dev Revokes `role` from `account`\n    function _revokeRole(bytes32 role, address account) internal virtual {\n        _checkRole(role, account);\n        delete _hasRole[role][account];\n        emit RoleRevoked(role, account, msg.sender);\n    }\n\n    /// @dev Checks `role` for `account`. Reverts with a message including the required role.\n    function _checkRole(bytes32 role, address account) internal view virtual {\n        if (!_hasRole[role][account]) {\n            revert(\n                string(\n                    abi.encodePacked(\n                        \"Permissions: account \",\n                        TWStrings.toHexString(uint160(account), 20),\n                        \" is missing role \",\n                        TWStrings.toHexString(uint256(role), 32)\n                    )\n                )\n            );\n        }\n    }\n\n    /// @dev Checks `role` for `account`. Reverts with a message including the required role.\n    function _checkRoleWithSwitch(bytes32 role, address account) internal view virtual {\n        if (!hasRoleWithSwitch(role, account)) {\n            revert(\n                string(\n                    abi.encodePacked(\n                        \"Permissions: account \",\n                        TWStrings.toHexString(uint160(account), 20),\n                        \" is missing role \",\n                        TWStrings.toHexString(uint256(role), 32)\n                    )\n                )\n            );\n        }\n    }\n}\n",
  "sourcePath": "/Users/vfadeev/Work/rarible/thirdweb-query-contracts/contracts/extension/Permissions.sol",
  "compiler": {
    "name": "solc",
    "version": "0.8.12+commit.f00d7308.Emscripten.clang"
  },
  "schemaVersion": "3.4.3",
  "updatedAt": "2023-09-06T16:00:53.487Z",
  "devdoc": {
    "details": "This contracts provides extending-contracts with role-based access control mechanisms",
    "kind": "dev",
    "methods": {
      "getRoleAdmin(bytes32)": {
        "details": "See {grantRole} and {revokeRole}.                  To change a role's admin, use {_setRoleAdmin}.",
        "params": {
          "role": "keccak256 hash of the role. e.g. keccak256(\"TRANSFER_ROLE\")"
        }
      },
      "grantRole(bytes32,address)": {
        "details": "Caller must have admin role for the `role`.                  Emits {RoleGranted Event}.",
        "params": {
          "account": "Address of the account to which the role is being granted.",
          "role": "keccak256 hash of the role. e.g. keccak256(\"TRANSFER_ROLE\")"
        }
      },
      "hasRole(bytes32,address)": {
        "details": "Returns `true` if `account` has been granted `role`.",
        "params": {
          "account": "Address of the account for which the role is being checked.",
          "role": "keccak256 hash of the role. e.g. keccak256(\"TRANSFER_ROLE\")"
        }
      },
      "hasRoleWithSwitch(bytes32,address)": {
        "details": "Returns `true` if `account` has been granted `role`.                  Role restrictions can be swtiched on and off:                      - If address(0) has ROLE, then the ROLE restrictions                        don't apply.                      - If address(0) does not have ROLE, then the ROLE                        restrictions will apply.",
        "params": {
          "account": "Address of the account for which the role is being checked.",
          "role": "keccak256 hash of the role. e.g. keccak256(\"TRANSFER_ROLE\")"
        }
      },
      "renounceRole(bytes32,address)": {
        "details": "Caller must have the `role`, with caller being the same as `account`.                  Emits {RoleRevoked Event}.",
        "params": {
          "account": "Address of the account from which the role is being revoked.",
          "role": "keccak256 hash of the role. e.g. keccak256(\"TRANSFER_ROLE\")"
        }
      },
      "revokeRole(bytes32,address)": {
        "details": "Caller must have admin role for the `role`.                  Emits {RoleRevoked Event}.",
        "params": {
          "account": "Address of the account from which the role is being revoked.",
          "role": "keccak256 hash of the role. e.g. keccak256(\"TRANSFER_ROLE\")"
        }
      }
    },
    "stateVariables": {
      "DEFAULT_ADMIN_ROLE": {
        "details": "Default admin role for all roles. Only accounts with this role can grant/revoke other roles."
      },
      "_getRoleAdmin": {
        "details": "Map from keccak256 hash of a role to role admin. See {getRoleAdmin}."
      },
      "_hasRole": {
        "details": "Map from keccak256 hash of a role => a map from address => whether address has role."
      }
    },
    "title": "Permissions",
    "version": 1
  },
  "userdoc": {
    "kind": "user",
    "methods": {
      "getRoleAdmin(bytes32)": {
        "notice": "Returns the admin role that controls the specified role."
      },
      "grantRole(bytes32,address)": {
        "notice": "Grants a role to an account, if not previously granted."
      },
      "hasRole(bytes32,address)": {
        "notice": "Checks whether an account has a particular role."
      },
      "hasRoleWithSwitch(bytes32,address)": {
        "notice": "Checks whether an account has a particular role;                  role restrictions can be swtiched on and off."
      },
      "renounceRole(bytes32,address)": {
        "notice": "Revokes role from the account."
      },
      "revokeRole(bytes32,address)": {
        "notice": "Revokes role from an account."
      }
    },
    "version": 1
  }
}