{
  "contractName": "PermissionsEnumerable",
  "abi": [
    {
      "anonymous": false,
      "inputs": [
        {
          "indexed": true,
          "internalType": "bytes32",
          "name": "role",
          "type": "bytes32"
        },
        {
          "indexed": true,
          "internalType": "bytes32",
          "name": "previousAdminRole",
          "type": "bytes32"
        },
        {
          "indexed": true,
          "internalType": "bytes32",
          "name": "newAdminRole",
          "type": "bytes32"
        }
      ],
      "name": "RoleAdminChanged",
      "type": "event"
    },
    {
      "anonymous": false,
      "inputs": [
        {
          "indexed": true,
          "internalType": "bytes32",
          "name": "role",
          "type": "bytes32"
        },
        {
          "indexed": true,
          "internalType": "address",
          "name": "account",
          "type": "address"
        },
        {
          "indexed": true,
          "internalType": "address",
          "name": "sender",
          "type": "address"
        }
      ],
      "name": "RoleGranted",
      "type": "event"
    },
    {
      "anonymous": false,
      "inputs": [
        {
          "indexed": true,
          "internalType": "bytes32",
          "name": "role",
          "type": "bytes32"
        },
        {
          "indexed": true,
          "internalType": "address",
          "name": "account",
          "type": "address"
        },
        {
          "indexed": true,
          "internalType": "address",
          "name": "sender",
          "type": "address"
        }
      ],
      "name": "RoleRevoked",
      "type": "event"
    },
    {
      "inputs": [],
      "name": "DEFAULT_ADMIN_ROLE",
      "outputs": [
        {
          "internalType": "bytes32",
          "name": "",
          "type": "bytes32"
        }
      ],
      "stateMutability": "view",
      "type": "function"
    },
    {
      "inputs": [
        {
          "internalType": "bytes32",
          "name": "role",
          "type": "bytes32"
        }
      ],
      "name": "getRoleAdmin",
      "outputs": [
        {
          "internalType": "bytes32",
          "name": "",
          "type": "bytes32"
        }
      ],
      "stateMutability": "view",
      "type": "function"
    },
    {
      "inputs": [
        {
          "internalType": "bytes32",
          "name": "role",
          "type": "bytes32"
        },
        {
          "internalType": "address",
          "name": "account",
          "type": "address"
        }
      ],
      "name": "grantRole",
      "outputs": [],
      "stateMutability": "nonpayable",
      "type": "function"
    },
    {
      "inputs": [
        {
          "internalType": "bytes32",
          "name": "role",
          "type": "bytes32"
        },
        {
          "internalType": "address",
          "name": "account",
          "type": "address"
        }
      ],
      "name": "hasRole",
      "outputs": [
        {
          "internalType": "bool",
          "name": "",
          "type": "bool"
        }
      ],
      "stateMutability": "view",
      "type": "function"
    },
    {
      "inputs": [
        {
          "internalType": "bytes32",
          "name": "role",
          "type": "bytes32"
        },
        {
          "internalType": "address",
          "name": "account",
          "type": "address"
        }
      ],
      "name": "hasRoleWithSwitch",
      "outputs": [
        {
          "internalType": "bool",
          "name": "",
          "type": "bool"
        }
      ],
      "stateMutability": "view",
      "type": "function"
    },
    {
      "inputs": [
        {
          "internalType": "bytes32",
          "name": "role",
          "type": "bytes32"
        },
        {
          "internalType": "address",
          "name": "account",
          "type": "address"
        }
      ],
      "name": "renounceRole",
      "outputs": [],
      "stateMutability": "nonpayable",
      "type": "function"
    },
    {
      "inputs": [
        {
          "internalType": "bytes32",
          "name": "role",
          "type": "bytes32"
        },
        {
          "internalType": "address",
          "name": "account",
          "type": "address"
        }
      ],
      "name": "revokeRole",
      "outputs": [],
      "stateMutability": "nonpayable",
      "type": "function"
    },
    {
      "inputs": [
        {
          "internalType": "bytes32",
          "name": "role",
          "type": "bytes32"
        },
        {
          "internalType": "uint256",
          "name": "index",
          "type": "uint256"
        }
      ],
      "name": "getRoleMember",
      "outputs": [
        {
          "internalType": "address",
          "name": "member",
          "type": "address"
        }
      ],
      "stateMutability": "view",
      "type": "function"
    },
    {
      "inputs": [
        {
          "internalType": "bytes32",
          "name": "role",
          "type": "bytes32"
        }
      ],
      "name": "getRoleMemberCount",
      "outputs": [
        {
          "internalType": "uint256",
          "name": "count",
          "type": "uint256"
        }
      ],
      "stateMutability": "view",
      "type": "function"
    }
  ],
  "bytecode": "0x608060405234801561001057600080fd5b50611534806100206000396000f3fe608060405234801561001057600080fd5b50600436106100935760003560e01c806391d148541161006657806391d1485414610130578063a217fddf14610160578063a32fa5b31461017e578063ca15c873146101ae578063d547741f146101de57610093565b8063248a9ca3146100985780632f2ff15d146100c857806336568abe146100e45780639010d07c14610100575b600080fd5b6100b260048036038101906100ad9190610e95565b6101fa565b6040516100bf9190610ed1565b60405180910390f35b6100e260048036038101906100dd9190610f4a565b610217565b005b6100fe60048036038101906100f99190610f4a565b6102df565b005b61011a60048036038101906101159190610fc0565b61035b565b604051610127919061100f565b60405180910390f35b61014a60048036038101906101459190610f4a565b61050d565b6040516101579190611045565b60405180910390f35b610168610574565b6040516101759190610ed1565b60405180910390f35b61019860048036038101906101939190610f4a565b61057b565b6040516101a59190611045565b60405180910390f35b6101c860048036038101906101c39190610e95565b61064d565b6040516101d5919061106f565b60405180910390f35b6101f860048036038101906101f39190610f4a565b61073a565b005b600060016000838152602001908152602001600020549050919050565b610234600160008481526020019081526020016000205433610765565b60008083815260200190815260200160002060008273ffffffffffffffffffffffffffffffffffffffff1673ffffffffffffffffffffffffffffffffffffffff16815260200190815260200160002060009054906101000a900460ff16156102d1576040517f08c379a00000000000000000000000000000000000000000000000000000000081526004016102c8906110e7565b60405180910390fd5b6102db8282610855565b5050565b8073ffffffffffffffffffffffffffffffffffffffff163373ffffffffffffffffffffffffffffffffffffffff161461034d576040517f08c379a000000000000000000000000000000000000000000000000000000000815260040161034490611153565b60405180910390fd5b610357828261086d565b5050565b60008060026000858152602001908152602001600020600001549050600080600090505b8281101561050357600073ffffffffffffffffffffffffffffffffffffffff1660026000888152602001908152602001600020600101600083815260200190815260200160002060009054906101000a900473ffffffffffffffffffffffffffffffffffffffff1673ffffffffffffffffffffffffffffffffffffffff1614610470578482141561045c5760026000878152602001908152602001600020600101600082815260200190815260200160002060009054906101000a900473ffffffffffffffffffffffffffffffffffffffff169350505050610507565b60018261046991906111a2565b91506104ef565b61047b86600061050d565b80156104d957506002600087815260200190815260200160002060020160008073ffffffffffffffffffffffffffffffffffffffff1673ffffffffffffffffffffffffffffffffffffffff1681526020019081526020016000205481145b156104ee576001826104eb91906111a2565b91505b5b6001816104fc91906111a2565b905061037f565b5050505b92915050565b600080600084815260200190815260200160002060008373ffffffffffffffffffffffffffffffffffffffff1673ffffffffffffffffffffffffffffffffffffffff16815260200190815260200160002060009054906101000a900460ff16905092915050565b6000801b81565b600080600084815260200190815260200160002060008073ffffffffffffffffffffffffffffffffffffffff1673ffffffffffffffffffffffffffffffffffffffff16815260200190815260200160002060009054906101000a900460ff166106425760008084815260200190815260200160002060008373ffffffffffffffffffffffffffffffffffffffff1673ffffffffffffffffffffffffffffffffffffffff16815260200190815260200160002060009054906101000a900460ff169050610647565b600190505b92915050565b6000806002600084815260200190815260200160002060000154905060005b8181101561071357600073ffffffffffffffffffffffffffffffffffffffff1660026000868152602001908152602001600020600101600083815260200190815260200160002060009054906101000a900473ffffffffffffffffffffffffffffffffffffffff1673ffffffffffffffffffffffffffffffffffffffff16146106ff576001836106fc91906111a2565b92505b60018161070c91906111a2565b905061066c565b5061071f83600061050d565b156107345760018261073191906111a2565b91505b50919050565b610757600160008481526020019081526020016000205433610765565b610761828261086d565b5050565b60008083815260200190815260200160002060008273ffffffffffffffffffffffffffffffffffffffff1673ffffffffffffffffffffffffffffffffffffffff16815260200190815260200160002060009054906101000a900460ff16610851576107e78173ffffffffffffffffffffffffffffffffffffffff166014610885565b6107f58360001c6020610885565b60405160200161080692919061130a565b6040516020818303038152906040526040517f08c379a0000000000000000000000000000000000000000000000000000000008152600401610848919061138e565b60405180910390fd5b5050565b61085f8282610ac1565b6108698282610b88565b5050565b6108778282610c94565b6108818282610d5c565b5050565b60606000600283600261089891906113b0565b6108a291906111a2565b67ffffffffffffffff8111156108bb576108ba61140a565b5b6040519080825280601f01601f1916602001820160405280156108ed5781602001600182028036833780820191505090505b5090507f30000000000000000000000000000000000000000000000000000000000000008160008151811061092557610924611439565b5b60200101907effffffffffffffffffffffffffffffffffffffffffffffffffffffffffffff1916908160001a9053507f78000000000000000000000000000000000000000000000000000000000000008160018151811061098957610988611439565b5b60200101907effffffffffffffffffffffffffffffffffffffffffffffffffffffffffffff1916908160001a905350600060018460026109c991906113b0565b6109d391906111a2565b90505b6001811115610a73577f3031323334353637383961626364656600000000000000000000000000000000600f861660108110610a1557610a14611439565b5b1a60f81b828281518110610a2c57610a2b611439565b5b60200101907effffffffffffffffffffffffffffffffffffffffffffffffffffffffffffff1916908160001a905350600485901c945080610a6c90611468565b90506109d6565b5060008414610ab7576040517f08c379a0000000000000000000000000000000000000000000000000000000008152600401610aae906114de565b60405180910390fd5b8091505092915050565b600160008084815260200190815260200160002060008373ffffffffffffffffffffffffffffffffffffffff1673ffffffffffffffffffffffffffffffffffffffff16815260200190815260200160002060006101000a81548160ff0219169083151502179055503373ffffffffffffffffffffffffffffffffffffffff168173ffffffffffffffffffffffffffffffffffffffff16837f2f8788117e7eff1d82e926ec794901d17c78024a50270940304540a733656f0d60405160405180910390a45050565b6000600260008481526020019081526020016000206000015490506001600260008581526020019081526020016000206000016000828254610bca91906111a2565b925050819055508160026000858152602001908152602001600020600101600083815260200190815260200160002060006101000a81548173ffffffffffffffffffffffffffffffffffffffff021916908373ffffffffffffffffffffffffffffffffffffffff160217905550806002600085815260200190815260200160002060020160008473ffffffffffffffffffffffffffffffffffffffff1673ffffffffffffffffffffffffffffffffffffffff16815260200190815260200160002081905550505050565b610c9e8282610765565b60008083815260200190815260200160002060008273ffffffffffffffffffffffffffffffffffffffff1673ffffffffffffffffffffffffffffffffffffffff16815260200190815260200160002060006101000a81549060ff02191690553373ffffffffffffffffffffffffffffffffffffffff168173ffffffffffffffffffffffffffffffffffffffff16837ff6391f5c32d9c69d2a47ea670b442974b53935d1edc7fd64eb21e047a839171b60405160405180910390a45050565b60006002600084815260200190815260200160002060020160008373ffffffffffffffffffffffffffffffffffffffff1673ffffffffffffffffffffffffffffffffffffffff16815260200190815260200160002054905060026000848152602001908152602001600020600101600082815260200190815260200160002060006101000a81549073ffffffffffffffffffffffffffffffffffffffff02191690556002600084815260200190815260200160002060020160008373ffffffffffffffffffffffffffffffffffffffff1673ffffffffffffffffffffffffffffffffffffffff16815260200190815260200160002060009055505050565b600080fd5b6000819050919050565b610e7281610e5f565b8114610e7d57600080fd5b50565b600081359050610e8f81610e69565b92915050565b600060208284031215610eab57610eaa610e5a565b5b6000610eb984828501610e80565b91505092915050565b610ecb81610e5f565b82525050565b6000602082019050610ee66000830184610ec2565b92915050565b600073ffffffffffffffffffffffffffffffffffffffff82169050919050565b6000610f1782610eec565b9050919050565b610f2781610f0c565b8114610f3257600080fd5b50565b600081359050610f4481610f1e565b92915050565b60008060408385031215610f6157610f60610e5a565b5b6000610f6f85828601610e80565b9250506020610f8085828601610f35565b9150509250929050565b6000819050919050565b610f9d81610f8a565b8114610fa857600080fd5b50565b600081359050610fba81610f94565b92915050565b60008060408385031215610fd757610fd6610e5a565b5b6000610fe585828601610e80565b9250506020610ff685828601610fab565b9150509250929050565b61100981610f0c565b82525050565b60006020820190506110246000830184611000565b92915050565b60008115159050919050565b61103f8161102a565b82525050565b600060208201905061105a6000830184611036565b92915050565b61106981610f8a565b82525050565b60006020820190506110846000830184611060565b92915050565b600082825260208201905092915050565b7f43616e206f6e6c79206772616e7420746f206e6f6e20686f6c64657273000000600082015250565b60006110d1601d8361108a565b91506110dc8261109b565b602082019050919050565b60006020820190508181036000830152611100816110c4565b9050919050565b7f43616e206f6e6c792072656e6f756e636520666f722073656c66000000000000600082015250565b600061113d601a8361108a565b915061114882611107565b602082019050919050565b6000602082019050818103600083015261116c81611130565b9050919050565b7f4e487b7100000000000000000000000000000000000000000000000000000000600052601160045260246000fd5b60006111ad82610f8a565b91506111b883610f8a565b9250827fffffffffffffffffffffffffffffffffffffffffffffffffffffffffffffffff038211156111ed576111ec611173565b5b828201905092915050565b600081905092915050565b7f5065726d697373696f6e733a206163636f756e74200000000000000000000000600082015250565b60006112396015836111f8565b915061124482611203565b601582019050919050565b600081519050919050565b60005b8381101561127857808201518184015260208101905061125d565b83811115611287576000848401525b50505050565b60006112988261124f565b6112a281856111f8565b93506112b281856020860161125a565b80840191505092915050565b7f206973206d697373696e6720726f6c6520000000000000000000000000000000600082015250565b60006112f46011836111f8565b91506112ff826112be565b601182019050919050565b60006113158261122c565b9150611321828561128d565b915061132c826112e7565b9150611338828461128d565b91508190509392505050565b6000601f19601f8301169050919050565b60006113608261124f565b61136a818561108a565b935061137a81856020860161125a565b61138381611344565b840191505092915050565b600060208201905081810360008301526113a88184611355565b905092915050565b60006113bb82610f8a565b91506113c683610f8a565b9250817fffffffffffffffffffffffffffffffffffffffffffffffffffffffffffffffff04831182151516156113ff576113fe611173565b5b828202905092915050565b7f4e487b7100000000000000000000000000000000000000000000000000000000600052604160045260246000fd5b7f4e487b7100000000000000000000000000000000000000000000000000000000600052603260045260246000fd5b600061147382610f8a565b9150600082141561148757611486611173565b5b600182039050919050565b7f537472696e67733a20686578206c656e67746820696e73756666696369656e74600082015250565b60006114c860208361108a565b91506114d382611492565b602082019050919050565b600060208201905081810360008301526114f7816114bb565b905091905056fea264697066735822122021784e1aff60c299d8546108453e307a09ad866a3c0d7697a1ffe56f0b9822ff64736f6c634300080c0033",
  "immutableReferences": {},
  "source": "// SPDX-License-Identifier: Apache-2.0\npragma solidity ^0.8.0;\n\n/// @author thirdweb\n\nimport \"./interface/IPermissionsEnumerable.sol\";\nimport \"./Permissions.sol\";\n\n/**\n *  @title   PermissionsEnumerable\n *  @dev     This contracts provides extending-contracts with role-based access control mechanisms.\n *           Also provides interface to view all members with a given role, and total count of members.\n */\ncontract PermissionsEnumerable is IPermissionsEnumerable, Permissions {\n    /**\n     *  @notice A data structure to store data of members for a given role.\n     *\n     *  @param index    Current index in the list of accounts that have a role.\n     *  @param members  map from index => address of account that has a role\n     *  @param indexOf  map from address => index which the account has.\n     */\n    struct RoleMembers {\n        uint256 index;\n        mapping(uint256 => address) members;\n        mapping(address => uint256) indexOf;\n    }\n\n    /// @dev map from keccak256 hash of a role to its members' data. See {RoleMembers}.\n    mapping(bytes32 => RoleMembers) private roleMembers;\n\n    /**\n     *  @notice         Returns the role-member from a list of members for a role,\n     *                  at a given index.\n     *  @dev            Returns `member` who has `role`, at `index` of role-members list.\n     *                  See struct {RoleMembers}, and mapping {roleMembers}\n     *\n     *  @param role     keccak256 hash of the role. e.g. keccak256(\"TRANSFER_ROLE\")\n     *  @param index    Index in list of current members for the role.\n     *\n     *  @return member  Address of account that has `role`\n     */\n    function getRoleMember(bytes32 role, uint256 index) external view override returns (address member) {\n        uint256 currentIndex = roleMembers[role].index;\n        uint256 check;\n\n        for (uint256 i = 0; i < currentIndex; i += 1) {\n            if (roleMembers[role].members[i] != address(0)) {\n                if (check == index) {\n                    member = roleMembers[role].members[i];\n                    return member;\n                }\n                check += 1;\n            } else if (hasRole(role, address(0)) && i == roleMembers[role].indexOf[address(0)]) {\n                check += 1;\n            }\n        }\n    }\n\n    /**\n     *  @notice         Returns total number of accounts that have a role.\n     *  @dev            Returns `count` of accounts that have `role`.\n     *                  See struct {RoleMembers}, and mapping {roleMembers}\n     *\n     *  @param role     keccak256 hash of the role. e.g. keccak256(\"TRANSFER_ROLE\")\n     *\n     *  @return count   Total number of accounts that have `role`\n     */\n    function getRoleMemberCount(bytes32 role) external view override returns (uint256 count) {\n        uint256 currentIndex = roleMembers[role].index;\n\n        for (uint256 i = 0; i < currentIndex; i += 1) {\n            if (roleMembers[role].members[i] != address(0)) {\n                count += 1;\n            }\n        }\n        if (hasRole(role, address(0))) {\n            count += 1;\n        }\n    }\n\n    /// @dev Revokes `role` from `account`, and removes `account` from {roleMembers}\n    ///      See {_removeMember}\n    function _revokeRole(bytes32 role, address account) internal override {\n        super._revokeRole(role, account);\n        _removeMember(role, account);\n    }\n\n    /// @dev Grants `role` to `account`, and adds `account` to {roleMembers}\n    ///      See {_addMember}\n    function _setupRole(bytes32 role, address account) internal override {\n        super._setupRole(role, account);\n        _addMember(role, account);\n    }\n\n    /// @dev adds `account` to {roleMembers}, for `role`\n    function _addMember(bytes32 role, address account) internal {\n        uint256 idx = roleMembers[role].index;\n        roleMembers[role].index += 1;\n\n        roleMembers[role].members[idx] = account;\n        roleMembers[role].indexOf[account] = idx;\n    }\n\n    /// @dev removes `account` from {roleMembers}, for `role`\n    function _removeMember(bytes32 role, address account) internal {\n        uint256 idx = roleMembers[role].indexOf[account];\n\n        delete roleMembers[role].members[idx];\n        delete roleMembers[role].indexOf[account];\n    }\n}\n",
  "sourcePath": "/Users/vfadeev/Work/rarible/thirdweb-query-contracts/contracts/extension/PermissionsEnumerable.sol",
  "compiler": {
    "name": "solc",
    "version": "0.8.12+commit.f00d7308.Emscripten.clang"
  },
  "schemaVersion": "3.4.3",
  "updatedAt": "2023-09-06T16:00:53.491Z",
  "devdoc": {
    "details": "This contracts provides extending-contracts with role-based access control mechanisms.           Also provides interface to view all members with a given role, and total count of members.",
    "kind": "dev",
    "methods": {
      "getRoleAdmin(bytes32)": {
        "details": "See {grantRole} and {revokeRole}.                  To change a role's admin, use {_setRoleAdmin}.",
        "params": {
          "role": "keccak256 hash of the role. e.g. keccak256(\"TRANSFER_ROLE\")"
        }
      },
      "getRoleMember(bytes32,uint256)": {
        "details": "Returns `member` who has `role`, at `index` of role-members list.                  See struct {RoleMembers}, and mapping {roleMembers}",
        "params": {
          "index": "Index in list of current members for the role.",
          "role": "keccak256 hash of the role. e.g. keccak256(\"TRANSFER_ROLE\")"
        },
        "returns": {
          "member": " Address of account that has `role`"
        }
      },
      "getRoleMemberCount(bytes32)": {
        "details": "Returns `count` of accounts that have `role`.                  See struct {RoleMembers}, and mapping {roleMembers}",
        "params": {
          "role": "keccak256 hash of the role. e.g. keccak256(\"TRANSFER_ROLE\")"
        },
        "returns": {
          "count": "  Total number of accounts that have `role`"
        }
      },
      "grantRole(bytes32,address)": {
        "details": "Caller must have admin role for the `role`.                  Emits {RoleGranted Event}.",
        "params": {
          "account": "Address of the account to which the role is being granted.",
          "role": "keccak256 hash of the role. e.g. keccak256(\"TRANSFER_ROLE\")"
        }
      },
      "hasRole(bytes32,address)": {
        "details": "Returns `true` if `account` has been granted `role`.",
        "params": {
          "account": "Address of the account for which the role is being checked.",
          "role": "keccak256 hash of the role. e.g. keccak256(\"TRANSFER_ROLE\")"
        }
      },
      "hasRoleWithSwitch(bytes32,address)": {
        "details": "Returns `true` if `account` has been granted `role`.                  Role restrictions can be swtiched on and off:                      - If address(0) has ROLE, then the ROLE restrictions                        don't apply.                      - If address(0) does not have ROLE, then the ROLE                        restrictions will apply.",
        "params": {
          "account": "Address of the account for which the role is being checked.",
          "role": "keccak256 hash of the role. e.g. keccak256(\"TRANSFER_ROLE\")"
        }
      },
      "renounceRole(bytes32,address)": {
        "details": "Caller must have the `role`, with caller being the same as `account`.                  Emits {RoleRevoked Event}.",
        "params": {
          "account": "Address of the account from which the role is being revoked.",
          "role": "keccak256 hash of the role. e.g. keccak256(\"TRANSFER_ROLE\")"
        }
      },
      "revokeRole(bytes32,address)": {
        "details": "Caller must have admin role for the `role`.                  Emits {RoleRevoked Event}.",
        "params": {
          "account": "Address of the account from which the role is being revoked.",
          "role": "keccak256 hash of the role. e.g. keccak256(\"TRANSFER_ROLE\")"
        }
      }
    },
    "stateVariables": {
      "roleMembers": {
        "details": "map from keccak256 hash of a role to its members' data. See {RoleMembers}."
      }
    },
    "title": "PermissionsEnumerable",
    "version": 1
  },
  "userdoc": {
    "kind": "user",
    "methods": {
      "getRoleAdmin(bytes32)": {
        "notice": "Returns the admin role that controls the specified role."
      },
      "getRoleMember(bytes32,uint256)": {
        "notice": "Returns the role-member from a list of members for a role,                  at a given index."
      },
      "getRoleMemberCount(bytes32)": {
        "notice": "Returns total number of accounts that have a role."
      },
      "grantRole(bytes32,address)": {
        "notice": "Grants a role to an account, if not previously granted."
      },
      "hasRole(bytes32,address)": {
        "notice": "Checks whether an account has a particular role."
      },
      "hasRoleWithSwitch(bytes32,address)": {
        "notice": "Checks whether an account has a particular role;                  role restrictions can be swtiched on and off."
      },
      "renounceRole(bytes32,address)": {
        "notice": "Revokes role from the account."
      },
      "revokeRole(bytes32,address)": {
        "notice": "Revokes role from an account."
      }
    },
    "version": 1
  }
}